:10400000007F0020F5880000A587000055AE000065
:10401000F1880000F1880000F1880000F1880000BC
:10402000000000000000000000000000F188000017
:10403000F188000000000000F1880000F188000015
:104040000000000000000000000000000000000070
:104050000000000000000000000000000000000060
:104060000000000000000000000000000000000050
:104070000000000000000000000000000000000040
:104080000000000000000000000000000000000030
:104090000000000000000000000000000000000020
:1040A0000000000000000000000000000000000010
:1040B0000000000000000000000000000000000000
:1040C00010B5054C237833B9044B13B10448AFF352
:1040D00000800123237010BD50020020000000006A
:1040E000C81D010008B5034B1BB103490348AFF3DA
:1040F000008008BD0000000054020020C81D01001F
:104100007047FFFF2DE9F041204F214DDFF89880E7
:10411000002601243846214600F00DFD384600F007
:10412000DCF8F0B91B491A4806F0C2FA0F2C03D884
:104130001949284606F0BCFA10222146284606F006
:10414000FAFA1649284606F0C1FA01360134E4B2FB
:104150007F2CDFD1BEB912490D48BDE8F04106F011
:10416000B5BA0428F2D14146094806F0A1FA0F2C4D
:1041700003D80949284606F09BFA10222146284612
:1041800006F0DBFAE2E70749E6E700BF6C02002031
:10419000B40B0020AC0D0100CB0D0100CD0D0100D2
:1041A000EC0D0100020E0100D00D010008B54FF426
:1041B0001651084805F09AFC064805F095FC0028C1
:1041C000FAD00549034806F081FABDE80840FFF738
:1041D00099BF00BFB40B0020150E010000207047EE
:1041E0004309012200F01F0002FA00F02033044AC4
:1041F00042F82300BFF34F8FBFF36F8F704700BFAC
:1042000000E100E003681B78092B0BD80A4A52F83A
:1042100023303BB11A7F2AB10279012A03D103224C
:1042200083F82E207047022A01D10122F8E7032AE1
:10423000F8D10222F4E700BF240B002003681B78AA
:10424000022B0BD80A4A52F823303BB11A7F2AB10D
:104250000279012A03D1032283F82E207047022A13
:1042600001D10122F8E7032AF8D10222F4E700BFC6
:10427000FC0A002010B5037F0446B3B1437FBBB1F5
:10428000D0F81C318BB13C30984794F98B00FFF784
:10429000A7FF94F98A00FFF7A3FF94F98C00FFF7BA
:1042A0009FFF94F98D00FFF79BFF0023237710BD3C
:1042B000D0F83031002BF8D0A430984794F9E500BD
:1042C000FFF78EFF94F9E400FFF78AFF94F9E60008
:1042D000FFF786FF94F9E700E5E7036801211B6B10
:1042E000184710B403689C6B0123A4465DF8044B87
:1042F000604707B5037F8DF8071063B1437FC3B1F3
:1043000090F82C309BB1D0F83834FE2B07D901231C
:1043100080F82D304360002003B05DF804FBC21824
:104320009DF8071082F833120133C0F838340120A9
:10433000F2E7D0F82831002BF9D001220DF1070166
:10434000A4309847F3E7C0F840147047C0F844140D
:10435000704790F83C34D0F83404C01A704790F895
:104360003C34D0F834148B4202463FBFC1180133AD
:1043700091F8320382F83C3428BF4FF0FF30704789
:1043800090F83C34D0F8342493423ABFC01890F8E7
:1043900032034FF0FF30704790F82E30022B03D0DD
:1043A00090F82E30032BF7D17047F8B5037F044601
:1043B0000D46164693B1437F4BB18F18BD420BD0CB
:1043C000236815F8011B1B6820469847F6E7D0F8CC
:1043D00028310BB1A43098473046F8BD1E46FBE7A4
:1043E00038B5037F04460D4633B1437F23B1D0F87F
:1043F0001C310BB13C309847637FDBB1294BC4F8CB
:1044000080501A6A94F824305BB327490F230022A6
:1044100084F833308D424FF0010384F8312084F862
:10442000343015D10E2384F83030FF2384F8323035
:1044300084F82F20237F53B1D4F800313BB104F12D
:104440007C0104F13C00984708B10023237738BD74
:10445000022284F83020CC2284F8322084F82F30D5
:10446000E8E7124B1B68C2F302618B400E49C2F3AE
:1044700002328D4223FA02F30D4AB3FBF2F303F149
:10448000FF3208D00B4B9D42D4D141F20F0323875A
:1044900084F83720CEE741F61A320133228784F8B8
:1044A0003730C7E700E00140A0860100302300203C
:1044B000006CDC02801A060017B4D0F82431019198
:1044C0004BB10169019A00F59A742144A43003B0FC
:1044D0005DF8044B1847012003B05DF8044B7047AA
:1044E0007FB54368019303681A78022A46D81A7880
:1044F0003B4B53F82240002C40D0237F002B3DD073
:10450000037A012B03D1032384F82E3036E0022BEB
:104510001DD1012384F82E30019E04F59A75324690
:10452000294604F2323009F03FFE0021C4F8346419
:10453000216184F83C14FF22284609F059FED4F882
:104540004034DBB1019804B0BDE870401847032B3C
:1045500001D10223D8E7042B12D184F82E3023692D
:10456000019A1344FE2B2DD801212046FFF7A4FF0A
:104570000290029B13B923690133236104B070BD1B
:10458000052B09D184F82E30D4F84434002BF5D013
:1045900004B0BDE870401847062B18D1042384F8F6
:1045A0002E302369019A1344FE2B0BD80199204623
:1045B000FFF782FF0390039B002BDFD1019A236951
:1045C0001344DAE700212046FFF776FFD6E7072BF2
:1045D00001D10523D6E7082BD0D1062394E700BFED
:1045E000FC0A0020F0B580F825309DF8143080F8E2
:1045F0003D340025DF234FF47A76C0E905121E4FC3
:1046000007600122C0E9015605610577427780F80D
:104610002450866280F82C5080F82D50C0F800514C
:10462000C0F80451C0F80851C0F80C51C0F810513E
:10463000C0F81451C0F81851C0F81C51C0F82051EE
:10464000C0F82451C0F82851C0F82C51C0F830519E
:10465000C0F83454C0F8385480F88A3080F88B3071
:1046600080F88C3080F88D3080F8E43080F8E530C8
:1046700080F8E630F0BD00BF380E01002DE9FF41A3
:104680004369002B044603DA002004B0BDE8F08142
:104690008269002AF8DB8B42F6DA8A42F4DAD9B270
:1046A0000222684602AE08F03FFE30460322217E19
:1046B00008F03AFE00203DF8101000258B1109B3D8
:1046C00036F81520F2B183EA9217FF061AD181EA73
:1046D0000207FF0716D403F01F0312F00100236244
:1046E00017D1022BD0DCA3691D4D84F8240035F8C6
:1046F00033101C4A1C4801F04BFF6369194A35F816
:10470000331028E00135032DD9D101300328D2D14F
:10471000BAE7092BB8DC12F4F04FA369134F104E1F
:1047200011484FF0010584F824500CBF4FF080620F
:104730004FF0A0623A4311F4F04F36F833100CBF3B
:104740004FF080684FF0A06801F022FF636936F8EF
:10475000331048EA0702044801F01AFF012094E7E9
:10476000800F010010040107242200201000010026
:1047700073B501250577044600F043FA014620464B
:10478000FFF77CFF237F18402077002800F09280FD
:10479000637F002B00F0898023686C499B6A204668
:1047A000984794F82430226A002B57D0684B43F87E
:1047B0002240684BC4F80031674BC4F80431674BA2
:1047C000C4F80831664BC4F80C31664BC4F810319C
:1047D000654BC4F81431654BC4F81831644BC4F808
:1047E0001C3104F12F03C4F8A030624BC4F8983098
:1047F000236A564A84F87C300023C4E9202394F8C5
:104800002520C4E924339A4204F17C030CBF012221
:104810000222C4F89C300C2384F8882084F8893064
:10482000637F04F17C0604F1D80500960195002B06
:104830007CD094F82430002B73D004F0CBFA6A4675
:10484000062104F0C1FC237F1840D4F80031207702
:10485000314604F13C00984750BB2BE0464984F8B0
:10486000355041F82240454AC4F80021444AC4F872
:104870000421444AC4F80821434AC4F80C21434A9D
:10488000C4F81021424AC4F81421424AC4F818213D
:10489000414AC4F81C2104F13502C4F8A0203F4A63
:1048A000C4F8982084F83630A2E794F824301BB17D
:1048B0000023237702B070BD2F4A216A84F8E330C9
:1048C00042F82140364AC4F82021364AC4F824214F
:1048D000354AC4F82821354AC4F82C21344AC4F892
:1048E0003021226A84F8D820184AC4F8DC20B4F8B1
:1048F000F820A4F8E02094F8252084F8EA30002A73
:104900000CBF0122022284F8E22040F60C42A4F8F7
:10491000E820284AC4F8EC2004F1D802C4E93C237A
:104920007EE704F057FA6A4605218AE704F052FA56
:1049300007216A4604F048FC237F18402077D4F80A
:104940002031294604F1A40085E700BFA0860100BC
:10495000240B0020015F00009D5E0000D15E00007E
:10496000E95C0000115D00001D5D0000315D00008C
:10497000495D000005420000FC0A0020C9700000EB
:10498000D56E0000096F0000C9710000896D00003C
:10499000956D0000A96D0000D57100003D4200003A
:1049A00069670000396600006D660000A1660000BE
:1049B000B5660000E144000010B5036804465B6A78
:1049C0009847012363772046BDE81040FFF7D0BE2B
:1049D00038B5036804465B6A0D4698470023637741
:1049E000A4F8F8502046BDE83840FFF7C1BEFFF7F5
:1049F000EFBF2DE9F0471E46037F044692463BB3C6
:104A0000D0F8103163B300F13C0990F88820484693
:104A10009847054668B9D4F8047157B19DF8243019
:104A200084F82E0083F00103324651464846B847C9
:104A3000054606F03BFB804606F038FB089BA0EBE2
:104A40000800984204D294F82E300BB9002DF3D010
:104A500094F82E30012B0CBF30460020BDE8F087C3
:104A60000125E6E72DE9F0479A46037F089F0446B3
:104A70009146002B39D0D0F8103123B300F13C0817
:104A800090F8882040469847054668B9D4F80861F0
:104A900056B19DF8243084F82E0083F0010352466D
:104AA00049464046B047054606F000FB064606F07C
:104AB000FDFA801B874208D994F82E302BB9002DBF
:104AC000F5D004200FE00125EEE7002DF9D194F890
:104AD0002D3063B994F82E305BB194F82E30032B4F
:104AE00014BF00200220BDE8F0870620FBE701206C
:104AF000F9E70520F7E737B590F8FC5090F838341F
:104B00000191826A0092294600F233220446FFF79F
:104B1000A9FF002384F82C3003B030BD037F4BB1D4
:104B20000023012280F82D30C0F8FC1080F82C20E2
:104B3000C0F838347047FFF7F1BF2DE9F34116464E
:104B4000027F9DF8205004460F469846002A31D037
:104B5000B5B10368DB6A9847032D28BF0325013DE3
:104B6000EDB2FF2D236807D0E90028FA01F11B6898
:104B7000C9B220469847F2E71B6B002120469847B0
:104B80009DF82430FF2E28BFFF26003318BF0123D5
:104B90000193A36A009304F23232F3B239462046FD
:104BA000FFF727FF0023C4F8340484F83C3402B034
:104BB000BDE8F0811046FAE707B5019300230093A2
:104BC000FFF7BBFF03B05DF804FBFFFF13B5002444
:104BD00023460094122213210548FFF703FD009499
:104BE00023461B221A210348FFF7FCFC02B010BD2C
:104BF0006C020020B406002008B506F0F9F9002088
:104C000008BD27207047704737B5FFF7FCFF01212B
:104C10000D2006F067F900210D2006F07BF96846AB
:104C20000722032108F080FBBDF800301C4CC3F3C1
:104C300084130125684607220521E55408F074FB1A
:104C4000BDF80030C3F38413684607220621E554FB
:104C500008F06AFBBDF80030C3F3841368460722EE
:104C60000921E55408F060FBBDF80030C3F384135C
:104C7000684607220A21E55408F056FBBDF80030CB
:104C8000C3F3841307220B216846E55408F04CFB5C
:104C9000BDF80030C3F38413E55403B030BD00BF4A
:104CA0003E0B0020F0B44B788E780A78CD780F4C0C
:104CB0001B013603A75C0C794A7906F440562D0295
:104CC000DBB205F44071334307F003050B43D20117
:104CD000E101074C2B43C9B2064DA171D2B26380EA
:104CE000227205600020F0BC704700BFB8100100C0
:104CF0000042044054445700024B0020FF22187029
:104D00001A7070470042044070B5836A84B004464C
:104D10000E46ABB193E8070001AD85E80700616876
:104D2000E26A097819601E719A601846636A9847AA
:104D3000A36A1BB195E8070083E8070004B070BDC3
:104D400001AD2B46EBE700BF30B4EFF30383103B1C
:104D50005BB203F1C0011C4A1C4C52F821006FF3F6
:104D6000104042F8210054F82330D3E906218A424A
:104D700012D018699C6868B193F820500F2D18D98B
:104D8000616840F82210D96901328A429A6103D0E1
:104D900030BC70476068F7E75B680D4993F90330F2
:104DA000012203F01F005B09824041F8232030BC40
:104DB0007047072D03D821798154D969E4E7A48885
:104DC00020F81240E0E700BF00600040A822002069
:104DD00000E100E0F0B4EFF30383103B5BB203F1BA
:104DE000C0022849284C51F822006FF3104041F8C6
:104DF000220054F823305C685A69206ADD6910B1DA
:104E0000407801280FD0AA420BD0D3E9020129B182
:104E100093F820400F2C16D951F82210416001322E
:104E20005A61F0BC70476E1E964214D02169002969
:104E3000E9D094F90310154C01F01F064909B04060
:104E400044F82100DFE7072C95BF895C31F8121088
:104E500001718180E3E794F9036006F1C0077409EA
:104E6000A40051F827C004F1604404F5614406F041
:104E70001F06B0406FF3104C41F827C0C4F8800102
:104E80002060C0E700600040A822002000E100E0B0
:104E900070B4EFF30383103B5BB2304A304C03F144
:104EA000C00152F821006FF3104042F8210054F87D
:104EB00023008268D278920705D54268527A012A87
:104EC00001D070BC7047590920310122254C03F0F4
:104ED0001F0302FA03F344F82130BFF34F8FBFF3EF
:104EE0006F8F436893F90230002B2EDB5909203174
:104EF00003F01F0302FA03F344F82130BFF34F8F8E
:104F0000BFF36F8FD0E90114237891F902106FF38A
:104F100086130029237014DB01F1C0050F4C4B09E7
:104F20009B0054F8256003F1604303F5614301F0F1
:104F30001F018A406FF3104644F82560C3F88021B2
:104F40001A60012170BCFFF7DFBE826813786FF32F
:104F500086131370012170BCFFF7D6BE00600040BD
:104F6000A822002000E100E0F8B5EFF30384103C34
:104F7000314B64B253F82460736893F90230002B0C
:104F800042DB5A09203201202C4903F01F0300FAAA
:104F900003F341F82230BFF34F8FBFF36F8FD6E991
:104FA0000112137891F902106FF386130029137020
:104FB00015DB01F1C007224D4B099B0055F827C0B6
:104FC00003F1604303F5614301F01F0100FA01F1B1
:104FD0006FF3104C45F827C0C3F880111960D578DD
:104FE0000023EDB2D3702A0721D4EB0712D405F0C9
:104FF0001405142D16D0C034114B53F824206FF330
:10500000104243F82420F8BDB26813786FF386137A
:105010001370E4E70421304605F01405FFF774FE31
:10502000142DE8D130460821FFF76EFEE3E7052195
:105030003046FFF769FED8E7A822002000E100E033
:105040000060004070B50D46016A8B7803F07B0369
:105050008B700378044623B3C0E90352E3691869EF
:1050600088B122697AB1A378816800688E68E168A6
:1050700003F00303013B22FA03F300229BB22261F7
:10508000B04768B9216A8B7843F080038B70207831
:1050900078B9A37803F00303022B0CD02B78CB70E4
:1050A00070BD837803F00303D21A2B44C0E90332A6
:1050B000D4E7002070BD2B8843F47E43CB8170BDC4
:1050C000036A9A7870B4D2B2054602F00B004E78AB
:1050D0000C7898700020E8608D785D701D7866F31C
:1050E00001051D70C9789974DD7904F05C0105F043
:1050F000A304214302F07B02D97170BC9A707047FF
:10510000F0B5846A85B006468C461746BCB194E873
:105110000F006D4685E80F00F269F36A127822608D
:10512000E360C4F808C027712046736A9847B46AE0
:105130001CB195E80F0084E80F0005B0F0BD6D4686
:105140002C46E9E770B5D0E9072592F905202F49EB
:10515000044650090123203002F01F02002603FA02
:1051600002F26660AE7041F82020BFF34F8FBFF3AC
:105170006F8FE26992F90B205009203002F01F0274
:1051800003FA02F241F82020BFF34F8FBFF36F8F75
:10519000E26992F907205009203002F01F0203FA59
:1051A00002F241F82020BFF34F8FBFF36F8FE26907
:1051B00092F909205009203002F01F02934041F873
:1051C0002030BFF34F8FBFF36F8FE369DA6822B1EE
:1051D000936810681B6A9847E3691B691BB19A685A
:1051E0001868136A9847EFF31082012383F310883D
:1051F000E069074900784C68C0F11F0083402343F1
:105200004B604B6882F31088002070BD00E100E025
:10521000FC6F04402DE9F8430D4609780323CB4089
:1052200013F0010301F1007218BF1023037002F59F
:105230006052837852010121026204466A78C56196
:1052400061F30103D5E9051061620021A370C4E98F
:105250000A1022B9DBB2022262F30103A37095F9AE
:105260000B60674BA87A7209203206F01F070121F4
:1052700001FA07F743F82270BFF34F8FBFF36F8F28
:10528000604A614F06F1C00C03EB060852F82CE0AF
:1052900000016FF3104E42F82CE0C0B288F8000312
:1052A00095F9050047F826404FEA501C0CF1200CF8
:1052B00000F01F0E01FA0EFE2E7943F82CE0BFF32A
:1052C0004F8FBFF36F8F00F1C00C03EB000852F853
:1052D0002CE036016FF3104E42F82CE0F6B288F85D
:1052E000006395F9076047F820404FEA561C0CF11F
:1052F000200C06F01F0E01FA0EFEA87943F82CE0F0
:10530000BFF34F8FBFF36F8F06F1C00C03EB06089E
:1053100052F82CE000016FF3104E42F82CE0C0B2BE
:1053200088F8000395F9090047F826404FEA501C19
:1053300000F01F060CF1200CB1402E7A43F82C101F
:10534000BFF34F8FBFF36F8F00F1C00C310152F8E4
:105350002C600344C9B26FF3104642F82C6083F806
:10536000001347F82040EB68F3B15968266A0A68D1
:10537000E7694FF4002C701DC2E900C094F800C02A
:10538000BCF1000F01D0113656607E7836B9D67860
:1053900001270B3067F305165060D6709A681868BD
:1053A00013689847064640BB2B69002B2ED05968DE
:1053B000266A0A68E7694FF0006CF01CC2F800C06A
:1053C000906094F800C0BCF1000F01D00F369660D9
:1053D0007E7836B9D67801270B3067F305169060D2
:1053E000D6709A68186813689847064670B1EB68DB
:1053F0001BB19A681868136A98473046BDE8F8836D
:1054000000E100E000600040A8220020EFF31082DD
:10541000012383F310889B492E784868C6F11F0644
:10542000B34020EA03034B604B6882F31088236A81
:1054300000229A701A715A729A72DA725A83297813
:1054400040F20722CA40D20744BF4022DA74062243
:105450001A772278E16972B1C868013A002800F031
:1054600008810120120392B2024342F006009882A2
:10547000988A8242FCD1EE786A78A878F600032AEE
:1054800046EA001600F0E280002A0CBF4FF0E20E60
:105490004FF0F20EED696A7895F802C02F7B2878FC
:1054A000F6B2D2014FEA4C1C1E700CF0200C7F00AB
:1054B000D2B2861E07F0020742EA0C02012E4FF01C
:1054C000000C83F806E05F7383F808C040F2C880E0
:1054D0006E68D2B2DA71B2785A701F7896F801C04D
:1054E00032786CF301071F70F6789E74DE7902F053
:1054F0005C0206F0A3063243DA7191F905C0624EF0
:105500000027C4E90377C4E905770CF1C00200F075
:10551000030056F822E067F3104E46F822E04FEA07
:105520005C12920091F90B8002F1604202F5614237
:105530000CF01F0E4FF0010C08F1C0090CFA0EFE22
:10554000C2F880E1C2F800E056F8292067F3104263
:1055500046F829204FEA5812920091F907E002F12B
:10556000604202F5614208F01F080EF1C0090CFA12
:1055700008F8C2F88081C2F8008056F8292067F345
:10558000104246F829204FEA5E12920091F9091064
:1055900002F1604202F561420EF01F0E01F1C008F7
:1055A0000CFA0EFEC2F880E1C2F800E056F828E0DE
:1055B00067F3104E46F828E04A0992006D8902F11F
:1055C000604202F5614201F01F014FF6FF760CFACE
:1055D00001F140F07000B542C2F88011116098707E
:1055E00025812DD0EFF310818CF31088274A1368A2
:1055F0001BB927484025C370C57013680133136079
:1056000081F31088218923480B0A1B0153FA81F189
:1056100050F8213023F0011323F4404343F00403F6
:1056200040F82130EFF31081012383F310881368D1
:1056300013B11368013B1360136863B181F31088E1
:10564000154B636000263046BDE8F88346F04006FF
:105650004FF0F20E1EE70E4A8020D370D070EDE7B7
:10566000022808BF42F01002FF26D2B25E70DA7143
:1056700043E7C869007A1040000200F4706040F00F
:105680000100EFE6FC6F044000600040A42200200F
:10569000000D044000080440554943532DE9F04FE4
:1056A0009B46FF258024634B8BF802508BF8034008
:1056B000614C1B6A2668614C9BF80050C3F302677B
:1056C0008BB0BE40C3F3023326FA03F30091099274
:1056D000A3FB0412CDE9021200266FF382050693A4
:1056E0001B0ACDE907068BF800502046059301966A
:1056F000099B834276DA9DF8203004930027504BB3
:10570000049ADD5DC5F34009C5F3800549EA050348
:1057100093425FD14B4B33F81780079B03FB08F88C
:10572000069BB3FBF8F4661EFF2E53D804FB08F467
:10573000824621E0059AB4FBF2F27F2A02FB03F3D2
:1057400054D9002BB8BFFF331B12A3F5C333A03BC2
:10575000002BB8BF5B429A454ADC9BF800309DF8AD
:1057600004208BF8032043F00403A4EB08048BF817
:105770000030002E3AD0013E2246E317DDE9020157
:1057800008F02AFBA0F5C330A038009A00F5C33317
:10579000A033002ACED10028B8BF4042824525DD83
:1057A000274B9BF80110DA5D9BF800308BF8026004
:1057B000C2F3000464F3861369F3041365F3C303AF
:1057C000C2F3C10262F301018BF80030009B8BF839
:1057D0000110019301370D2F91D1089B1BB3099B39
:1057E000984223DC00200BB0BDE8F08F5046F1E773
:1057F00013498BF80260C85D9BF800100192C0F35A
:10580000000C6CF386119BF801C069F30411C0F31E
:10581000C10065F3C30160F3010C9A468BF80010D8
:105820008BF801C099E70123089361E703200BB0CF
:10583000BDE8F08F00E0014030230020A086010089
:10584000C0100100D0100100F0B4EFF30383103B4F
:105850005BB203F1C001324A324C52F821006FF3BF
:10586000104042F8210054F82300C269036912690C
:1058700092B10BB1F0BC7047026A9378446A03F0AE
:105880007F0343F0040300219370C160002CF1D02A
:105890008022F0BCFFF734BC026A002BEDD0067802
:1058A000E6B1D48AC4F30424B4422DD28578C16809
:1058B00005F0030C654609E00F78D77301345B1BD4
:1058C0002944B442C0E903131ED223B3BCF1020F32
:1058D000F2D10F8847F47E47D781EFE78178C4681B
:1058E00001F00305022D0AD02578D57001F00302DE
:1058F0009B1A2244C0E90323002BBBD1BCE72588B7
:1059000045F47E45D581F1E711796FF3C711117127
:10591000002BAFD1B0E7117963F3C7111171ACE778
:1059200000600040A822002030B583B0EFF303836D
:10593000103B5BB203F1C001554A564C52F82100AE
:105940006FF3104042F8210054F82340E369DB680C
:1059500073B1A36963B1636A0021C4E90511002B27
:1059600070D02046012203B0BDE83040FFF7C8BB2D
:1059700022894FF6FF739A4220D0EFF31081012362
:1059800083F31088444B1A681AB944484025C27002
:10599000C5701A6801321A6081F310882289404963
:1059A000130A1B0153FA82F251F8223023F001133B
:1059B00023F4404343F0050341F822302278236A60
:1059C000002A41D0D98AC80613D01B8AC3F3080322
:1059D0000193A369002B41D1636A2BB10422019981
:1059E0002046FFF78DFB22782AB1236AD98AC9069F
:1059F000E6D1BE221A7123894FF6FF72934221D05D
:105A00001A0A120152FA83F2254951F8223023F082
:105A1000011323F4404343F0040341F82230EFF331
:105A20001082012383F310881B4B196811B1196888
:105A3000013919601B681BB918498020CB70C870E8
:105A400082F3108803B030BDA17801F00301022970
:105A5000BBD05B790193A369002BBDD0A2786069AC
:105A600002F0030201A908F09FFBD4E90521A37805
:105A700003F003031A44C91AC4E9052129B9636A6A
:105A80001BB101222046FFF73BFB2278ACE700BFA9
:105A900000600040A8220020A4220020000D044045
:105AA0000008044010B5EFF30384103C0B4B64B2C4
:105AB00053F82400D0E90821937803F07B03937016
:105AC00019B102220021FFF71BFBC034044B53F82D
:105AD00024206FF3104243F8242010BDA822002098
:105AE0000060004070B5EFF30384103C164B64B2C5
:105AF00053F824000278036A3AB9827802F003026C
:105B0000022A02D05979C9B202E0198AC1F3080108
:105B10001D79EDB2EE0605F0380204D51D7FED07C4
:105B200058BF42F040021D79466A05F0C7051D7155
:105B30000EB1FFF7E5FAC034044B53F824206FF39D
:105B4000104243F8242070BDA822002000600040CD
:105B500070B5436A84B004460E46ABB193E80700C3
:105B600001AD85E807006168A26A097819601E71B5
:105B70009A601846236A9847636A1BB195E8070044
:105B800083E8070004B070BD01AD2B46EBE700BF12
:105B900010B4EFF30383103B5BB203F1C001144A6E
:105BA000144C52F821006FF3104042F8210054F8D1
:105BB00023305A69D9698A4206D2D3E90240A8B192
:105BC000805CE07001325A61914202D05DF8044B72
:105BD00070471A69002AF9D19A685DF8044B9378E6
:105BE00003F07B0343F0040393707047E070E9E730
:105BF00000600040A822002010B4EFF30383103BA4
:105C00005BB203F1C001174A174C52F821006FF341
:105C1000104042F8210054F823305A69D9698A4269
:105C200006D2D3E90240D0B1805CE07001325A6103
:105C30009A698A4207D2986819694079541C9C6114
:105C40008854D3E90621914206D19A68937803F0EB
:105C50003B0343F0040393705DF8044B7047E0701E
:105C6000E4E700BF00600040A822002010B5EFF379
:105C70000384103C64B20A4B53F824008268937882
:105C800003F0030393700121FFF762FFC034054B5B
:105C900053F824206FF3104243F8242010BD00BFB6
:105CA000A82200200060004010B5EFF30384103CF0
:105CB00064B20B4B53F8240083689A7802F0030215
:105CC0009A70842219791A710421FFF741FFC034B8
:105CD000044B53F824206FF3104243F8242010BDE6
:105CE000A82200200060004010B40346F0241A6986
:105CF000D96900209070D47293F82A2083F82C2060
:105D0000186283F8300059625DF8044B704700BF99
:105D10000346002059601A72704700BF10B4044651
:105D2000C4E90E32002061635DF8044B704700BF88
:105D3000C368044A9B1AB3FA83F35B090B70002013
:105D4000704700BF4332495310B5026901680446E9
:105D50000023F02093709370D07294F82A2084F876
:105D60002C208A69E069236284F83030E360606245
:105D700022B1936810681B6A984721684B691BB170
:105D80009A681868136A9847EFF31082012383F327
:105D900010882068064900784C68C0F11F008340D5
:105DA00023434B604B6882F31088002010BD00BF76
:105DB000FC6F044003685B69A3B190F82D2070B5B7
:105DC00002F0FF056AB904469A6818689668238C41
:105DD000A1692A46B047E26925620123626284F81C
:105DE000333070BD704700BF002380F82F3080F83B
:105DF000313080F8333090F82D2090F82A1080F858
:105E00002B1010B5C469046280F82C30436212B1C3
:105E1000012380F83130026803695269B421997016
:105E20006AB1526800211268997090F82D40FCB94F
:105E30004FF0006111602321B42299729A7090F89A
:105E40003020CAB190F82A200021012A044680F8A7
:105E5000301014D094F82920DA7094F82B2094F89C
:105E60002C30013A013384F82B2084F82C3010BDFB
:105E7000094C11605460DEE75122DA7210BDFFF761
:105E800099FF94F82A30012B03D194F82820236934
:105E9000E2E72369DEE700BFEA10010010B5047AEB
:105EA00080F82E30012CC0E906120AD1436880F830
:105EB0002A405B0043F00103002280F8283080F87C
:105EC0002920012380F82D30FFF78EFF002010BD20
:105ED00010B5047A80F82E30012CC0E9061208D1E2
:105EE000436880F82A405B00002280F8283080F860
:105EF0002920002480F82D40FFF776FF204610BDB2
:105F00002DE9F04704460B780E6A8A680D4603F1C6
:105F10000073097B0560E869E66303F5605362601E
:105F2000AA6921725B01002182B02361C4E90D01DD
:105F3000BAB15168D2F808C00E6895F90E7003C95D
:105F4000053373604FF4002333606B4683E803002E
:105F5000DCF8006010680F701946B047002840F068
:105F6000D1806B69CBB1596822690F68266803C973
:105F7000033296F90FC0BA604FF0000E6A46C7F8B8
:105F800000E082E803009868066881F800C018689D
:105F90001146B047002840F0B880EFF3108201208E
:105FA00080F310885F492B784E68C3F11F0300FA15
:105FB00003F326EA03034B604B6882F310882268E0
:105FC0002369576A95F90F1095F9102095F80DA0DF
:105FD00095F90E603D78DFF858E1DFF858814FF011
:105FE000000C4FF0F00983F802C083F80B9097F88B
:105FF000029009F0030983F80090AD004FF0FA0910
:1060000083F8069045F0200597F8019083F80190F9
:10601000EDB2DD717D791D72FD789D7497F8049065
:10602000414F4FEAC90949EA00095FFA89F983F843
:1060300009904FEA0A154FF023090EEB010A83F885
:106040000A90EDB201F1C00983F80DC08AF800533F
:106050004B0948F8214057F829A09B0003F1604301
:1060600003F5614301F01F016CF3104A47F829A0C2
:1060700000FA01F10EEB0209C3F88011196002F178
:10608000C001530989F800539B0048F8224057F893
:10609000219003F1604303F5614302F01F0200FA0F
:1060A00002F26CF31049664547F82190C3F880214D
:1060B0001A6018DBB64406F1C00273098EF800536B
:1060C0009B0048F8264057F8221003F1604303F57F
:1060D000614306F01F06B0406CF3104147F82210F0
:1060E000C3F8800118600020C4E908000F4B84F851
:1060F0002D00A06184F82E00E06184F82F00E36099
:1061000084F8300002B0BDE8F087AB69002BF9D00D
:106110009A681868136A984700283FF43EAF02B0A7
:10612000BDE8F087FC6F04400060004043324953F3
:1061300000E100E0A8220020F0B5856B83B00446A2
:106140000F4635B395E803006E4686E803002368E2
:10615000E16B5A6929602F713AB194F82D1021B979
:10616000936810681B69984723689B6933B194F85A
:106170002D201AB19A68186813699847636B2846EE
:106180009847A36B1BB196E8030083E8030003B0B4
:10619000F0BD6E463546DAE7EFF30383103B5BB2A2
:1061A000C033044A52F823106FF3104142F8231011
:1061B000704700BF00600040F8B5EFF30383103B69
:1061C0005BB2C033624A52F823106FF3104142F8B9
:1061D0002310EFF30383103B5BB25E4A52F8234077
:1061E00021690B7B13F001032CD194F82C2094F837
:1061F0002A00904216D094F82D300BB1022A43D0D9
:106200002046FFF7D7FD236994F82820DA7094F828
:106210002B2094F82C30013A013384F82B2084F899
:106220002C30F8BD94F8332002F0FF054ABB236AF6
:10623000BBBB94F82E3053B352220123CA7284F8A8
:106240003030F8BD94F82D309BB194F8313083B9DB
:10625000636AA2694979D154D4E9082394F82E10CD
:10626000013A0133C4E90823A1B923695422DA723F
:10627000F8BD002001225423206284F82F20CB7225
:10628000F8BD84F83330F8BD5223CB72F8BD5423E7
:10629000CB72F8BD226952210123D17284F83030CB
:1062A000F8BD94F82D20002A32D094F83120002A2D
:1062B00037D0226884F831505069002841D0926963
:1062C000002A3ED0E669022E3BD9936810689F6889
:1062D000A269B31EF4268E709BB22946B847226885
:1062E000E3695269916810688E68023B9BB22A4646
:1062F0002946B047E3692169023B0220C4E908034B
:10630000012284F833200023FF228B72CA70F8BD6B
:10631000626AA569501C013BAA5CC4E90830CA70D6
:10632000F5E7636AA2694979D154D4E90832013B9F
:106330000132012B2169C4E9083204D0FF22CA705E
:10634000E5E7012BDFD82023FF228B72CA70DEE73E
:1063500000600040A822002038B5EFF30383103B13
:106360005BB2374A52F823402269D37A6FF3C303F2
:10637000D37294F82F30002B39D103F0FF0094F83A
:106380002A1094F82C30994220D1236A8BB994F8C2
:106390002D1094F8300000290CBF03210221C8BB46
:1063A000F023D372937803F0CF0393702046FFF766
:1063B000C3FEEFF30383103B5BB2C033214A52F8B4
:1063C00023106FF3104142F8231038BDB3B90129EF
:1063D00024D094F829000021D172D07094F82B2099
:1063E0000133013A84F82C3084F82B20E1E7F023C4
:1063F0002046D3720121FFF79FFEDAE794F82D5073
:1064000005F0FF0145B1022BE5D194F8290040F0D9
:106410000100E0E7D372C9E70846DCE72046FFF752
:10642000C9FC94F82A30012B05D194F82800226980
:1064300094F82C30CFE7226994F82C30C9E700BFDC
:10644000A822002000600040F0B583B0EFF3038481
:10645000103C64B2144B53F82450EF68BFB16A6823
:106460002B6992F90D20121B18BF0122CBB193E8C2
:1064700003006E4686E80300696959601A70184681
:10648000B8472B691BB196E8030083E80300C034CA
:10649000064B53F824206FF3104243F8242003B036
:1064A000F0BD6E463346E7E7A822002000600040BA
:1064B000EFF30383103B5BB20649074A51F8231000
:1064C0000120C033087252F823106FF3104142F8D4
:1064D00023107047A822002000600040C8B20123AA
:1064E000834098B252B10023090A490101F1804169
:1064F00001F5802103438B60002070471B04104688
:10650000F2E700BFF8B500283BD009681E4F4FF0F6
:10651000000C01EBC00066464FF0010E8D8840F282
:10652000024295424FF000030BD10C680EFA03F2C1
:1065300004F0B854D2B2B4F1807F0CBF164342EAE3
:106540000C0C0133032B06D037F813209542ECD006
:106550000133032BF8D108318142DFD16FEA0C0CF3
:106560005FFA8CF4012002F07DF9084B93F8BB240C
:106570001643264083F8BB640120BDE8F84002F0D2
:1065800041B90646FF24EDE7EC10010000E00140B0
:10659000F0B585B004AB02A843F80C0D01260C46FB
:1065A000304619461546ADF80C400292ADF8006031
:1065B000FFF7A8FFEFF3108186F310881B4B1A68D2
:1065C0001AB91B484026C270C6701A6801321A6098
:1065D00081F31088200AEA03E4B24FEA00100BD5D9
:1065E0000119144A52F8217025F480366FF31047D0
:1065F00042F8217042F8216020440E4A42F82050AF
:10660000EFF31082012181F31088196811B1196824
:10661000013919601B681BB905498020CB70C8700F
:1066200082F31088002005B0F0BD00BFA422002036
:10663000000D044000080440034630B40124806883
:1066400083F82140002483F8234005799C6145F0BC
:106650001005C3E90422D9600571027964F3C3020D
:106660000271204683F8244030BC7047034630B4A2
:106670008068002483F8214083F8234005799C61D9
:1066800045F01005C3E90422D9600571027964F36D
:10669000C3020271204683F8244030BC704700BF1B
:1066A00010B40446C4E90B320020A1625DF8044B2B
:1066B000704700BF016891F90F1070B44E098568EA
:1066C000274C02460123203601F01F01002003FA67
:1066D00001F15060E87144F82610BFF34F8FBFF30B
:1066E0006F8F116891F90C104D09203501F01F01D1
:1066F00003FA01F144F82510BFF34F8FBFF36F8FFA
:10670000116891F90D104D09203501F01F0103FAB0
:1067100001F144F82510BFF34F8FBFF36F8F11685D
:1067200091F90E104D09203501F01F0103FA01F116
:1067300044F82510BFF34F8FBFF36F8FEFF3108135
:1067400083F310881468074A24785568C4F1090453
:10675000A3402B435360536881F3108870BC70478B
:1067600000E100E0FC6F04402DE9F0430A780346A5
:1067700002F58002D1E9054002F5A6621202002569
:1067800019609A609C62C3E90B50EFF310800122FC
:1067900082F310887E4C0E786168C6F10906B2401B
:1067A00021EA02026260626880F3108819689A68C0
:1067B000CE698C7A83F823501F27B07817705F2733
:1067C0001770012C4FF0DF07177000F0DA800D8989
:1067D000EC0904F0060444F00104EDB2D4729572A1
:1067E000CC7A4F686B4DE40044F00104E4B24FF002
:1067F000020C947182F803C0347876782401AF4299
:1068000004F0700444F0080446F0E00614BF0025CC
:106810006FF07F05002800F0AC8045F07D05EDB2FB
:106820000138557147B21674947091F812E091F9DD
:106830000F00DFF870C1584D584C594E47EA8E177B
:10684000FFB24FF0A0084FF09F0E177182F807803B
:1068500082F800E04A7C0CEB00071201D2B287F804
:10686000002300F1C00E45F82030420954F82E8074
:10687000920002F16042012702F561426FF3104875
:1068800000F01F0044F82E8007FA00F0C2F88001E3
:10689000106091F810E091F90D004FEA0E1E0CEB1C
:1068A00000025FFA8EFE82F800E345F8203000F126
:1068B000C00254F822806FF3104844F822804FEA57
:1068C000501891F90E204FEA880808F160480CEB47
:1068D000020908F5614800F01F0007FA00F0C8F847
:1068E0008001C8F8000089F800E302F1C00045F813
:1068F000223054F820806FF3104844F8208050096B
:1069000091F90C10800000F160408C4400F561406A
:1069100002F01F0207FA02F2C0F8802101F1C0085C
:1069200002608CF800E34A0945F82130920054F8DF
:10693000285002F1604202F5614201F01F0100207F
:106940008F406FF31045022144F82850C2F880713F
:10695000176083F82400C3E9030083F82110C3E91A
:10696000050083F82200D8615E6083F82000BDE84E
:10697000F08345F05D05EDB25571074616749470CD
:1069800053E70C7AD5726400E4B2947228E700BF32
:10699000FC6F044040420F00A8220020006000402D
:1069A0005343324900E100E0F0B5C36A85B00546C3
:1069B0000E4617469BB193E8070001AC84E8070038
:1069C0002A6B1A605F601E721846AB6A9847EB6AC2
:1069D0001BB194E8070083E8070005B0F0BD01ACE7
:1069E0002346EDE770B50123856880F82030022644
:1069F000B323EB7180F821606B79C26904466FF3B1
:106A000000036B710D46FFF7CFFFA368DE705A7964
:106A100042F001025A7194F82120012A05D094F81D
:106A200021200AB9052D04D070BD042D01D0082DF8
:106A3000F5D194F82320002AF6D194F821201AB930
:106A40005A7A02F0F3025A72BF210122D97184F8F6
:106A5000232070BD836810B4A0220024DA7180F86E
:106A6000204080F822405A7964F300025A7190F86D
:106A700024206AB9DF249F221C701A70002402238C
:106A8000C26980F82130C4615DF8044BFFF78CBF08
:106A90005C72F3E730B583B0EFF30383103B5BB276
:106AA000C033424A52F823106FF3104142F82310CA
:106AB000EFF30383103B5BB23D4A52F8234094F856
:106AC0002220A368AAB9012284F82220DA7CD2B25B
:106AD0008DF805209DF8052012F0010F5A7A14BF99
:106AE00002F0F70202F0F3025A72AC22DA7103B03C
:106AF00030BD94F820204AB91B7A13F0080F0CBF60
:106B0000042108212046FFF76DFFA368226962B1C6
:106B1000A1698A421DD0E268DB7C481CA061535405
:106B2000E3690133E36103B030BDD97CC9B28DF8AC
:106B300006109DF80610197941F0100119711979A4
:106B400041F008011971197962F30411197103B048
:106B500030BD022584F821505979E2696FF30001B4
:106B6000597120460621FFF71FFFA3682169DD70D8
:106B70005A7942F001025A7191B9DA7CD2B28DF899
:106B800007209DF807201A7942F010021A711A792D
:106B900042F008021A711A7961F304121A71A6E719
:106BA000A269E168DB7C501CB8E700BF00600040D0
:106BB000A822002038B5EFF30383103B5BB2C0334B
:106BC000224A52F823106FF3104142F82310EFF3DA
:106BD0000383103B5BB21E4A52F8234094F82030E6
:106BE00093B194F8213003F0FF0263B9A3692069DF
:106BF000A16898420DD0E269E0680132C05C8874F7
:106C00000133C4E9063238BD05212046FFF7EAFE0C
:106C1000E7E723680D4893F90E3003F1C004002B19
:106C200050F8245062F3104540F8245009DB5A090B
:106C3000603203F01F030120064C00FA03F344F80E
:106C40002230CB7943F04003CB7138BD0060004067
:106C5000A822002000E100E038B5EFF30383103BE9
:106C60005BB2204A52F82340A1680B79C3F380033A
:106C7000BBB1CB796FF38613CB71C02301E0013B2D
:106C800002D0CA795206FAD4EFF30383103B5BB209
:106C9000C033154A52F823106FF3104142F8231005
:106CA00038BD022584F821504879E26963F3000079
:106CB000487107212046FFF777FEA168CD704B7918
:106CC00043F001034B7194F82130002BD1D1A3691B
:106CD000E269E0680132C05C88740133C4E90632BD
:106CE000C7E700BFA82200200060004000B583B0C5
:106CF000EFF30383103B5BB2214A52F82300826812
:106D0000537ADBB299072FD113F00C0F1FD0012358
:106D100080F8243090F82130012B2ED0026983694D
:106D20009A4228D9C369013BC3610321FFF792FE50
:106D3000EFF30383103B5BB2C033124A52F82310C7
:106D40006FF3104142F8231003B05DF804FBDB063B
:106D5000EED5D37CDBB28DF807309DF80730D379C0
:106D600003F0EF03D371E3E7002380F8243001211F
:106D7000FFF770FEDCE70321D8E70221D6E700BF6A
:106D8000A8220020006000400346002059601A72CB
:106D9000704700BF10B40446C4E90E32002061639E
:106DA0005DF8044B704700BFC368044A9B1AB3FAEE
:106DB00083F35B090B700020704700BF43494952C1
:106DC00030B5836B83B004460A46ABB193E8030049
:106DD0006D4685E80300E16B19601A711846636B14
:106DE0009847A36B1BB195E8030083E803000023D9
:106DF00084F82B3003B030BD6D462B46EBE700BF67
:106E0000F0B4324B02691B6A82B003F00F23019386
:106E10000199019D137C90F82C4094B9C1F3032192
:106E2000DBB2A1EB15618B409B0805D1082002B0B5
:106E3000F0BC7047013BF9D05178C909FAD1B323AE
:106E4000D371002390F82610046880F8283080F869
:106E50002710616A85690F784E7880F82B30012FF2
:106E600014BF0421052141EA4601C9B280F82D3042
:106E7000036280F82E30C56180F82F3080F8303002
:106E8000D170517994F90F3041F00101002B51710B
:106E900008DB0F4903F01F0401225B09A24041F8FF
:106EA00023200269BF23D37190F82C1001F0FF0357
:106EB00031B1002380F82C30184602B0F0BC704786
:106EC00002211846517002B0F0BC704700E001404A
:106ED00000E100E010B4047A80F82A30012CC0E907
:106EE00005120AD1436880F826405B0043F0010395
:106EF000002280F8243080F82520012380F82930F2
:106F00005DF8044BFFF77CBF10B4047A80F82A3098
:106F1000012CC0E9051208D1436880F826405B00C7
:106F2000002280F8243080F82520002380F82930C2
:106F30005DF8044BFFF764BF2DE9F04FD0F80080F7
:106F40000469D8F82450D8F804A095F800E095F822
:106F500001B0DFF868C1DFF86891DFF868811F26AB
:106F600026705F27DF26277026702F799DF928600D
:106F700047F0E0072774EF7847F0E0076774AF78D1
:106F80009DF92450BEF1010F4FEA07170CBF4FF0D7
:106F9000050E4FF0040E07F070074EEA4B0E47F057
:106FA0000807A7700CEB060BCA450CBF4FF0F7099A
:106FB0004FF077095FFA8EFE4FF0000AB327090100
:106FC00084F803E0C9B284F8059006F1C00E84F895
:106FD00006A0E771384F8BF8001348F8260057F8E1
:106FE0002EB04FEA56194FEA89096AF3104B09F19E
:106FF000604947F82EB009F561494FF0010E06F0DF
:107000001F060CEB030B0EFA06F6C9F88061C9F8EF
:10701000006003F1C0098BF800135E0948F82300F3
:1070200057F829B0B60006F1604606F5614603F050
:107030001F036AF3104B0EFA03F347F829B00CEB69
:107040000509C6F88031336005F1C00389F80013E3
:107050006E0948F8250057F82390B60006F16046FF
:10706000944406F561466AF3104905F01F0547F898
:1070700023900EFA05F502F1C009C6F8805135607B
:107080008CF8001348F8220057F8291053099B0088
:1070900003F160436AF3104147F8291003F5614397
:1070A00002F01F020EFA02F29F20C3F880211A603C
:1070B0002070BDE8F08F00BF0060004000E100E0FC
:1070C00040420F00A8220020F0B50B788F6891F89D
:1070D0000CC0D1E9076203F5800303F5A6631B0228
:1070E000002583B0044601600361476080F808C052
:1070F0004663C0E90E52EFF31082012383F3108838
:10710000164E91F800C07768CCF1090C03FA0CF325
:1071100027EA03037360736882F310884E7B91F94A
:107120000F3091F90E2091F9117091F91010CDE9FD
:1071300000173146FFF700FF094B84F82950284615
:1071400084F82A50656184F82B50A561C4E907557D
:1071500084F82C50E36003B0F0BD00BFFC6F044026
:1071600043494952C369026913B990F82C308BB175
:1071700030B5044683B0A1B994F82630A16984F8EB
:1071800028300023E36184F82C30B3232162D371CB
:1071900003B030BD90F82B30002BE9D1B323D3716D
:1071A000704700680023D37190F9115090F90E20B8
:1071B000417B90F90F30019590F910000090204626
:1071C000FFF7BAFE2269D7E708B50121FFF7CAFF2A
:1071D000002008BD70B504460121FFF7C3FF2368F6
:1071E000256993F9113027495E09203603F01F0203
:1071F0000123002003FA02F2E871E06041F8262042
:10720000BFF34F8FBFF36F8F226892F90E2055099D
:10721000203502F01F0203FA02F241F82520BFF3E5
:107220004F8FBFF36F8F226892F9102055092035D8
:1072300002F01F0203FA02F241F82520BFF34F8F3C
:10724000BFF36F8F226892F90F205509203502F0A5
:107250001F0203FA02F241F82520BFF34F8FBFF35C
:107260006F8FEFF3108283F3108824680649247827
:107270004D68C4F10904A3402B434B604B6882F373
:10728000108870BD00E100E0FC6F044010B483B0D2
:10729000EFF30383103B5BB2C033474A52F823102D
:1072A0006FF3104142F82310EFF30383103B434A7E
:1072B0005BB252F8233093F82D10DA69B1B99869AE
:1072C0001969012803D9087940F040000871012AA2
:1072D00027D0CA7CD2B28DF8072001229DF8071072
:1072E00083F82D2003B05DF8044B7047002AF9D0D5
:1072F000032A1FD0022A23D0012A2BD019691A6A27
:107300005869C97C8154D3E907210131013AC3E9A5
:107310000721002AE6D119690B7962F386130B71F4
:10732000E0E70A7942F010020A710A7942F0080295
:107330000A71CEE719690A7942F040020A71DEE764
:1073400019690A7942F010020A710A7942F00802BA
:107350000A71D4E793F82A1029B31968184C91F9E7
:107360000F104809203001F01F0102FA01F144F822
:107370002010BFF34F8FBFF36F8F1969C87940F0AA
:107380008000C871087940F0100008710879042461
:107390006FF3C30008714C7048796FF300004871B7
:1073A00083F82C20ABE719694A7A082002F0F7022B
:1073B0004A724870A3E700BF00600040A822002086
:1073C00000E100E010B4EFF30383103B5BB2C03385
:1073D000344A52F823106FF3104142F82310EFF3B0
:1073E0000383103B304A5BB252F8233093F82720D6
:1073F00092B193F8260093F8281003283DD018691D
:1074000093F8244084740131013A83F8281083F8FA
:1074100027205DF8044B704793F82920002AF8D103
:10742000DA69186982BBC2796FF3C712C271C022D0
:1074300001E0013A02D0C179C909FAD11B68194AA1
:1074400093F9103003F1C001002B52F821406FF383
:10745000104442F8214009DB5A09603203F01F034F
:107460000121124C01FA03F344F82230C3795DF88C
:10747000044B43F04003C37170470229BFD193F816
:1074800030000028C5D0BAE7196A5C69013A645C2B
:1074900084740131C3E90721002AC4D05DF8044B8C
:1074A000704700BF00600040A822002000E100E01B
:1074B00030B4EFF30383103B2A4A5BB252F8233017
:1074C00093F829201AB193F82720012A45D0DA69C8
:1074D000CAB11969CB796FF38613CB71C02301E070
:1074E000013B02D0CA795206FAD4EFF30383103B72
:1074F0005BB2C0331C4A52F823106FF3104142F8BC
:10750000231030BC704793F82A10F1B11968174D59
:1075100091F90F1048092030012401F01F0104FAED
:1075200001F145F82010BFF34F8FBFF36F8F19693A
:10753000C879042540F08000C8714D70487962F325
:107540000000487183F82C40C4E719694B7A08227F
:1075500003F0F7034B724A70BCE793F83020002A1F
:10756000B5D1B6E7A82200200060004000E100E0AD
:1075700038B5EFF30383103B5BB2344A52F8234033
:107580002269537ADBB2E021DD06517203F0030178
:107590001AD55078400637D401252946204684F86C
:1075A0002B50FFF7DFFD29462046FFF709FCEFF3DC
:1075B0000383103B5BB2C033254A52F823106FF3AC
:1075C000104142F8231038BD0029E5D119070FD525
:1075D00094F82B30002B33D194F82910B3230029D1
:1075E00014BF02210321D3712046FFF7E9FBDEE738
:1075F00094F82C100029DAD05B07D8D594F82B30FA
:107600000121002BF0D1E7E70029C5D151784D06C3
:10761000C1F38010DAD5236884F82B00596A537AB5
:107620000978012903F0F7030CBF03210221082088
:1076300053725070D170537943F001035371B6E720
:1076400000212046FFF78EFD0121CDE7A822002072
:107650000060004070B582B0EFF30384103C164B1D
:10766000164964B253F82420567995688B5D03F06F
:107670000303032B0FD0C03451F824306FF31043B1
:1076800041F824302DB102A8D36840F8083D019696
:10769000A84702B070BD2DB102A8D36840F8083DDC
:1076A0000196A847C034054B53F824206FF31042CD
:1076B00043F8242002B070BDA822002000600040E2
:1076C0000346D3E902230020536070470346D3E901
:1076D0000123D269F0B4D2E90347D2E90115566912
:1076E00045F0004544F0004441F000425D61002057
:1076F0009C611A615F629E62F0BC7047002824DBC7
:1077000030B400F1604303F56143104D104C0901A2
:10771000C9B283F8001345F8202000F1C0014309E5
:1077200054F821509B006FF3104503F1604344F877
:10773000215003F5614300F01F00012202FA00F01E
:10774000C3F8800130BC186070477047A822002041
:1077500000600040F0B5836985B005460F461646C7
:107760009BB193E8070001AC84E80700EA691A605E
:107770001F719E6018466B699847AB691BB194E80E
:10778000070083E8070005B0F0BD01AC2346EDE734
:10779000430910B4203300F01F0408490122A2401D
:1077A00041F82320BFF34F8FBFF36F8F044B5DF879
:1077B000044B002243F82020704700BF00E100E0A6
:1077C000A822002038B54368044693F91200DD6909
:1077D000002801DBFFF7DCFF95F92400002801DB1E
:1077E000FFF7D6FF95F92500002801DBFFF7D0FF52
:1077F000AB6A2BB193F90100002801DBFFF7C8FF4A
:10780000D4E902210023236018469160536338BDF8
:1078100030B40478486E032C98BF013042B18242E4
:1078200006D2032C98BF02F1FF321A6030BC7047B9
:10783000029D496BED0754BF01F01F01C1F30441E4
:10784000032C09D9090981F0010172B901B180B98C
:1078500002225A6030BC704701F00C01A1F1040112
:10786000B1FA81F14909002AF0D0824201D30029FE
:10787000EED103225A6030BC704700BF2DE9F047BB
:107880000B7C41600D46012101FA03F2C2609207B0
:1078900016BF00220174027403F58003D5E90512B6
:1078A00003F5F0631B02002784B004468360416146
:1078B000C0E90672EE69EFF31083012282F31088AB
:1078C000874A287CD16801288CBF6FF040006FF098
:1078D00020000140D160D26883F310882A78287A8A
:1078E0006B68A1684FF4254C032AC1F800C04FEA29
:1078F000C050CF6203F1FF3ECF638F6400F0D880A9
:1079000084BF40EA02409E464FF0004CC862D6F861
:107910001880F069C1F810C00027C1F814C0C1F880
:1079200018C04FF0FF3C4F6203978F62CDF808C03C
:10793000C1F81C800862D6F82C80C1F868E0C1F854
:1079400064E0002A40F084805B0863440293C646EA
:1079500001204FF0030C4B658B65BEF1000F15D174
:10796000337883B1777848F48078022A48EA87131D
:107970004FEA071800F0A18040F2A180032748EAEF
:10798000030848EA0708B378002B7CD1B76A002FB8
:1079900000F08A80BB7897F803A097F804901B0644
:1079A00043EA0A73D7F808A043EA09438B63C1F896
:1079B0008CA0BAF1000F61D00123BEF1000F09D1F4
:1079C00097F81C9097F81BA04FEA496949EA4A29A1
:1079D00048EA0908C1F88830BEF1000F08D196F8CE
:1079E000213096F820E05B0743EA4E3348EA03086B
:1079F0004FF4AA03012A0B6402D10023CB640B6568
:107A0000E368CB60C1F83480C1F830C00863697C9A
:107A100095F912002246FFF771FE224696F82210D1
:107A200096F92400FFF76AFE224696F8231096F98D
:107A30002500FFF763FE2FB12246397897F9010040
:107A4000FFF75CFE274B2360002004B0BDE8F08701
:107A5000012A3ED9EA686068009702ABFFF7D8FEBA
:107A6000039FA168029BD6F82CE02A78380440EAEC
:107A7000076040F0030C40F001006CE7FB68003346
:107A800018BF012399E7F7783B0143EA8713022ADD
:107A900043F480730FD017D903273B43B76A48EAF2
:107AA0000348002F7FF476AF8F63C1F8887093E7A7
:107AB00040F4803028E70927EFE709275FE7002F28
:107AC00014BF092706275AE7002F14BF09270627E6
:107AD000E3E7012063460246C6464FF0030C3AE74F
:107AE000FC6F044054504700F0B4EFF30383103BA5
:107AF0005BB203F1C001164A164C52F821006FF335
:107B0000104042F8210054F8230044682478012CE6
:107B100015D1D0E90265B5600025B564F564356519
:107B200052F821600C4F65F310465D09603503F093
:107B30001F0304FA03F342F8216047F82530436934
:107B400023B100221146F0BCFFF704BEF0BC704721
:107B500000600040A822002000E100E01C4B30B48F
:107B6000C3600B7803F001034370EFF3108301252A
:107B700085F31088174AD46824F48014D460D2683E
:107B800083F31088EFF3108485F310884378CBB12A
:107B9000C26813796FF3C713137184F310884A68AE
:107BA0004B78D278C4680C4DD201D2B2DB0162713D
:107BB000DBB20122A371E2710B78037045600020F3
:107BC00030BC7047C5682A7963F386122A71E4E7EE
:107BD00000E00540FC6F044000434144C368427824
:107BE000002023F812107047EFF31082012383F373
:107BF00010884378C1683BB10B7943F080030B7167
:107C000082F31088002070470B7943F040030B711A
:107C100082F3108800207047EFF31081012383F373
:107C20001088437843B1C26813796FF3C713137197
:107C300081F3108800207047C068027963F38612D0
:107C4000027181F310880020704700BF10B4034612
:107C5000EFF31084012282F3108842787AB1C2686F
:107C600011796FF3C7111171117A6FF3C711117286
:107C700084F31088002058605DF8044B7047C16899
:107C8000087962F386100871087A62F38610087228
:107C9000EEE700BF2DE9F0430F688BB088468146C0
:107CA00014461FB33D460FCD6E460FC60FCD0FC60F
:107CB00095E8030086E803000FCC3E460FC60FCCC4
:107CC0000FC694E8030085E803003846C847D8F893
:107CD000004044B16D460FCD0FC40FCD0FC495E8E1
:107CE000030084E803000BB0BDE8F0831746ECE71F
:107CF00070B58AB0EFF30383103B5BB2C0332E4AFA
:107D000052F823106FF3104142F82310EFF303836E
:107D1000103B5BB2294A52F82350002128226846C2
:107D200006F066FA6C6894F84D280021D2B2ADF8DE
:107D3000042084F84D18B4F84238C3F30013B3B1EB
:107D400042F020020223ADF8042094F8532884F86E
:107D5000533894F8523803F01F03D2B2E01884F875
:107D6000532890F8202861F3820280F820282A689E
:107D70006E6A1268009205F120016A46E869039371
:107D80000496FFF787FFB4F84238DB0611D52B685D
:107D90001A69127D6AB193F91530002B09DB5A0973
:107DA000403203F01F030121054801FA03F340F8B4
:107DB00022300AB070BD00BF00600040A822002041
:107DC00000E100E02DE9F0418AB0EFF30383103BBE
:107DD0005BB2C0333F4A52F823106FF3104142F8B0
:107DE0002310EFF30385103DEDB23B4B6EB2002242
:107DF00053F82670D7E900E494F85318DEF81030F1
:107E000084F8532894F852C81B7B0CF01F0C0CF11B
:107E10002002C9B2100184F853182158205843EAAF
:107E2000D07303F00103C1F380708DF819008DF851
:107E30001830002B4AD1C1F38A41059104EB02129C
:107E40009388C3F30303D8B208288DF81A303AD9BF
:107E500008208DF81A0008AA002304EB0C1808EB80
:107E60000301013391F8061202F8011B8342F6D395
:107E7000DEF80020009204EB0C03442283F8202853
:107E80004FF4806100227B6A0792ADF804106A46C5
:107E900007F12001F8690493CDF80CC0FFF7FAFE52
:107EA000B4F84238DB070BD5002E09DB76094036E3
:107EB00005F01F050123094A03FA05F542F826508B
:107EC0000AB0BDE8F0810028C5D1D1E721F06041BA
:107ED0000591B3E700600040A822002000E100E027
:107EE000F0B58BB0EFF30383103B5BB2C033224A93
:107EF00052F823106FF3104142F82310EFF303837D
:107F0000103B5BB21D4A52F82350D5E900340126DC
:107F1000196894F853286F6A84F8536894F85238B3
:107F2000009103F01F03E118D2B284F85328002215
:107F300081F8202881F820284FF40062ADF8042051
:107F400005F12001E86903936A460497FFF7A2FE52
:107F5000B4F842389B070CD52B6893F91730002BE7
:107F600007DB5A09403203F01F0305499E4041F8E0
:107F700022600BB0F0BD00BF00600040A8220020CE
:107F800000E100E00B7C03F1401303F500631B02EA
:107F9000F0B4044641608360EFF31082012383F361
:107FA00010883B480E7CC568C6F10306B34025EA3D
:107FB0000303C360C36882F31088A26800231372AE
:107FC000137AC3F34003002BFAD1CD690E7AE87817
:107FD00095F800C093722F7900F00700BCF1000FF4
:107FE00043D1002E48D14B681773C0B26768002593
:107FF000957350729672E3603F7C264E91F91200A1
:1080000046F82730013B9BB2A842138023DB4B7C10
:10801000DFF88CC0204E00F1604202F561421B0186
:10802000DBB282F8003300F1C00743094CF820406E
:108030009B0056F827C003F1604303F5614300F04D
:108040001F00012202FA00F065F3104C46F827C029
:10805000C3F880011860D1E90502104B20610020AF
:10806000C4E905022360F0BC7047BCF1500F09D091
:108070004CEA0000C0B2B6E786F0020640EA0610FD
:108080006646B0E740F05000C0B21E46ABE700BF06
:10809000FC6F0440300B002000600040544741005A
:1080A000A82200208268117A01F00101137AC3F33B
:1080B00040039942FAD143681978012903D0F1238A
:1080C00013720020704710B4C1681C7C05484B1E19
:1080D0009BB21380F12340F82410137200205DF846
:1080E000044B7047300B0020D0E90223013BF12103
:1080F0009BB2138000201172704700BF10B48268D9
:10810000117A01F00101137AC3F340039942FAD1C5
:10811000436893F91230F424002113F1210F1472F3
:10812000117315D08B4210DB5A09203201210B4C00
:1081300003F01F0301FA03F344F82230BFF34F8F1B
:10814000BFF36F8F436893F91230054A42F823005A
:10815000002303605DF8044B1846704700E100E01F
:10816000A8220020F0B585B0EFF30383103B5BB28B
:1081700003F1C0011B4A1C4C52F821006FF3104060
:1081800042F8210054F82340D4E901120978137A07
:108190000129DBB204D103F0F003F4211172137250
:1081A0002769BFB16569D5B195E8070001AE86E8DA
:1081B00007009B0644BF00232B71A3692B60284650
:1081C000B84763691BB196E8070083E80700A26817
:1081D000137ADBB203F00F03137205B0F0BD01AEEA
:1081E0003546E6E700600040A82200200346002054
:1081F0001A689B8A1380704703681B88C3F3C033D7
:108200000B700020704700BF03681031002033F866
:1082100011301380704700BF2DE9F043D0E90032E0
:10822000D1E90064D1F808E0D2F814C026F0405734
:1082300024F040521FFA82F82EF040551FFA87F9B9
:108240003443A3F80490120CA3F814801FFA85F9A4
:108250004FEA17482D0C14F0405FA3F80890A3F8DC
:108260000680DA825D8156D1CC68002C00F09080C7
:108270002289150522D5D4E900E5B4F80A90B4F8AE
:108280000C80A3F89020A3F89C90A3F89E801FFA7E
:108290008EF9CEF30B48A3F894904FEA1E7EA3F814
:1082A00096801FFA85F9C5F30B482D0F83F892E0ED
:1082B000A3F89890A3F89A8083F8935095051AD460
:1082C0009CF80340098AA3F89020A3F8801064B1B9
:1082D0001A88818A92B222F01F02B7FA87F71F32FA
:1082E000D21B92B211431A8081822A4BC0E9033615
:1082F0000020BDE8F083A57C94F81390B4F80E80BC
:10830000B4F810E045EA090483F8A640A3F8A88071
:10831000A3F8AAE0D4E7204D204A2D6A1268DFF8BE
:108320008080C5F3026902FA09F2C5F30215EA403A
:10833000A8FB02529509DFF86C8041F2883202FBFB
:1083400005F2A8FB0252920C0132072A38BF07221D
:1083500014F080550AD01EF0805F5FFA82F840F278
:10836000011583F8DE8008BF4FF48075A40009D59D
:10837000D2B245F400751EF0005F83F8DF2018BF0D
:1083800045F00205CC68ADB25D82002C7FF470AF81
:10839000224695E74344415200E00140302300204B
:1083A000D34D621083DE1B4330B400F1604303F50C
:1083B0006143104D104C0901C9B283F8001345F810
:1083C000202000F1C001430954F821509B006FF3B5
:1083D000104503F1604344F8215003F5614300F078
:1083E0001F00012202FA00F0C3F8800130BC1860BF
:1083F000704700BFA822002000600040430910B46D
:10840000203300F01F0408490122A24041F8232034
:10841000BFF34F8FBFF36F8F044B5DF8044B002207
:1084200043F82020704700BF00E100E0A8220020B0
:1084300038B5436800220446826093F906005D69FE
:10844000E260904202DBFFF7D9FF636893F907000F
:10845000002801DBFFF7D2FF95F90600002801DBB9
:10846000FFF7CCFF95F90700002801DBFFF7C6FFF7
:108470002368002018821880EFF31082012383F311
:108480001088646805492488CD68C4F11004A340AD
:108490002B43CB60CB6882F3108838BDFC6F04405F
:1084A0000A882DE9F84305460C464E694879C968A3
:1084B000A96152022169296202F1804202F5B822C3
:1084C0000021E961A1782A6032796C600302920789
:1084D00043F04003F27843EA413348BF43F48063FA
:1084E000002A6ED043F42073022808BF38499BB29B
:1084F00008BF31F82200AB8218BF00202279E17852
:1085000096F801E03778D20342EA410242EA4E1E71
:10851000EFF3108C012181F31088DFF8BC802288F2
:10852000D8F80C90C2F1100201FA02F229EA020214
:10853000C8F80C20D8F80C208CF3108896F804C0EA
:108540002A6847F6FF581FFA8EFE03EA08031CF05C
:10855000020F13801082A2F80EE0177309D04CF0BE
:10856000030C82F88AC0084600F0EEF82A6896F8F4
:1085700004C094F9060082F88AC0002803DB2A466A
:10858000217AFFF711FF94F90700002803DB617AD5
:108590002A46FFF709FF96F90600002803DB2A4662
:1085A000317AFFF701FF96F90700002803DB717AA3
:1085B0002A46FFF7F9FE0020064B2861AB60BDE8B4
:1085C000F883002890D143F400439BB2AB8295E737
:1085D000F410010043444152FC6F04400C4A92F8ED
:1085E000363063B10A4A92F8A030D906FBD4084964
:1085F00082F8A00091F8A030DB06FBD4704792F817
:108600003C30DB07EED492F83C30DB07F7D5E9E7E6
:1086100000E00140064B074993F826001A6A51F81A
:1086200020300549C2F30262D3400B60704700BF9F
:1086300000E00140380200203023002070B5374CA4
:10864000374B3848384A6260384900224AF20355AD
:10865000A3F8FE53A0F8002121604FF4004193F8E5
:108660002600E2606261A1602161196A54F820204D
:108670002F4DC1F30261CA40082009212A6083F806
:10868000130483F8A21093F88024002A3BD0244BD3
:10869000002083F8810483F8800493F8A030002B35
:1086A00039D11F4B002283F8362093F83C20D207A3
:1086B000FBD5012100201F4A83F8311083F82600E2
:1086C0001A6293F82620186A54F82220154CC0F339
:1086D0000260C2402A60042684224FF4254083F8B9
:1086E0003E6083F83E2083F8D0102246A3F8FE03B4
:1086F000A4F80411B2F804319BB2002BFAD1012383
:10870000A2F8003170BD012183F8801440F2C4400A
:1087100000F01AF8BBE7FFF761FFC2E7380200205C
:1087200000E0014000C0014000127A00006CDC0251
:108730003023002000010110704700BFA0F10100AC
:108740000028FBD1704700BF144B70B401FB00F14F
:108750004FF47A761B681248B0FBF3F0A1FB064594
:1087600000234FF0FF32AB4208BFA24206D3B4FB56
:10877000F0F0800880B170BCFFF7E0BF8000B1FB73
:10878000F0F0A0FB06018B4208BF8242F2D24FF00C
:10879000FF3070BCFFF7D2BF70BC704730230020A1
:1087A00000CA9A3B0B4B70B5B3F840510A4E0024F7
:1087B000ADB225FA04F3DB07E0B203D556F8243056
:1087C00003B198470134102CF3D1024BA3F8305178
:1087D00070BD00BF0060004064220020074830B434
:1087E000074D00F1200403461A1A13F8011BC0328A
:1087F000A34245F82210F7D130BC7047E91A0100B6
:1088000000600040EFF31081012383F31088124BC6
:1088100033F8102092B22AB133F81020013A92B204
:1088200023F8102033F810309BB28BB90B4A10B4E8
:108830000B4CB2F8FE3334F8100043F4254323EA1E
:108840000003A2F8FE3381F310885DF8044B7047F3
:1088500081F31088704700BF2823002000E001400A
:108860000011010030B4EFF31081012383F310886D
:108870000C4A32F810309BB253B90B4C0B4DB4F884
:10888000FE3335F8105043F425432B43A4F8FE3350
:1088900032F8103001339BB222F8103081F3108887
:1088A00030BC70472823002000E001400011010087
:1088B0000C4A08B513684BB1033020F003000A4995
:1088C0001844884205D81060184608BD074B13604D
:1088D000F2E705F041FC0C2303604FF0FF3318462C
:1088E00008BD00BF380B0020007B0020382300208B
:1088F00000BE704708B500F005F8FCF77DF9FEE70B
:10890000704700BF70B5434A434B444C4FF4700569
:108910004AF202500121C2F8885082B09460A3F854
:10892000FE031A4683F81F1492F8B134DB06FBD518
:1089300000204FF425460446A2F8FE63FFF7E0FF4F
:10894000FFF77CFE8DF8074001209DF80730FFF708
:1089500089FFEFF31082012585F31088304B996869
:1089600021F000419960996882F310882D4A1168BE
:10897000C1F300018DF807101168C1F300018DF8F3
:1089800007101268C2F300028DF80720EFF310827F
:1089900085F31088996841F0004199609B6882F3E3
:1089A00010882846FFF72EFF2846FFF7A9FF1E4B29
:1089B0001E499C801E801E4E9E601E481E4E1F4AF1
:1089C000DE604FF48056A1F82061121A9D80214686
:1089D00005F00EFC1A481B4A1B491C4D121A05F0E3
:1089E000E3FB1B4B5B1BA3424FEAA30605DD0134EF
:1089F00055F8043B9847A642F9DCFFF70BFE02202E
:108A0000FFF77EFFFFF7EAFE002002B0BDE87040EE
:108A1000FFF792BE00ED00E000E0014000400000E2
:108A2000FC6F044000080440000D0040006000405E
:108A3000007B002050020020007F0020382300200F
:108A40000000002038020020D41D0100F4010020A5
:108A50002402002000220270C0E9012280F83520A3
:108A6000012280F83620DF22827770472DE9F04717
:108A700004464FF000081F469DF8283080F800801B
:108A800021730375089B0361099B83610B9B036240
:108A90000C9BDFF84091C0E90938FF238A464377F1
:108AA0001546002A3ED184F83520502004F0ACFC55
:108AB0004FF6FF73A0F8423000F12008DF2380F862
:108AC000205080F8215080F8225080F82350C0E9CF
:108AD0000955C562C0E90E55C0E90C5580F844300F
:108AE00080F8453080F8405080F84150C0E9125578
:108AF000C4F8288020222946064605F079FB072F76
:108B0000A6605AD8314ABAF1020FD35D114642D05D
:108B100099F80000002856D1002B4ED10223277768
:108B2000D35548E0012A48D184F83520242004F0A8
:108B30006BFC837880F8008068F3020383704378CD
:108B4000C57003F0F80368F306130646437080F817
:108B5000048080F8058080F80680A0621C224146CF
:108B6000083005F045FB012F666026D8184BBAF196
:108B7000020FDA5D194602D099F8000028B1012AE7
:108B80001BD802232777CB5515E0B2B90222DA555C
:108B90002777257011E0012BF3D92777384601F0AC
:108BA00011FC3022816A404605F0FEFA384601F099
:108BB00009FC036BA36101232370002389F80030B3
:108BC0002078BDE8F087012BDAE700BF3E0B0020DC
:108BD0003C0B0020460B002038B590F83530044699
:108BE0008BB9806808B9002038BD04F10C01FEF78C
:108BF00045FE0546A068FEF769FD0E2D01D0002D4B
:108C0000F1D10120F0E7012BEDD140680028EAD036
:108C100004F10C010830FFF7B5F90546606808302B
:108C2000FFF762FAE9E708B590F835303BB980689C
:108C300020B1FEF745FDB0FA80F0400908BD012BD8
:108C400006D140680028F9D00830FFF72BFAF2E788
:108C50000020F3E708B590F835303BB9806820B1C3
:108C6000FEF7B0FDB0FA80F0400908BD012B06D137
:108C700040680028F9D00830FFF740FAF2E70020FA
:108C8000F3E7FFFF38B50446FFF7E4FF606838B14B
:108C9000237F0C4A00252421D55404F0DDFB6560B8
:108CA000A56875B1237F084AA86C0021D15410B182
:108CB000202104F0D1FB5021284604F0CDFB0023F5
:108CC000A36038BD3C0B00203E0B002010B50446CD
:108CD000FFF7D8FF204610BD01F10C0303608B683D
:108CE00003B1203343604B6883607047836823B1CE
:108CF0001868003018BF0120704740680028FBD07A
:108D00008068F6E7F0B585B004460F46014601A835
:108D10001546FFF7E1FF2046FFF7E8FF064610B1D2
:108D20002046FFF797FF00F055F82A4601A900F00A
:108D30001DF9054650B167772EB12046FFF74CFF6D
:108D40002046FFF770FF284605B0F0BDDF23A3776C
:108D5000F2E7FFFF00F1C0020A4B53F822106FF355
:108D6000104143F8221000F01F024009800000F17A
:108D7000604000F5614001239340C0F880310360FA
:108D8000704700BF006000404309012200F01F004F
:108D900002FA00F02033044A42F82300BFF34F8F59
:108DA000BFF36F8F704700BF00E100E07047FFFF27
:108DB0000028A7BF00F1604000F5614000F00F00FF
:108DC000034BABBFC023C02280F800331A54704756
:108DD00014ED00E038B50A4D2B78BFF35B8F13F02C
:108DE00001040BD1284604F020FB38B1054B28467E
:108DF0001C6004F026FB044802F0FDF8014838BD71
:108E0000480B00204C0B0020AD8D00002AB9304BE0
:108E1000C031012243F821207047012A03D1C0311B
:108E20002B4B0222F6E7022A03D1C031284B032242
:108E3000F0E7032A03D1C031254B0422EAE7042AD4
:108E400003D1C031224B0522E4E7052A03D1C0310A
:108E50001F4B0622DEE7062A03D1C0311C4B072236
:108E6000D8E7072A03D1C031194B0822D2E7082AD4
:108E700003D1C031164B0922CCE7092A03D1C031F6
:108E8000134B0A22C6E70A2A03D1C031104B0B222A
:108E9000C0E70B2A03D1C0310D4B0C22BAE70C2AD4
:108EA00003D1C0310A4B0D22B4E70D2A03D1C031E2
:108EB000074B0E22AEE70E2A03D1C031044B0F221E
:108EC000A8E70F2AA8D1C031014B1022A2E700BFAA
:108ED0000060004032B91A4BC0315D2243F82120B6
:108EE00001207047012A05D1C031154B652043F898
:108EF0002100F5E7022A03D1C031114B6D22EDE7C5
:108F0000032A03D1C0310E4B7522E7E7042A03D1AF
:108F1000C0310B4B7D22E1E7052A03D1C031084B5C
:108F20008522DBE7062A03D1C031054B8D22D5E728
:108F3000072A03D1C031024B9522CFE700207047AA
:108F40000060004032B9C031074B1E2243F8212097
:108F500001207047012A05D1C031034B212043F87D
:108F60002100F5E70020704700600040F8B51B4B7A
:108F70009E680B68174693F91220213205460C466D
:108F800001D00120F8BD4A6840368AB11A7C0168D8
:108F9000FFF7A0FF0028F4D02268082353742B6841
:108FA0009374AFB90E4A46F8232001332B60E9E7EA
:108FB0008A6882B11A7C0168FFF7C4FF0028E0D0FC
:108FC0002268082353742B6893740FB9054AEAE7A3
:108FD00046F82370E9E71046D4E700BF00ED00E053
:108FE000E97A0000658100002AB9064BC0313622BB
:108FF00043F821207047012AFCD1C031014B3B22AC
:10900000F6E700BF006000402AB9064BC0313522A8
:1090100043F821207047012AFCD1C031014B3A228C
:10902000F6E700BF006000402AB9064BC031372286
:1090300043F821207047012AFCD1C031014B3C226A
:10904000F6E700BF006000402AB9064BC031382265
:1090500043F821207047012AFCD1C031014B3D2249
:10906000F6E700BF006000402AB90C4BC0319922DE
:1090700043F821207047012A03D1C031074B9F22BA
:10908000F6E7022A03D1C031044BA422F0E7092AF3
:10909000F0D1C031014BA922EAE700BF00600040D7
:1090A0002AB90C4BC031982243F821207047012A7D
:1090B00003D1C031074B9E22F6E7022A03D1C0310B
:1090C000044BA322F0E7092AF0D1C031014BA822BA
:1090D000EAE700BF006000402AB90C4BC0319A2279
:1090E00043F821207047012A03D1C031074BA02249
:1090F000F6E7022A03D1C031044BA522F0E7092A82
:10910000F0D1C031014BAA22EAE700BF0060004065
:109110002AB90C4BC0319B2243F821207047012A09
:1091200003D1C031074BA122F6E7022A03D1C03197
:10913000044BA622F0E7092AF0D1C031014BAB2243
:10914000EAE700BF006000402AB9064BC031AE22FA
:1091500043F821207047012AFCD1C031014BB322D2
:10916000F6E700BF006000402AB9064BC031AD22CF
:1091700043F821207047012AFCD1C031014BB222B3
:10918000F6E700BF006000402AB9064BC031B122AB
:1091900043F821207047012AFCD1C031014BB6228F
:1091A000F6E700BF006000402AB9064BC031B0228C
:1091B00043F821207047012AFCD1C031014BB52270
:1091C000F6E700BF006000402DE9F84FAD4B9E6808
:1091D00004461546403672B6012940F08E80002ABA
:1091E00000F098809368213340F08580036812680E
:1091F0001A441F2A00F23D846A68DFF8A48246F808
:109200002320C033332248F8232090F90000FFF7D1
:10921000BBFD94F90030C03358F823206FF310429F
:1092200048F8232094F90000FFF7C2FD94F90000EC
:10923000FFF790FD23686968AB605A1CC133226058
:1092400046F82210342248F8232094F90000FFF752
:109250009BFD94F90030C03358F823206FF310427F
:1092600048F8232094F90000FFF7A2FD94F90000CC
:10927000FFF770FD236869685A1CC133226046F805
:109280002210312248F8232094F90000FFF77CFDDA
:1092900094F90030C03358F823206FF3104248F897
:1092A000232094F90000FFF783FD94F90000FFF7F5
:1092B00051FD236869685A1CC133226046F82210A8
:1092C000322248F8232094F90000FFF75DFD94F95D
:1092D0000030C03358F823206FF3104248F82320A1
:1092E00094F90000FFF764FD94F90000FFF732FDE8
:1092F00023680133236001250CE002290ED14AB115
:1093000093682133F7D10068156805441F2D8CBF81
:109310000025012562B62846BDE8F88F032910D143
:10932000002AF7D092F912302133E4D10E2353747E
:109330000168554B917446F82130127CFFF702FE0C
:10934000D6E7042944D1002AE4D092F9073021332A
:109350002DD10C27977101684C4BD17146F8213003
:109360001278FFF781FE0168494B01310160697293
:109370002F7246F821302A78FFF7AEFE0168454B80
:109380000131016069712F7146F821302A78FFF7A9
:1093900087FE0168404B01310160AF72E97246F807
:1093A00021302A78FFF7B4FE03680133036095F992
:1093B0000700FFF7CFFC95F90900FFF7CBFC95F903
:1093C0000500FFF7C7FC95F90B00FFF7C3FC92E718
:1093D000002940F09480002A9CD0137A3BBB12688D
:1093E00092F90D3021331ED10C231373036853738C
:1093F0002A4A46F82320C033294A262142F823105E
:109400002B68686893F90D101B7B01F160421B010A
:1094100002F56142DBB282F80033224B43F82100AF
:109420002368013323602B6893F90D00CDE7012BEE
:109430003AD1126892F90F3021331ED10C23937365
:109440000368D373154A46F82320C033144A2721F2
:1094500042F823102B68686893F90F109B7B01F189
:1094600060421B0102F56142DBB282F800330D4B12
:1094700043F821002368013323602B6893F90F0020
:10948000A3E700BF00ED00E065810000495800003F
:10949000A55A000029590000E55A0000496400005F
:1094A00000600040A8220020022B40F0E2821268F7
:1094B00092F9113021331ED10C23137403685374B5
:1094C000AD4A46F82320C033AC4A282142F8231085
:1094D0002B68686893F911101B7C01F160421B0135
:1094E00002F56142DBB282F80033A54B43F821005C
:1094F0002368013323602B6893F9110065E7052980
:109500007CD1002A3FF406AFD2E9007B0C237B73A9
:1095100097F90F30213350D10168DFF89882DFF8D6
:1095200060924BB2FB738BF80D303A78FFF75CFD1D
:1095300090F9003008EB03024FF0C00A82F800A354
:10954000016849F8237001314BB20160BB738BF89D
:109550000C302B681A78FFF757FD90F9003008EBB4
:10956000030282F800A3016849F8237001314BB26D
:1095700001603B748BF80E302B681A78FFF754FDAE
:1095800090F9003008EB030282F800A3016849F863
:10959000237001314BB201607B748BF80F302B6864
:1095A0001A78FFF751FD90F90030984488F800A32D
:1095B00049F8237003680133036097F90F00714B7A
:1095C00046F8203097F90E306F4A46F8232097F975
:1095D00010306E4A46F8232097F911306C4A46F84D
:1095E0002320FFF7B7FB97F90E00FFF7B3FB97F9BE
:1095F0001000FFF7AFFB97F91100E6E6062952D1FC
:10960000002A3FF487AE17680C237B7397F90F305D
:1096100021333DD101685F4BF97346F821303A7828
:10962000DFF89081DFF85891FFF71EFD90F90030C8
:1096300008EB03024FF0C00A82F800A3016849F862
:1096400023700131544B0160B97346F821302B6807
:109650001A78FFF725FD90F9003008EB030282F835
:1096600000A3016849F8237001314C4B0160397443
:1096700046F821302B681A78FFF72EFD90F900305C
:10968000984488F800A349F8237003680133036005
:1096900097F90F00FFF75EFB97F90E00FFF75AFBF3
:1096A00097F9100091E6072951D1002A3FF432AE14
:1096B000D2E9007540F60C432B8295F90D30213329
:1096C00024D101684BB2FB732A786B73FFF78CFCD3
:1096D000016801314BB201602B73BB732A78FFF72D
:1096E00093FC016801314BB20160AB733B742A7883
:1096F000FFF79AFC016801314BB20160EB737B7498
:109700002A78FFF7A1FC03680133036095F90D0087
:10971000234B46F8203095F90C30224A46F8232096
:1097200095F90E30204A46F8232095F90F301F4A4C
:1097300046F82320FFF70EFB95F90C00FFF70AFB14
:1097400095F90E00FFF706FB95F90F003DE6082995
:1097500032D1002A00F08D8192F9023021337FF45A
:10976000CAAD0C2353700168114B917046F821303B
:109770001278FFF74BFBBBE5B164000000600040CE
:10978000A8220020C57300008D720000B174000093
:1097900071750000B9610000996100005963000013
:1097A000B56B0000956A0000596C0000ED6C00007C
:1097B0005576000000E100E0092974D1002A3FF449
:1097C000A9AD576897F90230213361D192F808A00A
:1097D0000168A94BD2F80090B9704FF0060B87F8DA
:1097E00006B0524646F82130FFF7AEFCA34D97F97C
:1097F0000220BB79DFF8B082A9181B01DBB281F827
:10980000003301689E4B48F82290013101605246B6
:10981000797087F805B046F82130FFF7A5FC97F975
:1098200001207B79A9181B01DBB281F800330168A4
:10983000944B48F82290013101605246397187F803
:1098400008B046F82130FFF7AFFC97F904203B7AC7
:10985000A9181B01DBB281F8003301688A4B48F874
:109860002290013101605246F97087F807B046F83E
:109870002130FFF789FC97F90320FB7915441B0180
:10988000DBB285F80033036848F8229001330360A7
:1098900097F90200FFF75EFA97F90100FFF75AFA0D
:1098A00097F9040091E50A2978D1002A3FF432ADF6
:1098B000576897F90230213361D192F808A0016806
:1098C000724BD2F80090B9704FF0060B87F806B0D3
:1098D000524646F82130FFF7C7FB684D97F9022042
:1098E000BB79DFF8C481A9181B01DBB281F8003312
:1098F0000168674B48F82290013101605246797047
:1099000087F805B046F82130FFF7CAFB97F9012028
:109910007B79A9181B01DBB281F8003301685D4B2C
:1099200048F82290013101605246397187F808B039
:1099300046F82130FFF7ECFB97F904203B7AA91891
:109940001B01DBB281F800330168534B48F82290C9
:10995000013101605246F97087F807B046F82130AE
:10996000FFF7BAFB97F90320FB7915441B01DBB223
:1099700085F80033036848F822900133036097F9B3
:109980000200FFF7E7F997F90100FFF7E3F997F90C
:109990000400FFF7DFF997F9030016E50B2968D1FA
:1099A000002A3FF4B7ACD2E900150C232B7595F9CA
:1099B0001530213352D10368384A6B7546F823209D
:1099C0002A6822B9C033364A4A2042F8230095F962
:1099D00015002B7D334F00F1604202F561421B01FF
:1099E000DBB282F8003322682F4B43F82010501C62
:1099F0002060A87546F82070286820B9C132284830
:109A00004D2740F8227095F916702A7D07F16040C5
:109A100000F561401201D2B280F80023226843F8B9
:109A20002710501C214F2060E87546F820702868E8
:109A300020B9C1321A484E2640F8226095F91760C5
:109A40002A7D06F16040120100F56140D2B280F833
:109A5000002343F8261023680133236095F915008D
:109A6000FFF778F995F91600FFF774F995F91700E3
:109A7000ABE400254EE400BFD54D000000E100E05E
:109A8000494D0000694F0000914E0000915B0000BD
:109A9000F95B0000A95C00006D5C0000F17C000037
:109AA00000600040C57D0000A8220020E17E00008B
:109AB00008B53C220021024804F09AFB08BD00BF13
:109AC000500B002070B50024064D264655F82400A2
:109AD00020B12C2103F0C0FC45F8246001340F2C88
