:10400000007F0020CDB900007DB80000E9EA000083
:10401000C9B90000C9B90000C9B90000C9B9000098
:10402000000000000000000000000000C9B900000E
:10403000C9B9000000000000C9B90000C9B90000FA
:104040000000000000000000000000000000000070
:104050000000000000000000000000000000000060
:104060000000000000000000000000000000000050
:104070000000000000000000000000000000000040
:104080000000000000000000000000000000000030
:104090000000000000000000000000000000000020
:1040A0000000000000000000000000000000000010
:1040B0000000000000000000000000000000000000
:1040C00010B5054C237833B9044B13B10448AFF352
:1040D00000800123237010BDD802002000000000E2
:1040E0006869010008B5034B1BB103490348AFF3EE
:1040F000008008BD00000000DC02002068690100AB
:104100004308400003F0553300F0AA3018438308F9
:10411000800000F0CC3003F03333034318091B0157
:1041200003F0F03300F00F30184300BA7047FFFF80
:10413000064A136810B50133054C1360054B22681D
:104140001A600AF061FF206010BD00BFA0040020CB
:10415000B0040020B8040020064A136810B50133EB
:10416000054C1360054B22681A600AF04DFF206071
:1041700010BD00BF54050020600500206805002028
:1041800070B5044608460E4602F0B8FE054688B1F2
:10419000267002F0CBFE608002F0C8FEA08002F024
:1041A000C5FEE08002F0C2FE208102F0BFFE608109
:1041B00002F0E6FE284670BD30B5016802690D01C7
:1041C00085B004465059FFF79BFF2A440190506880
:1041D000FFF796FF02909068FFF792FF0390D36875
:1041E0006269A3610131B1FBF2F302FB131121609B
:1041F00049B994F8203003B9A361236E03B19847FD
:10420000012384F85C300C2201A902480EF007F962
:1042100005B030BD200300202C49F8B50D680A68B0
:104220002B4C0B68D210A25C5C4204F0070403F034
:10423000070358BF6342274C42FA03F3226822F473
:10424000384222F018022260226C22F4415222F0FD
:104250003002DB07226404F140041CD51E4B1F4FC3
:1042600013F8152003EB45031C325B7837F8322036
:104270001C331612360156FA82F237F8333004F541
:10428000F864052644F822601A12120152FA83F3E8
:10429000042244F823200B686024013393FBF4F2DA
:1042A00004FB12330B6080B1046874B1A36963B17D
:1042B0000AF0AAFEE369C01AA369984205D920460C
:1042C000FFF77AFF0AF0A0FEE061F8BDF4020020DB
:1042D0002003002000000440785201005C5A0100D5
:1042E00030B585B00B6800934B6801938B680293DF
:1042F000002501230560C0F810D0436104460395F2
:10430000FFF75AFFA56105B030BD70B504460068DF
:104310000D46164670B1322103F02DFB206803686C
:1043200032465B682946984720680368BDE87040BC
:104330005B6B1847606820B10368BDE870405B683C
:10434000184770BD10B504460068C8B103681B6902
:10435000984728B9206803681022DB6B3221984700
:10436000206803681B699847D8B1206803685B69B7
:104370009847C0B202F090FD0028F1D0012010BD96
:10438000636873B1606803681B69984748B16068E7
:1043900003685B699847C0B202F07EFD0028F1D047
:1043A000ECE70020EBE770B504460E460AF02CFE61
:1043B000E0600AF029FEE368C01AA36898420DD8AD
:1043C0002046FFF7BFFF05460028F2D026B1304651
:1043D00002F094FD0028ECD0284670BD0025FBE7D4
:1043E0002DE9F041304D314E2A6833689A4250D160
:1043F0002C680AF009FE04EBC40420440A24B0FB34
:10440000F4F02B4B2B4F286039681A68914298467C
:1044100041D13C680AF0F8FD04EBC40420440A24AE
:10442000B0FBF4F038603B68C8F800302B683360AC
:10443000214B38681B68C01A0DF0B2F902460B46D2
:1044400017A1D1E900010DF04FFB1C4B06460F46AA
:10445000C3E900671A4B28681B68C01A0DF0A0F961
:1044600002460B460EA1D1E900010DF03DFB0B46C3
:1044700014490246C1E90023304639460DF054F88C
:10448000114B00220DF006FA104BC3E90001BDE804
:10449000F0812868B5E73868C4E700BFAFF3008053
:1044A00067666666E6119E40600500206405002090
:1044B000B4040020B0040020B8040020A8040020A8
:1044C00068050020580500200000E03F8803002018
:1044D0002DE9F04F85B00AF097FD0DF061F9484CD9
:1044E000484BC3E90001D4E90023CDE900010DF0F8
:1044F00019F8454B0F4645490646C3E900670022B7
:10450000434BD1E900010DF00DF8424B804689463E
:10451000C3E900890022404B0DF02EFC002860D03A
:1045200042464B46304639460DF0B4F93B4DD5E98D
:1045300000230CF0F9FF82468B46C5E900AB384DED
:104540004046D5E9002349460CF0ECFF32463B4695
:104550000DF0CAFA334BCDE90201C3E90001002294
:10456000314B404649460DF095F923A3D3E900238A
:1045700006460F46504659460DF08CF902460B464A
:10458000304639460CF0D0FF002206460F46274B36
:10459000DDE902010DF07EF902460B463046394650
:1045A0000CF0C2FF224B9DED007BC3E90001214BC3
:1045B000C5E90089D3E9002384ED007B0CF0B4FF4A
:1045C0000022002304460D460DF0D6FB60B9002200
:1045D000194B204629460DF0EDFB38B10024164D4D
:1045E00004E000200021A1E70024002545EC104B49
:1045F00005B0BDE8F08F00BFF168E388B5F8C43EB0
:1046000048050020400300206803002030000020FF
:104610000000344078030020000024409004002073
:1046200038050020500300200000E03F00006940F2
:10463000300300201800002000004940FFFFFFFF6A
:104640002DE9F74FFFF7CCFE0AF0DEFC484D494B51
:10465000DFF84881186004462868201A0DF0A0F899
:10466000454B06460F46C3E900674449444BD1E930
:104670000001D3E900230CF055FF424B82468B46E4
:104680000246C3E900AB30460B4639460DF002F94D
:10469000D8E900230CF048FF3B4BC8E90001D3E9FF
:1046A0000023CDE90001504659460CF03BFF32464D
:1046B0003B460DF019FA354B80468946C3E900891F
:1046C000504625A3D3E9002359460DF0E3F824A36F
:1046D000D3E9002306460F46DDE900010DF0DAF8C4
:1046E00002460B46304639460CF01EFF1EA3D3E9A6
:1046F000002306460F46404649460DF0CBF80246D9
:104700000B46304639460CF00FFF214B2C60C3E9B5
:1047100000011D4BC3E900AB1E4BD3E900230CF095
:1047200003FF0022002304460D460DF025FB48B987
:104730000022194B204629460DF03CFB20B10024F5
:10474000154D01E00024002545EC104B03B0BDE8F9
:10475000F08F00BFAFF300809A9999999999993F8A
:1047600095D626E80B2E013E3A8C30E28E79553EE6
:104770005005002048030020700300206000002046
:1047800088030020800300204005002058030020FB
:104790003803002018000020000049409804002041
:1047A00030B5104C104D114987B0204609F0F8FC87
:1047B0000F4A1049284601F01DFD41F288300AF0E9
:1047C000DFFB2946684601F03DFC0B49204609F015
:1047D000C9FC6946204609F0EDFC084802F002FBDE
:1047E00007B030BD201100204406002044520100D3
:1047F00038000020510000205C5201006C050020B0
:1048000008B502490248FFF76BFD08BD38530100A7
:10481000C004002008B502490248FFF761FD08BD49
:1048200044530100C004002008B502490248FFF7C4
:1048300057FD08BD68520100C0040020FFFFFFFFC4
:1048400008B5002105200AF0F3F902200AF094FBD4
:10485000012105200AF0ECF90A200AF08DFB002165
:1048600005200AF0E5F940F6B832012104200AF0EB
:10487000C9FA48B10CF094FF06A3D3E900230DF068
:1048800009F841EC100B08BD00200149F9E700BF11
:10489000008049409CC420B07268913F07B551EC3C
:1048A000100B0DF0A7FA8C23009300233222194637
:1048B00009F0FCF903B05DF804FBFFFFFFFFFFFF09
:1048C00008B551EC100B2DED028BB0EE408AF0EEE6
:1048D000608A15A3D3E900230CF0DCFF41EC100B38
:1048E000FFF7DCFF01460A2009F006F9B0EE480A9E
:1048F000F0EE680AFFF7D2FF0146092009F0FCF844
:10490000074B012118780AF093F9BDEC028B054B97
:1049100001211878BDE808400AF08AB9AFF3008099
:104920000400002000000020D7A3703D0AD7EB3F11
:1049300008B52DED028B9FED128BB0EE480AF0EE1C
:10494000680AFFF7ABFF01460A2009F0D5F8B0EE80
:10495000480AF0EE680AFFF7A1FF0146092009F0B6
:10496000CBF8094B002118780AF062F9BDEC028BF4
:10497000064B00211878BDE808400AF059B900BF7D
:1049800000000000000000000400002000000020E3
:104990002DE9F041202002F009FB054602F01CFB46
:1049A000554C294602462046FFF7AFFC0025292139
:1049B00020462582FFF7F7FC70B3292104F160003F
:1049C000FFF7DEFBB4F96210D4F8AC000129B8BFE0
:1049D00001214C2671430EF06BFAA046C4F8AC00DE
:1049E000B4F96230AB4271DD00214046FFF7DBFCD9
:1049F00090B1D4F8AC0006FB05F72A213844FFF744
:104A0000BFFB08B10135EBE7D4F8AC002B213844EB
:104A1000FFF7B6FB0028F5D1BDE8F08183421A46C6
:104A2000A8BF0246834211B201DC2182F4E78B4227
:104A300002F101022282C9BFD4F8AC20B4F9BA3025
:104A40004C2301FB0323C8BFB3F90A30DBB2013B9F
:104A5000082BE1D8DFE803F005091014181C282AF8
:104A60003500264B00221A70D6E7244B0122BDE800
:104A7000F0411A70FFF75CBFBDE8F041FFF7CABE16
:104A8000BDE8F041FFF7BCBEBDE8F041FFF7CCBE8A
:104A90001B4B00200021C3E900011A4B64221A605D
:104AA000194B14221A60B7E7184BF2E70EA3D3E9AB
:104AB0000023174CD4E900010CF0ECFEC4E900011E
:104AC000AAE7134C0AA3D3E90023F3E7B4F964205F
:104AD000002AA1D0B4F9102093421846A8BF10466E
:104AE00093429BDC208297E7D7A3703D0AD7EF3F24
:104AF00014AE47E17A14F03F900300201C0300201D
:104B000028000020100000200C0000204800002099
:104B10001800002038B5FFF793FE114B55EC104BF1
:104B200083ED000B00220F4B10EE100A29460DF00A
:104B30002DF90D4B28B101221A70BDE83840FFF75E
:104B4000F7BE18700022094B204629460DF014F9D3
:104B5000074B10B101221A7038BD064A1278FAE7E5
:104B60003000002000002440300500200080494033
:104B7000200000205000002008B5134B18680CF0EE
:104B80001FFE0FA3D3E900230CF084FE0DF032F9D1
:104B900001460A2008F0B0FF0C4B0920196808F004
:104BA000ABFF0B4B012118780AF042F8094B0121A9
:104BB0001878BDE808400AF03BB800BFAFF30080AA
:104BC000D7A3703D0AD7EB3F100000200C00002057
:104BD000040000200000002008B5134B18680CF0FA
:104BE000EFFD0FA3D3E900230CF054FE0DF002F902
:104BF00001460A2008F080FF0C4B0920196808F0D4
:104C00007BFF0B4B012118780AF012F8094B0121A8
:104C10001878BDE808400AF00BB800BFAFF3008079
:104C2000D7A3703D0AD7EB3F0C00002010000020F6
:104C3000040000200000002070B51C4C002200235E
:104C4000D4E900010DF08EF800BB0F2009F0FCFF45
:104C50000646174D00220023D5E900010DF082F829
:104C6000E0B90E2009F0F0FF96B9012818D1FFF73E
:104C700083FF104B0022C4E90023C5E900230E4B3B
:104C800073221A600D4B1E221A6070BD0026E0E7E9
:104C9000012E05D120B9FFF79FFFEAE7012EFAD0D8
:104CA000074B93ED000BFFF70BFEE2E72800002017
:104CB000480000200000F03F100000200C00002001
:104CC000180000200D4A08B512780D4B1B783AB930
:104CD00093B90C4B1B7823B9BDE80840FFF7ACBF74
:104CE00053B9084B1B783BB940F6B8300AF044F989
:104CF000BDE80840FFF70EBF08BD00BF300500202B
:104D0000080000201C0300201FB500210F2009F01F
:104D100077FF00210E2009F073FF0121052009F023
:104D20006FFF0021042009F06BFF0121082009F02A
:104D300067FF0121072009F063FF01210B2009F023
:104D40005FFF01210C2009F05BFF00210B2009F01F
:104D50006FFF00210C2009F06BFF0021082009F0F3
:104D600067FF0021072009F063FF0121092009F0F6
:104D700047FF01210A2009F043FF0221084609F0FC
:104D80003FFF0221032009F03BFF00210DF10F003E
:104D900007F04CF80E4B019303F124040D4BDFEDAB
:104DA0000E0A9FED0E0A9DF80F2000930021C3B25A
:104DB000204607F0E1F800220C21204607F06AFAAD
:104DC000204607F082F9204607F0A6F904B010BD8E
:104DD000C0040020194200000000484200401C4668
:104DE0002DE9F0410AF010F94D4E4E4D30600DF0B6
:104DF00053FA51EC100B0DF025F828600AF004F975
:104E0000DFF86881484CC8F800000DF045FA51EC15
:104E1000100B0DF017F8454B20602A681A60444BC0
:104E200022681A6028683368424DC01A0CF0B8FC3A
:104E300002460B4638A1D1E900010CF055FE3E4B6D
:104E400006460F462068C3E90067D8F80030C01A4C
:104E50000CF0A6FC02460B462FA1D1E900010CF094
:104E600043FE0B4635490246C1E900233046394628
:104E70000CF05AFB0022324B0CF00CFD314BC3E915
:104E800000010DF009FA304B83ED000B0AF0BCF87D
:104E90000CF086FC2D4BC3E900010DF0FDF951EC3F
:104EA000100B0CF0CFFF2A4B18600AF0ADF8294B1D
:104EB0001860294B294864229A60FF22002483F855
:104EC000B02041F250414FF6FF721C82C3F8AC4053
:104ED000C3E90044A3F8B220A3F8B420A3F8B62095
:104EE000A3F8B820A3F8BA2001F0B4FE1C4801F0E2
:104EF00021FE1C491C4809F0DFF905F124002C6053
:104F0000C5E9064485F8204006F0CEFE85F85C40F1
:104F1000BDE8F081AFF3008067666666E6119E40EB
:104F2000B8040020B004002060050020B404002074
:104F300064050020C0040020A804002058050020BB
:104F40000000E03F880300204003002048050020C7
:104F50004803002050050020900300206C0500202D
:104F6000F8020020D6550100240500206805002025
:104F700008B5084807F072F9074809F052F90748E0
:104F800001F046FA0648074B40F8103BBDE80840E0
:104F900001F03EBAE404002024050020F8020020BD
:104FA0006C050020F05801002DE9F0411C481D4D12
:104FB0001B4F02F01FFC2C460023C5E90073052699
:104FC0002C2001F0F3FF804602F006F8414602462D
:104FD0002046FFF79AF92E212046FFF7E4F9C0B9E1
:104FE000013EEDD11049114809F0D0F810490F48A1
:104FF00009F0CCF80F490D4809F0C8F84FF47A7061
:1050000009F0BEFFD8E70C490848BDE8F04109F0B7
:10501000C7B8B4F96430002BF5D0BDE8F08100BF0B
:10502000D807002090030020B45101002011002077
:10503000C25101001C5201009251010038B52848AC
:1050400001F018F9274B40B25328187021D007DC23
:10505000432822D0482818D0412821D1224B0AE0E9
:1050600058280BD05A2805D0572819D1BDE8384008
:10507000FFF7DABB1D4B00221A7038BD1B4B012213
:105080001A70BDE83840FFF753BCBDE83840FFF761
:10509000C1BBBDE83840FFF7B3BB134B0222EBE7BF
:1050A000134B1B78022BE8D12F3800EB80000CF05B
:1050B00087FB0022002304460D460CF07BFE0028EF
:1050C000DBD000220B4B204629460CF05FFE002867
:1050D000D3D0094BC3E90045084BC3E90045CCE7F1
:1050E000F80200204C03002050000020080000209F
:1050F000200000200000494060000020180000202F
:105100002DE9F041224DDFF89480224F8AB02048EB
:1051100001F032FC002838D1414601A801F0ACFD75
:10512000029B6B60039BAB60049BEB60089E059B3E
:10513000EC692B61069B6B61A642079BAB6115D0A6
:1051400016B17368013373607CB16368013B6360BF
:105150005BB9236820469B689847A368013BA3601E
:105160001BB923682046DB689847EE619DF8243020
:1051700085F8203001A801F04BF93946064808F0BF
:10518000F1FF642009F0FCFEC1E70AB0BDE8F08140
:10519000F802002090510100201100206C05002031
:1051A00038B5324C324D20464FF4165108F022F8F3
:1051B0002946204608F0F4FF2946204608F0F0FF73
:1051C0002946204608F0ECFF2946204608F0E8FF73
:1051D0002946204608F0E4FF2649274D204608F0DE
:1051E000DFFFFFF791FD2549204608F0D9FFFFF7C3
:1051F000D7FA2349204608F0D3FF032007F067FFC2
:105200000422204907F0D4FF022007F060FF0422A7
:105210001D4907F0CDFF1D49204608F0C1FFFFF7EB
:105220006FFF2946204608F0BBFF2946204608F0BC
:10523000B7FF2946204608F0B3FF1549204608F07D
:10524000AFFFFFF7B1FE1349204608F0A9FF12494E
:10525000204608F0A5FF1149204608F0A1FF20468E
:105260000F49BDE8384008F09BBF00BF2011002067
:105270003C52010050530100D95301006653010014
:105280008C5301005941000031410000B553010029
:10529000EE530100055401001A5401002B54010083
:1052A0003D54010030B53D4B3D4C93B0D3E9000176
:1052B0000CF0A0FD0A220146684609F01CF8694678
:1052C00003A809F039F8214603A809F07EF8354B08
:1052D0000546D3E900010CF08DFD0A22014606A81F
:1052E00009F009F806A9284609F063F8214609F0F3
:1052F0006CF82D4B0546D3E900010CF07BFD0A222A
:10530000014609A808F0F7FF09A9284609F051F855
:10531000214609F05AF8254BD3E9002305461946E2
:1053200010460CF001F90CF065FD0A2201460CA8AC
:1053300008F0E1FF0CA9284609F03BF8214609F0E6
:1053400044F81B4B0A22197804460FA808F0D3FF33
:105350000FA9204609F02DF81649174C09F035F829
:105360000146204608F0D9FF0FA808F05AFF0CA804
:1053700008F057FF09A808F054FF06A808F051FFED
:1053800003A808F04EFF684608F04BFFA2682168AA
:105390000A4801F0D5F813B030BD00BF600300200B
:1053A0003E52010088030020300000201800002039
:1053B000200000204052010024050020F8020020B7
:1053C00038B5354D2B681721B3FBF1F201FB1232D2
:1053D00082B9FFF79FFB314B1B78012B05D1FFF7FB
:1053E00077F82F4B83ED000B38BD022BFCD1FFF774
:1053F00027F9F6E71F22B3FBF2F2C2EB4212934207
:1054000003D1BDE83840FFF719BE3521B3FBF1F2F7
:1054100001FB12321AB9BDE83840FFF7B9BA4FF4B0
:105420002F72B3FBF2F402FB1434002CDCD11D4BC1
:1054300018681D4B1B6818440CF0B2F914A3D3E98B
:1054400000230CF027FA0022184B0CF023FA00225C
:10545000174B0CF01FFA174BC3E90001FEF7C0FF12
:10546000FFF720FF2C60144C144BD4E900010022FC
:105470000CF03AFBC4E90001114C104BD4E90001D7
:1054800000220CF031FBC4E90001ADE7AFF300806E
:10549000894160E5D0220940BC04002020000020A2
:1054A00018000020A00400205405002000000C403B
:1054B0000000D03F60030020980400200000494015
:1054C0009004002008B5FFF77BFFFFF7FBFB024AC3
:1054D00013680133136008BDBC04002008B50368DD
:1054E000002B02DA09480BF06CFF8B4208D9490007
:1054F0008B4205D20029B6BF6FF000430160036004
:105500000068BDE8084001300BF02CBF4955010090
:1055100010B500220124416042F210710270447003
:10552000816080F88C4080F88D2080F8942010BD38
:1055300010B50446406828B163781BB940F2AC410D
:105540000BF03AFF204610BD08B4F3B507AE00F1EA
:105550000C0456F8047B05468022002120460CF0FE
:1055600082FF32463946204601960DF00FFED5F8EF
:105570009000A8B195F89430012B11D90F4908F08B
:10558000F1FDD5F89060336820465F680DF040FD6E
:10559000214602463046B847D5F8900008F0F0FDA5
:1055A00020466D680DF034FD21460246284607F07E
:1055B0000FFF02B0BDE8F04001B070479354010006
:1055C0002DE9F041074608460E4690460DF020FDB5
:1055D0007C68A04205460DD8241A44453F6828BF80
:1055E00044464DB12A46314638190CF009FF18B12E
:1055F000631E24B94FF0FF342046BDE8F0811C46FD
:10560000EFE7034653F8080B984201D00BF0CABEEF
:1056100070472DE9F0470D461C46416833B9914269
:1056200038BF4FF0FF321046BDE8F087914220D9D5
:10563000D0F8008095F9007008EB020008EB010635
:105640008A1AC3F10109A24213D319EB020210D046
:1056500039460CF085FE824658B1224629460CF0A8
:10566000CFFE10B9AAEB0802DDE70AF10100321AF9
:10567000E9E74FF0FF32D6E7F8B506464568084639
:105680000F460DF0C5FCA842024628BF2A46044634
:1056900022B1394630680CF0B3FE00B9281BF8BDC2
:1056A000012A30B404D191F90030037030BC704746
:1056B000002AFBD030BC0CF0B2BEFFFF73B505462C
:1056C0000E4619B912B10D480BF078FE941B0F2C41
:1056D000019406D9002101A8FFF700FF019B286073
:1056E000AB60224631462868FFF7DAFF019B2A6843
:1056F0006B600021D15402B070BD00BF1F55010086
:1057000038B500F10803044603600D4649B1084668
:105710000DF07EFC2A1820462946FFF7CFFF2046D1
:1057200038BD4FF0FF32F6E7F8B500F10804046029
:10573000D1E90054A242064604D923460649074847
:105740000BF042FEA918A21A9A4294BF8A18CA18EE
:10575000FFF7B4FF3046F8BD615501007C550100EC
:1057600038B54C68A242054604D92346034904488B
:105770000BF02AFEFFF7D8FF284638BD0A55010076
:105780007C5501002DE9F043324E334D337887B01C
:1057900004460F461BB10023337001232B7095F88C
:1057A0000080B8F1010F07D04FF0000416D3B8F114
:1057B000020F41D02C7011E04346002227493846A1
:1057C000FFF727FF00228146434625493846FFF769
:1057D00020FFB9F1FF3F024604D10024204607B064
:1057E000BDE8F083431CF8D04B4639466846FFF7C6
:1057F000B7FF00980CF05FFD002814DC60680368B8
:105800001B69984720B1606803685B699847F5E7B2
:105810000124347028703A6800237B606846137056
:10582000FFF7EFFEDAE70F4B043018600E4B002451
:105830001C6002232B70EEE70B4A136801331360E0
:10584000084A12689342C8D101232C7033701C4659
:10585000C4E700BF68000020A8050020AB54010089
:1058600042520100A4050020A00500202DE9F341CB
:105870000268466800F108039A4204460F4606F1A2
:10588000010504D081688D4215D9019503E00F2DE3
:1058900011D901950F2101A8FFF720FE80461EB106
:1058A00032462168FFF7FCFE2046FFF7AAFE019B67
:1058B000C4F80080A36023689F55236865600022B8
:1058C0005A5502B0BDE8F0812DE9F0430446406826
:1058D000DFF8C4800368DFF8C4905B6889B098473C
:1058E00001AA294902A8FFF70BFF09F08DFB00254B
:1058F00007462E4609F088FBA368C01B98420DD3CB
:10590000D4F8900050BB02A8FFF77BFE304609B0E8
:10591000BDE8F08301252E460125EBE7002DEFD1F0
:10592000606803681B6998470028E3D060680368D3
:105930005B69984741B202A8FFF798FF4FF0FF322A
:10594000414602A8FFF73CFE431C0246E2D149460D
:1059500002A8FFF735FE0130E2D0DCE794F894307E
:10596000012BD0D9094908F0FDFB0299D4F8900029
:1059700008F016FC2EB10649D4F8900008F010FC8F
:10598000C1E70449F8E700BFD655010059540100AA
:1059900073540100815401004C5401005154010022
:1059A000F7B5024604460D4651F8080B52F8083B7D
:1059B000814215D020609A426A686260AA6818BF66
:1059C000A668A26008BF002343B12B60AE602A68BE
:1059D000002320466B60137003B0F0BD2960F6E72A
:1059E000AC42F4D09A426E6814BFA1680F218E4277
:1059F0000BD902A840F8046DFFF770FD074620465A
:105A0000FFF7FFFD019B2760A36026B1324629689E
:105A10002068FFF745FE2368666000229A55D6E7A6
:105A20002DE9F04F0446D0F8900087B0894615461E
:105A300028B194F8943013B15E4908F093FB09F053
:105A4000E3FA4FF0000882464646DFF888B109F0D5
:105A5000DBFAA368A0EB0A00984202D2B8F1000F6B
:105A60002ED094F88C3013B1284600F015FA01239B
:105A7000D4F8900084F88C30002384F88D3048B13D
:105A800094F8943033B14C4908F06CFBD4F8900092
:105A900008F076FBD4F8900070B1484908F062FB3A
:105AA0002968D4F8900008F07BFB002E7FD0444991
:105AB000D4F8900008F074FB304607B0BDE8F08FD2
:105AC000606803681B6998470028C0D06068036855
:105AD0005B69984747B239462846FFF7C7FED4F8B6
:105AE000900028B194F8943013B1394608F03EFB89
:105AF00094F88D70D7B129462046FFF743FE07463C
:105B00000028DDD0002284F88D206B687BB3043B35
:105B100029466846FFF708FE69462846FFF740FF1A
:105B20006846FFF76EFDB8463E46C9E74FF0FF32C4
:105B300024492846FFF744FD411C02461BD06B68F0
:105B4000063B3A4629466846FFF70AFE694628465C
:105B5000FFF726FF6846FFF754FD1B494846FFF74D
:105B60008BFD20B14946284600F0AEF900B1012670
:105B70004FF0010869E715492846FFF721FD431C4E
:105B8000024602D06B68043BDBE759462846FFF724
:105B900017FD013094D06B683A46073B29466846AA
:105BA000FFF7DEFD6846FFF72CFD3E46E0E70849BB
:105BB0007EE700BFDA540100F4540100FE540100F6
:105BC00073540100E0540100E75401004C540100FB
:105BD000815401005154010008B42DE9F34309AE8A
:105BE000136856F8049B00F10C05884600215160AB
:105BF000044619701746284680220CF034FC3246C1
:105C00004946284601960DF0C1FAD4F89000B0B18B
:105C100008F0B6FA1349D4F8900008F0A3FAD4F8C3
:105C2000906033682846D3F804900DF0F1F92946C6
:105C300002463046C847D4F8900008F0A1FA28463A
:105C400066680DF0E5F929460246304607F0C0FBCC
:105C50003A4641462046FFF7E3FE02B0BDE8F04376
:105C600001B07047D054010010B50446406890B0B0
:105C700010B3237803BB0368DB69984701230AAAA2
:105C80000E49237004A8FFF73BFD60680368DB68DA
:105C9000984703AA0A490AA8FFF732FD094B009367
:105CA00004AA094B09480AA9FFF796FF0AA8FFF7BB
:105CB000A8FC04A8FFF7A5FC10B010BDD655010044
:105CC000AD540100BD5401008B630100AC05002000
:105CD00001490248FFF71CBC781A0020AC050020DF
:105CE0000148FFF725BC00BFAC05002008B50368DC
:105CF00013F8010C0CF0F3FAB0FA80F0400908BD7B
:105D000008B500780CF0EBFAB0FA80F0400908BD55
:105D1000F8B515464268521A521B04460B460AD083
:105D20004DB106684F19012A06EB010006EB070189
:105D300008D1F257F25463685D1B23686560002246
:105D40005A55F8BD0CF076FBF5E770B50368466868
:105D5000CD1A33449A42044605D1002345600B70A6
:105D60002068284470BD521A2946FFF7D1FFF7E793
:105D70002DE9F843D0E9008607464FEAA6094546D3
:105D8000B9F1000F2C4616DD2846FFF7B9FFF8B928
:105D90006C1C2046FFF7B4FFD0B9AC1C2046FFF7BF
:105DA000AFFFA8B9EC1C2046FFF7AAFF043578B96D
:105DB00009F1FF39E4E74644731B022B15D0032B8E
:105DC0000DD0012B03D12046FFF79AFF00B93446CE
:105DD000224641463846FFF7B8FFBDE8F88328461B
:105DE000FFF78EFF0028F3D101342046FFF788FF2C
:105DF0000028EDD10134E6E72DE9F341D0E9007543
:105E000006464FEAA5083D44B8F1000F2C461ADDBE
:105E100001A80195FFF76AFF18BB6C1E01A8019449
:105E2000FFF764FFE8B9AC1E01A80194FFF75EFF1D
:105E3000B8B9EC1E01A80194FFF758FF043D80B9E2
:105E400008F1FF38E0E7EB1B022B1CD0032B12D02C
:105E5000012B05D102A840F8044DFFF747FF00B918
:105E60003C46D6E9002321461A443046FFF76DFF31
:105E700002B0BDE8F08102A840F8045DFFF736FFEC
:105E80000028EED16C1E02A840F8044DFFF72EFF4B
:105E90000028E6D1013CDDE710B50446FFF7ACFF72
:105EA0002046BDE81040FFF763BFFFFF10B5436811
:105EB0009942144604D90A46024821460BF084FA56
:105EC000084610BD7C55010070B50E4686B00446EC
:105ED000FFF74EFF756831682B4600222046FFF71A
:105EE00098FBA8B90B4A29462046FFF7DFFF4FF081
:105EF000FF33024621466846FFF716FC69462046F6
:105F0000FFF74EFD6846FFF77CFB012006B070BD31
:105F10000020FBE70A55010008B50368002B02DAF0
:105F200009480BF04EFA8B4208D949008B4205D242
:105F30000029B6BF6FF00043016003600068BDE850
:105F4000084001300BF00EBA4955010073B54CF210
:105F500050330025C0E9003500F11803C0E90435CD
:105F6000012600F130030446C0E90A35C0E90255B4
:105F7000057680F8305004230096A822C0214030D6
:105F800007F072FF33460096A822C02104F15800A2
:105F900007F06AFFFF2300951A46194604F17000C6
:105FA00007F062FF204602B070BD10B504466830AD
:105FB000FFF727FB04F15000FFF723FB04F1380043
:105FC000FFF71FFB04F11800FFF71BFB2046FFF74C
:105FD00018FB204610BDFFFF73B505460E4619B9E4
:105FE00012B10D480BF0EAF9941B0F2C019406D95D
:105FF000002101A8FFF790FF019B2860AB602246BB
:1060000031462868FFF74CFB019B2A686B60002132
:10601000D15402B070BD00BF1F55010038B500F16A
:106020000803044603600D4649B108460CF0F0FF32
:106030002A1820462946FFF7CFFF204638BD4FF0EB
:10604000FF32F6E72DE9F0434FF4E1318FB004461B
:106050003548364F364EDFF8F480FFF705FE3549F8
:1060600002A8FFF7DBFF002300931A4619462046DB
:1060700007F0FAFE3225642008F082FF394608A8AE
:10608000FFF7CCFF0096434602AA08A92648FFF76F
:10609000A3FD814608A8FFF7B4FAB9F1000F1DD09F
:1060A00002980CF008F901282DD1234908A8FFF720
:1060B000B5FF00230193214B009302AA204B1A48FD
:1060C00008A9FFF789FD814608A8FFF79AFAB9F1F8
:1060D000000F03D00299204607F0E8FF002319467D
:1060E00000931A4608A807F0BFFE08A9204607F04B
:1060F000EAFF08B1013DBED102A8FFF782FA2046AF
:106100000FB0BDE8F08302980CF0D5F80228E5D175
:106110000C4908A8FFF782FF0B4B034802AA08A905
:10612000FFF75AFDCFE700BFAC050020D7550100AF
:10613000E2550100D6550100835601008B5601003F
:10614000095601006A560100755601008B63010073
:1061500070B590B00C4604A81E4915461E46FFF7C0
:106160005DFF4FF4E1311C48FFF77EFD1B490AA893
:10617000FFF754FF02230193194B009304AA194B14
:1061800015480AA9FFF728FD0AA8FFF73AFA1649A9
:106190000AA8FFF743FF154B01940093CDE902567F
:1061A000134B0D4804AA0AA9FFF716FD04460AA8D6
:1061B000FFF727FA24B104980CF07DF8012806D0E7
:1061C000092404A8FFF71DFA204610B070BD07246B
:1061D000F7E700BFD6550100AC050020D7550100F8
:1061E00010560100095601003F5601005A560100A1
:1061F0004D5601000123FFF7ABBFFFFF0148FFF73A
:10620000A5BE00BF4406002070B50C4C04F1280068
:10621000FFF7F7F904F11000FFF7F3F9D4E901569D
:10622000AE4204D02846FFF7C0FE8035F8E760682C
:1062300018B1BDE870400BF0B5B870BD4406002041
:10624000002070470069013018BF0120704708B571
:1062500003685B6B984780F00100C0B208BD13B5BE
:1062600002AB026803F8011D546819460122A047D9
:1062700002B010BD07B5036801225B6A0DF107018A
:10628000984701280CBF9DF807004FF0FF3003B07E
:106290005DF804FB00690B69C31A58425841704706
:1062A00070470020704740F20C41C0680BF084B882
:1062B00010B5102104460BF07FF8204610BD08B53C
:1062C000FFF7F6FF08BD7FB503680446164601A830
:1062D0001D6A07F02BFE324601992046A847044666
:1062E00001A807F09EFF204604B070BD036810B5FA
:1062F00004469B689847A368013BA3602BB92368B9
:106300002046DB68BDE81040184710BD00F10803C7
:1063100070B5044603600E46B1B108460CF078FE35
:106320000F28054604D901300BF01CF8A560206049
:10633000012D20680BD196F9003003702368656049
:1063400000225A55204670BD04480BF037F8002D46
:10635000F4D02A4631460CF062F8EFE71F550100F1
:10636000036813B962B6BFF36F8F704713B5EFF3CD
:10637000108300930123019372B6019B5A1E019270
:1063800033B104686846FFF7EBFF204602B010BD4A
:106390006846FFF7E5FFF8E713B50446EFF310830F
:1063A00000930123019372B6019B5A1E0192684625
:1063B00033B1FFF7D5FF601CC0F3090002B010BD78
:1063C000FFF7CEFFFAE7FFFF0023C0E905334FF4E4
:1063D0007A72C0E90132C3610B6903618B69836121
:1063E000CB69044A02601BB15A6801325A60C3612A
:1063F000704700BF4058010010B50446006828B13E
:106400004368013B43600BB9FFF770FF204610BDA6
:1064100010B5044B044640F81C3BFFF7EDFF204647
:1064200010BD00BF4058010030B5036901338FB083
:10643000044620D1114902A8FFF768FF4FF4E1316B
:106440000F48FFF711FC0F4908A8FFF75FFF0E4B3D
:10645000009302AA0D4B0A4808A9FFF7BDFB0546A9
:1064600008A8FFF7CEF81DB102980BF024FF2061B9
:1064700002A8FFF7C6F80FB030BD00BFD655010027
:10648000AC05002019580100275801008B6301005A
:1064900070B5044692B00D461646FFF7C5FF236956
:1064A000002B24DB1E4906A8FFF730FF4FF4E13133
:1064B0001C48FFF7D9FB6369DBB11B490CA8FFF748
:1064C00025FF63690295CDE9036323690193174BA7
:1064D000009306AA164B13480CA9FFF77DFB044650
:1064E0000CA8FFF78EF806A8A4B9FFF78AF80020D9
:1064F00013E010490CA8FFF709FFCDE90256236904
:1065000001930D4B009306AA0C4B06480CA9FFF70C
:1065100063FBE4E7FFF775F8012012B070BD00BF20
:10652000D6550100AC0500205857010078570100EE
:10653000685701008A570100AB5701009E570100C0
:1065400070B50369002B90B005460E46144629DB52
:10655000154904A8FFF7DAFE4FF4E1311348FFF7BD
:1065600083FB13490AA8FFF7D1FE02942B6901931C
:10657000104B009304AA104B0C480AA9FEF7E4FF45
:106580000AA8FFF73EF8224631460848FFF79CF973
:10659000054604A825B1FFF734F8204610B070BDB9
:1065A000FFF72FF80024F8E7D6550100AC050020CE
:1065B00032570100495701003F57010030B50369C8
:1065C000002B8FB0054634DB84695CB104F5816033
:1065D000FFF7CCFE002808DDA86900F58160FFF711
:1065E000C5FE044620460FB030BD154902A8FFF78E
:1065F0008DFE4FF4E1311348FFF736FB124908A82E
:10660000FFF784FE2B690193104B009302AA104BF5
:106610000C4808A9FFF7E0FA044608A8FEF7F1FFC6
:106620004CB102980BF047FE041E04DA02A8FEF7F4
:10663000E8FF0024D6E702A8FEF7E3FFD2E700BF99
:10664000D6550100AC050020D9570100E5570100DF
:10665000095601002DE9F04F0369002B93B007465E
:10666000C0F288808369002B00F08480434906A82B
:10667000FFF74CFEBA69EFF310830C9301230D93DF
:1066800072B60D9B591E0D911BB1D2F80854C5F579
:1066900080653B4E0CA8FFF763FE002430464FF4A4
:1066A000E1314FF00108FFF7DFFA013D86F88C4039
:1066B00086F88D8033490CA8FFF728FE02953B69C8
:1066C0000193314B00933046304B06AA0CA9FFF7DB
:1066D00083FA06460CA8FEF794FF002E3FD0079BD6
:1066E000002B45D0C246AC4239D2079B9C4236D2E1
:1066F000069BBE6913F804B0EFF31083CDE90438AC
:1067000072B6059B5A1E059223B3EFF31083CDE9B1
:106710000C3A72B60D9B5A1E0D923BB1D6F8083456
:10672000A3F58063D3F1000949EB03090CA8FFF737
:1067300017FEB9F1000FE4D1D6F8000406F800B056
:10674000FFF72AFED6F80834C6F800040133C6F86D
:106750000834D6E704A8FFF703FE0134C3E74FF07F
:10676000FF3406A8FEF74DFF204613B0BDE8F08FBA
:106770001C46F6E74FF0FF34F6E700BFD6550100A0
:10678000AC050020FE5601000E5701003F570100E6
:1067900038B5044680690D4650B100F58160FFF7B9
:1067A000E5FDA84204D22046BDE83840FFF752BFBD
:1067B00038BD2DE9F74F07468A4611461646FFF7C2
:1067C000E7FF3B69002B33DBBC6994B34FF0010B4F
:1067D00056440024D946B2452BD0BBF1000F28D037
:1067E000BD69D5F808344BB995F800809B460AF886
:1067F000018BBBF1000FEED00134ECE7EFF3108317
:10680000CDE9003972B6019B5A1E019263B1D5F8E9
:10681000040415F80080FFF7BFFDD5F80834C5F86B
:106820000404013BC5F808346846FFF799FDDEE72C
:106830000024204603B0BDE8F08FFFFF10B50369C8
:10684000002B8EB0044628DB154902A8FFF75EFD39
:106850004FF4E1311348FFF707FA134908A8FFF78F
:1068600055FD23690193114B009302AA104B0D486B
:1068700008A9FFF7B1F9044608A8FEF7C2FE4CB11B
:1068800002980BF018FD044602A8FEF7BAFE204657
:106890000EB010BD4FF0FF34F6E74FF0FF34F6E7CF
:1068A000D6550100AC050020D0560100D756010096
:1068B0000956010010B50369002B8EB004461CDB9D
:1068C0000F4902A8FFF722FD4FF4E1310D48FFF711
:1068D000CBF90D4908A8FFF719FD236901930B4B6C
:1068E000009302AA0A4B074808A9FFF775F908A800
:1068F000FEF787FE02A8FEF784FE0EB010BD00BFB3
:10690000D6550100AC050020205701002857010092
:106910000956010010B50369002B8EB004461FDB39
:10692000104902A8FFF7F2FC4FF4E1310E48FFF7DF
:106930009BF90E4908A8FFF7E9FC236901930C4B6A
:10694000009302AA0B4B084808A9FFF745F908A8CD
:10695000FEF757FE4FF0FF33236102A8FEF751FE0A
:106960000EB010BDD6550100AC050020E056010068
:10697000EE5601000956010010B503688EB01B6980
:1069800004469847002828DC2369002B27DB15499B
:1069900002A8FFF7BBFC4FF4E1311348FFF764F99D
:1069A000124908A8FFF7B2FC23690193104B00932A
:1069B00002AA104B0C4808A9FFF70EF9044608A8D4
:1069C000FEF71FFE1CB102980BF075FCC4B202A8C2
:1069D000FEF717FE20460EB010BD0124FAE7002492
:1069E000F8E700BFD6550100AC050020F3570100C1
:1069F000055801000956010030B50C4695B0054612
:106A000002A807F029FA2369002B33DB1D4908A8E7
:106A1000FFF77CFC4FF4E1311B48FFF725F91B49D8
:106A20000EA8FFF773FC23690193194B009308AA82
:106A3000184B15480EA9FFF7CFF804460EA8FEF72D
:106A4000E0FDA4B108992C4602A807F02FFB124BD9
:106A500044F8043B03AB0FCB84E80F009DF81C30D7
:106A60002B7508A8FEF7CDFD284615B030BD08A847
:106A7000FEF7C7FD002300931A461946284607F083
:106A8000F3F9F1E7D6550100AC050020C15701002C
:106A9000CC57010009560100805C010010B5036964
:106AA000002B8EB0044625DB134902A8FFF72EFC0D
:106AB0004FF4E1311148FFF7D7F8114908A8FFF763
:106AC00025FC236901930F4B009302AA0E4B0B4840
:106AD00008A9FFF781F8044608A8FEF792FD1CB14B
:106AE00002980BF0E8FB84B202A8FEF78AFD20466C
:106AF0000EB010BD0024FAE7D6550100AC05002009
:106B0000B4560100C15601000956010013B5002317
:106B10000446D1E90002C1E900332368206002A8DD
:106B20000093636840F8043D6260FFF765FC20460F
:106B300002B010BDF7B54FF47A730025C0E90153D8
:106B4000184B036001274FF0FF33C0E904350446BA
:106B5000C0E9065580F8207040F20C400AF002FCB3
:106B60004FF48062064629460BF07DFC1020C6F8E3
:106B70000054C6F80454C6F80854CDE900650AF07C
:106B8000F1FB094B0360C0E90177C66001906946DB
:106B900004F11800FFF7BAFF01A8FFF72DFC20460B
:106BA00003B0F0BD40580100A056010073B54FF48A
:106BB0007A730025C0E90153174B03600446C0E90E
:106BC0000415C0E9065580F8205040F20C400AF048
:106BD000C9FB4FF48062064629460BF044FC1020A6
:106BE000C6F80054C6F80454C6F80854CDE9006548
:106BF0000AF0B8FB0123C0E90133084B0360C6600B
:106C00000190694604F11800FFF780FF01A8FFF723
:106C1000F3FB204602B070BD40580100A0560100B1
:106C2000704708B503685B69984780F00100C0B2FF
:106C300008BD13B502AB026803F8011D546819467C
:106C40000122A04702B010BD80688B68C31A584269
:106C50005841704710B500234360064B03604FF066
:106C6000FF330446C0E902311030FFF763FF2046CE
:106C700010BD00BFF05801002DE9F0418B680133D1
:106C800092B007460C4666D009AA354903A8FEF71C
:106C900037FD4FF4E1313348FEF7E6FF02AA3249EF
:106CA00009A8FEF72DFDA3680193304B009303AABA
:106CB0002F4B2C4809A9FEF78FFF054609A8FEF7C0
:106CC000A0FC002D44D003980BF0F5FA236A834210
:106CD000014604F110080AD141463846FFF774FB1B
:106CE00003A8FEF78EFC384612B0BDE8F08109A873
:106CF000FFF75CFF0A9B63610B9BA3610C9BE36145
:106D0000109E0D9BE56A23620E9B6362AE420F9B51
:106D1000A36215D016B17368013373607DB16B68DF
:106D2000013B6B605BB92B6828469B689847AB6852
:106D3000013BAB601BB92B682846DB689847E662CD
:106D40009DF8443084F8303009A8FFF761FBC3E7B1
:106D500003A8FEF756FC3846FFF7ECFEC3E700BF7A
:106D6000D6550100AC050020C0580100D2580100E2
:106D70000956010030B58368013391B004460D46D1
:106D800023D10AAA124904A8FEF7BAFC4FF4E13154
:106D90001048FEF769FF03AA0F490AA8FEF7B0FCE6
:106DA0000E4B0195009304AA0D4B0A480AA9FEF761
:106DB00013FF05460AA8FEF724FC1DB104980BF04A
:106DC0007AFAA06004A8FEF71CFC11B030BD00BF29
:106DD000D6550100AC0500208458010092580100EE
:106DE00009560100C168FFF7C5BFFFFF70B5836892
:106DF000002B92B005460E4614462BDB0CAA164912
:106E000006A8FEF77DFC4FF4E1311448FEF72CFF95
:106E100005AA13490CA8FEF773FC0294AB68019312
:106E2000104B009306AA104B0C480CA9FEF78CFBE4
:106E30000CA8FEF7E6FB224631460848FEF744FD63
:106E4000054606A825B1FEF7DCFB204612B070BD52
:106E5000FEF7D7FB0024F8E7D6550100AC0500206B
:106E6000A2580100B05801003F57010010B5094970
:106E7000CB7800240533DBB22246E0B2834204D84B
:106E8000C85C831A5842584110BD085D0244D2B212
:106E90000134F2E7D1060020154AB2F90030032B85
:106EA0001AD8DFE803F002081114552807D1114958
:106EB0000870013302E0AA2803D0002313800020C9
:106EC00070470C494870F4E70A498870F1E779285F
:106ED000F3D80849C870ECE70649C854C9780531A9
:106EE0008B42E6D104490B8000231380FFF7BEBF1D
:106EF00052070020D1060020CE060020074B1B7948
:106F0000834209D1064B05221A80064A00231370DA
:106F1000054A01201370704700207047D1060020F9
:106F2000CC060020D00600205107002013B50F4AE0
:106F30000F4CB2F90020B4F900309A4202DD0D4A3C
:106F400012782AB10C4B01221A70002002B010BD39
:106F50000A49022219440DF106000BF060FA238859
:106F6000BDF9060002332380F0E700BFCE06002003
:106F7000CC060020D006002051070020D1060020BA
:106F8000074B1A7812B1002018707047054BB3F9FF
:106F90000000054BB3F90030C31A584258417047FE
:106FA00051070020CC060020CE060020074B00220F
:106FB0001A70074B55221A70AA225A7011229A7021
:106FC000044A18710521118018467047D407002023
:106FD00054070020D60700200D4B187830B5A0B913
:106FE0000C4CB4F900307E2B09DC0B4A591FD170D0
:106FF0000146834204DC581C00B2D154208030BDCD
:10700000155C2944C9B20130F3E70020F7E700BF5F
:10701000D4070020D607002054070020430901228E
:1070200000F01F0002FA00F02033044A42F8230067
:10703000BFF34F8FBFF36F8F704700BF00E100E0D9
:1070400003681B78092B0BD80A4A52F823303BB14E
:107050001A7F2AB10279012A03D1032283F82E2054
:107060007047022A01D10122F8E7032AF8D102224F
:10707000F4E700BF9010002003681B78022B0BD8A8
:107080000A4A52F823303BB11A7F2AB10279012A09
:1070900003D1032283F82E207047022A01D1012256
:1070A000F8E7032AF8D10222F4E700BF68100020B5
:1070B00010B5037F0446B3B1437FBBB1D0F81C3198
:1070C0008BB13C30984794F98B00FFF7A7FF94F9F8
:1070D0008A00FFF7A3FF94F98C00FFF79FFF94F954
:1070E0008D00FFF79BFF0023237710BDD0F83031D0
:1070F000002BF8D0A430984794F9E500FFF78EFFF5
:1071000094F9E400FFF78AFF94F9E600FFF786FFA1
:1071100094F9E700E5E7036801211B6B184710B4F9
:1071200003689C6B0123A4465DF8044B604707B5D8
:10713000037F8DF8071063B1437FC3B190F82C3003
:107140009BB1D0F83834FE2B07D9012380F82D30BD
:107150004360002003B05DF804FBC2189DF80710DF
:1071600082F833120133C0F838340120F2E7D0F846
:107170002831002BF9D001220DF10701A4309847E6
:10718000F3E7C0F840147047C0F84414704790F813
:107190003C34D0F83404C01A704790F83C34D0F82E
:1071A00034148B4202463FBFC118013391F83203B9
:1071B00082F83C3428BF4FF0FF30704790F83C34E1
:1071C000D0F8342493423ABFC01890F832034FF0FD
:1071D000FF30704790F82E30022B03D090F82E30FD
:1071E000032BF7D17047F8B5037F04460D461646CA
:1071F00093B1437F4BB18F18BD420BD0236815F874
:10720000011B1B6820469847F6E7D0F828310BB1E0
:10721000A43098473046F8BD1E46FBE738B5037FDB
:1072200004460D4633B1437F23B1D0F81C310BB176
:107230003C309847637FDBB1294BC4F880501A6A11
:1072400094F824305BB327490F23002284F83330AD
:107250008D424FF0010384F8312084F8343015D189
:107260000E2384F83030FF2384F8323084F82F2046
:10727000237F53B1D4F800313BB104F17C0104F118
:107280003C00984708B10023237738BD022284F8D8
:107290003020CC2284F8322084F82F30E8E7124BDB
:1072A0001B68C2F302618B400E49C2F302328D4269
:1072B00023FA02F30D4AB3FBF2F303F1FF3208D0D5
:1072C0000B4B9D42D4D141F20F03238784F8372022
:1072D000CEE741F61A320133228784F83730C7E708
:1072E00000E00140A08601009C280020006CDC0228
:1072F000801A060017B4D0F8243101914BB101690E
:10730000019A00F59A742144A43003B05DF8044B4F
:107310001847012003B05DF8044B70477FB5436800
:10732000019303681A78022A46D81A783B4B53F81F
:107330002240002C40D0237F002B3DD0037A012B2C
:1073400003D1032384F82E3036E0022B1DD1012314
:1073500084F82E30019E04F59A753246294604F2CF
:1073600032300BF05CF80021C4F83464216184F8F9
:107370003C14FF2228460BF076F8D4F84034DBB1F9
:10738000019804B0BDE870401847032B01D10223D7
:10739000D8E7042B12D184F82E302369019A1344C4
:1073A000FE2B2DD801212046FFF7A4FF0290029B5F
:1073B00013B923690133236104B070BD052B09D1D2
:1073C00084F82E30D4F84434002BF5D004B0BDE856
:1073D00070401847062B18D1042384F82E302369F7
:1073E000019A1344FE2B0BD801992046FFF782FF28
:1073F0000390039B002BDFD1019A23691344DAE742
:1074000000212046FFF776FFD6E7072B01D10523A1
:10741000D6E7082BD0D1062394E700BF68100020E0
:10742000F0B580F825309DF8143080F83D34002503
:10743000DF234FF47A76C0E905121E4F0760012260
:10744000C0E9015605610577427780F824508662CD
:1074500080F82C5080F82D50C0F80051C0F804512D
:10746000C0F80851C0F80C51C0F81051C0F81451C0
:10747000C0F81851C0F81C51C0F82051C0F8245170
:10748000C0F82851C0F82C51C0F83051C0F834541D
:10749000C0F8385480F88A3080F88B3080F88C300F
:1074A00080F88D3080F8E43080F8E53080F8E63000
:1074B000F0BD00BF145901002DE9FF414369002BC5
:1074C000044603DA002004B0BDE8F0818269002A96
:1074D000F8DB8B42F6DA8A42F4DAD9B20222684645
:1074E00002AE09F0CFFE30460322217E09F0CAFE2B
:1074F00000203DF8101000258B1109B336F8152037
:10750000F2B183EA9217FF061AD181EA0207FF0758
:1075100016D403F01F0312F00100236217D1022BCF
:10752000D0DCA3691D4D84F8240035F833101C4AC3
:107530001C4801F05BFF6369194A35F8331028E0F5
:107540000135032DD9D101300328D2D1BAE7092B57
:10755000B8DC12F4F04FA369134F104E11484FF0EE
:10756000010584F824500CBF4FF080624FF0A062F8
:107570003A4311F4F04F36F833100CBF4FF08068E7
:107580004FF0A06801F032FF636936F8331048EA23
:107590000702044801F02AFF012094E75C5A010029
:1075A00010040107902700201000010073B5012589
:1075B0000577044600F045FA01462046FFF77CFFB8
:1075C000237F18402077002800F09280637F002BF3
:1075D00000F0898023686C499B6A2046984794F89C
:1075E0002430226A002B57D0684B43F82240684B66
:1075F000C4F80031674BC4F80431674BC4F8083154
:10760000664BC4F80C31664BC4F81031654BC4F8B6
:107610001431654BC4F81831644BC4F81C3104F1C3
:107620002F03C4F8A030624BC4F89830236A564A3E
:1076300084F87C300023C4E9202394F82520C4E991
:1076400024339A4204F17C030CBF01220222C4F8C5
:107650009C300C2384F8882084F88930637F04F1FF
:107660007C0604F1D80500960195002B7CD094F897
:107670002430002B73D004F075FE6A46062105F015
:107680006BF8237F1840D4F800312077314604F19D
:107690003C00984750BB2BE0464984F8355041F8F0
:1076A0002240454AC4F80021444AC4F80421444A0F
:1076B000C4F80821434AC4F80C21434AC4F81021F5
:1076C000424AC4F81421424AC4F81821414AC4F875
:1076D0001C2104F13502C4F8A0203F4AC4F89820C8
:1076E00084F83630A2E794F824301BB100232377C6
:1076F00002B070BD2F4A216A84F8E33042F821407D
:10770000364AC4F82021364AC4F82421354AC4F840
:107710002821354AC4F82C21344AC4F83021226A81
:1077200084F8D820184AC4F8DC20B4F8F820A4F86B
:10773000E02094F8252084F8EA30002A0CBF0122CA
:10774000022284F8E22040F60C42A4F8E820284AFD
:10775000C4F8EC2004F1D802C4E93C237EE704F02D
:1077600001FE6A4605218AE704F0FCFD07216A460E
:1077700004F0F2FF237F18402077D4F82031294607
:1077800004F1A40085E700BFA0860100901000204E
:10779000418D0000DD8C0000118D0000298B000060
:1077A000518B00005D8B0000718B0000898B000005
:1077B0004170000068100020259F0000319D0000EE
:1077C000659D000025A00000E59B0000F19B0000E6
:1077D000059C000031A0000079700000C5950000F4
:1077E00095940000C9940000FD94000011950000DC
:1077F0001D73000010B5036804465B6A98470123B7
:1078000063772046BDE81040FFF7D0BE38B5036867
:1078100004465B6A0D46984700236377A4F8F85046
:107820002046BDE83840FFF7C1BEFFF7EFBF2DE9A6
:10783000F0471E46037F044692463BB3D0F8103112
:1078400063B300F13C0990F8882048469847054604
:1078500068B9D4F8047157B19DF8243084F82E002B
:1078600083F00103324651464846B847054607F0C3
:10787000CBFB804607F0C8FB089BA0EB08009842B2
:1078800004D294F82E300BB9002DF3D094F82E309A
:10789000012B0CBF30460020BDE8F0870125E6E74C
:1078A0002DE9F0479A46037F089F04469146002B36
:1078B00039D0D0F8103123B300F13C0890F888207B
:1078C00040469847054668B9D4F8086156B19DF816
:1078D000243084F82E0083F0010352464946404686
:1078E000B047054607F090FB064607F08DFB801B6E
:1078F000874208D994F82E302BB9002DF5D00420FA
:107900000FE00125EEE7002DF9D194F82D3063B991
:1079100094F82E305BB194F82E30032B14BF002066
:107920000220BDE8F0870620FBE70120F9E70520EB
:10793000F7E737B590F8FC5090F838340191826A37
:107940000092294600F233220446FFF7A9FF0023E4
:1079500084F82C3003B030BD037F4BB100230122EB
:1079600080F82D30C0F8FC1080F82C20C0F8383496
:107970007047FFF7F1BFFFF7EFBF2DE9F341164660
:10798000027F9DF8205004460F469846002A31D0C9
:10799000B5B10368DB6A9847032D28BF0325013D75
:1079A000EDB2FF2D236807D0E90028FA01F11B682A
:1079B000C9B220469847F2E71B6B00212046984742
:1079C0009DF82430FF2E28BFFF26003318BF012367
:1079D0000193A36A009304F23232F3B2394620468F
:1079E000FFF725FF0023C4F8340484F83C3402B0C8
:1079F000BDE8F0811046FAE707B501930023009334
:107A0000FFF7BBFF03B05DF804FBFFFF13B50024D5
:107A100023460094122213210548FFF701FD00942C
:107A200023461B221A210348FFF7FAFC02B010BDBF
:107A3000D8070020200C002008B507F0B5F9002079
:107A400008BD27207047704737B5FFF7FCFF0121BD
:107A50000D2007F0D5F800210D2007F0E9F8684661
:107A60000722032109F00EFCBDF800301C4CC3F3C3
:107A700084130125684607220521E55409F002FC1C
:107A8000BDF80030C3F38413684607220621E5548D
:107A900009F0F8FBBDF80030C3F3841368460722F1
:107AA0000921E55409F0EEFBBDF80030C3F384135F
:107AB000684607220A21E55409F0E4FBBDF80030CE
:107AC000C3F3841307220B216846E55409F0DAFB5F
:107AD000BDF80030C3F38413E55403B030BD00BFDC
:107AE000AA100020F0B44B788E780A78CD780F4C2D
:107AF0001B013603A75C0C794A7906F440562D0227
:107B0000DBB205F44071334307F003050B43D201A8
:107B1000E101074C2B43C9B2064DA171D2B263807B
:107B2000227205600020F0BC704700BF945B01002A
:107B30000042044054445700024B0020FF221870BA
:107B40001A7070470042044070B5836A84B00446DE
:107B50000E46ABB193E8070001AD85E80700616808
:107B6000E26A097819601E719A601846636A98473C
:107B7000A36A1BB195E8070083E8070004B070BD55
:107B800001AD2B46EBE700BF30B4EFF30383103BAE
:107B90005BB203F1C0011C4A1C4C52F821006FF388
:107BA000104042F8210054F82330D3E906218A42DC
:107BB00012D018699C6868B193F820500F2D18D91D
:107BC000616840F82210D96901328A429A6103D073
:107BD00030BC70476068F7E75B680D4993F9033084
:107BE000012203F01F005B09824041F8232030BCD2
:107BF0007047072D03D821798154D969E4E7A48817
:107C000020F81240E0E700BF006000401428002088
:107C100000E100E0F0B4EFF30383103B5BB203F14B
:107C2000C0022849284C51F822006FF3104041F857
:107C3000220054F823305C685A69206ADD6910B16B
:107C4000407801280FD0AA420BD0D3E9020129B114
:107C500093F820400F2C16D951F8221041600132C0
:107C60005A61F0BC70476E1E964214D021690029FB
:107C7000E9D094F90310154C01F01F064909B040F2
:107C800044F82100DFE7072C95BF895C31F812101A
:107C900001718180E3E794F9036006F1C00774097C
:107CA000A40051F827C004F1604404F5614406F0D3
:107CB0001F06B0406FF3104C41F827C0C4F8800194
:107CC0002060C0E7006000401428002000E100E0D0
:107CD00070B4EFF30383103B5BB2304A304C03F1D6
:107CE000C00152F821006FF3104042F8210054F80F
:107CF00023008268D278920705D54268527A012A19
:107D000001D070BC7047590920310122254C03F085
:107D10001F0302FA03F344F82130BFF34F8FBFF380
:107D20006F8F436893F90230002B2EDB5909203105
:107D300003F01F0302FA03F344F82130BFF34F8F1F
:107D4000BFF36F8FD0E90114237891F902106FF31C
:107D500086130029237014DB01F1C0050F4C4B0979
:107D60009B0054F8256003F1604303F5614301F083
:107D70001F018A406FF3104644F82560C3F8802144
:107D80001A60012170BCFFF7DFBE826813786FF3C1
:107D900086131370012170BCFFF7D6BE006000404F
:107DA0001428002000E100E0F8B5EFF30384103C54
:107DB000314B64B253F82460736893F90230002B9E
:107DC00042DB5A09203201202C4903F01F0300FA3C
:107DD00003F341F82230BFF34F8FBFF36F8FD6E923
:107DE0000112137891F902106FF3861300291370B2
:107DF00015DB01F1C007224D4B099B0055F827C048
:107E000003F1604303F5614301F01F0100FA01F142
:107E10006FF3104C45F827C0C3F880111960D5786E
:107E20000023EDB2D3702A0721D4EB0712D405F05A
:107E30001405142D16D0C034114B53F824206FF3C1
:107E4000104243F82420F8BDB26813786FF386130C
:107E50001370E4E70421304605F01405FFF774FEC3
:107E6000142DE8D130460821FFF76EFEE3E7052127
:107E70003046FFF769FED8E71428002000E100E053
:107E80000060004070B50D46016A8B7803F07B03FB
:107E90008B700378044623B3C0E90352E369186981
:107EA00088B122697AB1A378816800688E68E16838
:107EB00003F00303013B22FA03F300229BB2226189
:107EC000B04768B9216A8B7843F080038B702078C3
:107ED00078B9A37803F00303022B0CD02B78CB7076
:107EE00070BD837803F00303D21A2B44C0E9033238
:107EF000D4E7002070BD2B8843F47E43CB8170BD56
:107F0000036A9A7870B4D2B2054602F00B004E783C
:107F10000C7898700020E8608D785D701D7866F3AD
:107F200001051D70C9789974DD7904F05C0105F0D4
:107F3000A304214302F07B02D97170BC9A70704790
:107F4000F0B5846A85B006468C461746BCB194E805
:107F50000F006D4685E80F00F269F36A127822601F
:107F6000E360C4F808C027712046736A9847B46A72
:107F70001CB195E80F0084E80F0005B0F0BD6D4618
:107F80002C46E9E770B5D0E9072592F905202F497D
:107F9000044650090123203002F01F02002603FA94
:107FA00002F26660AE7041F82020BFF34F8FBFF33E
:107FB0006F8FE26992F90B205009203002F01F0206
:107FC00003FA02F241F82020BFF34F8FBFF36F8F07
:107FD000E26992F907205009203002F01F0203FAEB
:107FE00002F241F82020BFF34F8FBFF36F8FE26999
:107FF00092F909205009203002F01F02934041F805
:108000002030BFF34F8FBFF36F8FE369DA6822B17F
:10801000936810681B6A9847E3691B691BB19A68EB
:108020001868136A9847EFF31082012383F31088CE
:10803000E069074900784C68C0F11F008340234382
:108040004B604B6882F31088002070BD00E100E0B7
:10805000FC6F04402DE9F8430D4609780323CB401B
:1080600013F0010301F1007218BF1023037002F531
:108070006052837852010121026204466A78C56128
:1080800061F30103D5E9051061620021A370C4E921
:108090000A1022B9DBB2022262F30103A37095F940
:1080A0000B60674BA87A7209203206F01F07012186
:1080B00001FA07F743F82270BFF34F8FBFF36F8FBA
:1080C000604A614F06F1C00C03EB060852F82CE041
:1080D00000016FF3104E42F82CE0C0B288F80003A4
:1080E00095F9050047F826404FEA501C0CF1200C8A
:1080F00000F01F0E01FA0EFE2E7943F82CE0BFF3BC
:108100004F8FBFF36F8F00F1C00C03EB000852F8E4
:108110002CE036016FF3104E42F82CE0F6B288F8EE
:10812000006395F9076047F820404FEA561C0CF1B0
:10813000200C06F01F0E01FA0EFEA87943F82CE081
:10814000BFF34F8FBFF36F8F06F1C00C03EB060830
:1081500052F82CE000016FF3104E42F82CE0C0B250
:1081600088F8000395F9090047F826404FEA501CAB
:1081700000F01F060CF1200CB1402E7A43F82C10B1
:10818000BFF34F8FBFF36F8F00F1C00C310152F876
:108190002C600344C9B26FF3104642F82C6083F898
:1081A000001347F82040EB68F3B15968266A0A6863
:1081B000E7694FF4002C701DC2E900C094F800C0BC
:1081C000BCF1000F01D0113656607E7836B9D678F2
:1081D00001270B3067F305165060D6709A6818684F
:1081E00013689847064640BB2B69002B2ED0596870
:1081F000266A0A68E7694FF0006CF01CC2F800C0FC
:10820000906094F800C0BCF1000F01D00F3696606A
:108210007E7836B9D67801270B3067F30516906063
:10822000D6709A68186813689847064670B1EB686C
:108230001BB19A681868136A98473046BDE8F883FE
:1082400000E100E00060004014280020EFF31082FD
:10825000012383F310889B492E784868C6F11F06D6
:10826000B34020EA03034B604B6882F31088236A13
:1082700000229A701A715A729A72DA725A832978A5
:1082800040F20722CA40D20744BF4022DA740622D5
:108290001A772278E16972B1C868013A002800F0C3
:1082A00008810120120392B2024342F00600988234
:1082B000988A8242FCD1EE786A78A878F600032A80
:1082C00046EA001600F0E280002A0CBF4FF0E20EF2
:1082D0004FF0F20EED696A7895F802C02F7B28788E
:1082E000F6B2D2014FEA4C1C1E700CF0200C7F003D
:1082F000D2B2861E07F0020742EA0C02012E4FF0AE
:10830000000C83F806E05F7383F808C040F2C88071
:108310006E68D2B2DA71B2785A701F7896F801C0DE
:1083200032786CF301071F70F6789E74DE7902F0E4
:108330005C0206F0A3063243DA7191F905C0624E81
:108340000027C4E90377C4E905770CF1C00200F007
:10835000030056F822E067F3104E46F822E04FEA99
:108360005C12920091F90B8002F1604202F56142C9
:108370000CF01F0E4FF0010C08F1C0090CFA0EFEB4
:10838000C2F880E1C2F800E056F8292067F31042F5
:1083900046F829204FEA5812920091F907E002F1BD
:1083A000604202F5614208F01F080EF1C0090CFAA4
:1083B00008F8C2F88081C2F8008056F8292067F3D7
:1083C000104246F829204FEA5E12920091F90910F6
:1083D00002F1604202F561420EF01F0E01F1C00889
:1083E0000CFA0EFEC2F880E1C2F800E056F828E070
:1083F00067F3104E46F828E04A0992006D8902F1B1
:10840000604202F5614201F01F014FF6FF760CFA5F
:1084100001F140F07000B542C2F88011116098700F
:1084200025812DD0EFF310818CF31088274A136833
:108430001BB927484025C370C5701368013313600A
:1084400081F31088218923480B0A1B0153FA81F11B
:1084500050F8213023F0011323F4404343F0040388
:1084600040F82130EFF31081012383F31088136863
:1084700013B11368013B1360136863B181F3108873
:10848000154B636000263046BDE8F88346F0400691
:108490004FF0F20E1EE70E4A8020D370D070EDE749
:1084A000022808BF42F01002FF26D2B25E70DA71D5
:1084B00043E7C869007A1040000200F4706040F0A1
:1084C0000100EFE6FC6F044000600040102800202F
:1084D000000D044000080440554943532DE9F04F76
:1084E0009B46FF258024634B8BF802508BF803409A
:1084F000614C1B6A2668614C9BF80050C3F302670D
:108500008BB0BE40C3F3023326FA03F30091099205
:10851000A3FB0412CDE9021200266FF38205069335
:108520001B0ACDE907068BF80050204605930196FB
:10853000099B834276DA9DF8203004930027504B44
:10854000049ADD5DC5F34009C5F3800549EA0503DA
:1085500093425FD14B4B33F81780079B03FB08F81E
:10856000069BB3FBF8F4661EFF2E53D804FB08F4F9
:10857000824621E0059AB4FBF2F27F2A02FB03F364
:1085800054D9002BB8BFFF331B12A3F5C333A03B54
:10859000002BB8BF5B429A454ADC9BF800309DF83F
:1085A00004208BF8032043F00403A4EB08048BF8A9
:1085B0000030002E3AD0013E2246E317DDE90201E9
:1085C00009F0B0FCA0F5C330A038009A00F5C33321
:1085D000A033002ACED10028B8BF4042824525DD15
:1085E000274B9BF80110DA5D9BF800308BF8026096
:1085F000C2F3000464F3861369F3041365F3C30341
:10860000C2F3C10262F301018BF80030009B8BF8CA
:108610000110019301370D2F91D1089B1BB3099BCA
:10862000984223DC00200BB0BDE8F08F5046F1E704
:1086300013498BF80260C85D9BF800100192C0F3EB
:10864000000C6CF386119BF801C069F30411C0F3B0
:10865000C10065F3C30160F3010C9A468BF800106A
:108660008BF801C099E70123089361E703200BB061
:10867000BDE8F08F00E001409C280020A0860100AA
:108680009C5B0100AC5B0100F0B4EFF30383103B93
:108690005BB203F1C001324A324C52F821006FF351
:1086A000104042F8210054F82300C269036912699E
:1086B00092B10BB1F0BC7047026A9378446A03F040
:1086C0007F0343F0040300219370C160002CF1D0BC
:1086D0008022F0BCFFF734BC026A002BEDD0067894
:1086E000E6B1D48AC4F30424B4422DD28578C1689B
:1086F00005F0030C654609E00F78D77301345B1B66
:108700002944B442C0E903131ED223B3BCF1020FC3
:10871000F2D10F8847F47E47D781EFE78178C468AC
:1087200001F00305022D0AD02578D57001F003026F
:108730009B1A2244C0E90323002BBBD1BCE7258848
:1087400045F47E45D581F1E711796FF3C7111171B9
:10875000002BAFD1B0E7117963F3C7111171ACE70A
:10876000006000401428002030B583B0EFF303838D
:10877000103B5BB203F1C001554A564C52F8210040
:108780006FF3104042F8210054F82340E369DB689E
:1087900073B1A36963B1636A0021C4E90511002BB9
:1087A00070D02046012203B0BDE83040FFF7C8BBBF
:1087B00022894FF6FF739A4220D0EFF310810123F4
:1087C00083F31088444B1A681AB944484025C27094
:1087D000C5701A6801321A6081F3108822894049F5
:1087E000130A1B0153FA82F251F8223023F00113CD
:1087F00023F4404343F0050341F822302278236AF2
:10880000002A41D0D98AC80613D01B8AC3F30803B3
:108810000193A369002B41D1636A2BB10422019912
:108820002046FFF78DFB22782AB1236AD98AC90630
:10883000E6D1BE221A7123894FF6FF72934221D0EE
:108840001A0A120152FA83F2254951F8223023F014
:10885000011323F4404343F0040341F82230EFF3C3
:108860001082012383F310881B4B196811B119681A
:10887000013919601B681BB918498020CB70C8707A
:1088800082F3108803B030BDA17801F00301022902
:10889000BBD05B790193A369002BBDD0A27860693E
:1088A00002F0030201A909F0BAFDD4E90521A37879
:1088B00003F003031A44C91AC4E9052129B9636AFC
:1088C0001BB101222046FFF73BFB2278ACE700BF3B
:1088D000006000401428002010280020000D0440F3
:1088E0000008044010B5EFF30384103C0B4B64B256
:1088F00053F82400D0E90821937803F07B039370A8
:1089000019B102220021FFF71BFBC034044B53F8BE
:1089100024206FF3104243F8242010BD14280020B7
:108920000060004070B5EFF30384103C164B64B256
:1089300053F824000278036A3AB9827802F00302FD
:10894000022A02D05979C9B202E0198AC1F308019A
:108950001D79EDB2EE0605F0380204D51D7FED0756
:1089600058BF42F040021D79466A05F0C7051D71E7
:108970000EB1FFF7E5FAC034044B53F824206FF32F
:10898000104243F8242070BD1428002000600040ED
:1089900070B5436A84B004460E46ABB193E8070055
:1089A00001AD85E807006168A26A097819601E7147
:1089B0009A601846236A9847636A1BB195E80700D6
:1089C00083E8070004B070BD01AD2B46EBE700BFA4
:1089D00010B4EFF30383103B5BB203F1C001144A00
:1089E000144C52F821006FF3104042F8210054F863
:1089F00023305A69D9698A4206D2D3E90240A8B124
:108A0000805CE07001325A61914202D05DF8044B03
:108A100070471A69002AF9D19A685DF8044B937877
:108A200003F07B0343F0040393707047E070E9E7C1
:108A3000006000401428002010B4EFF30383103BC3
:108A40005BB203F1C001174A174C52F821006FF3D3
:108A5000104042F8210054F823305A69D9698A42FB
:108A600006D2D3E90240D0B1805CE07001325A6195
:108A70009A698A4207D2986819694079541C9C61A6
:108A80008854D3E90621914206D19A68937803F07D
:108A90003B0343F0040393705DF8044B7047E070B0
:108AA000E4E700BF006000401428002010B5EFF399
:108AB0000384103C64B20A4B53F824008268937814
:108AC00003F0030393700121FFF762FFC034054BED
:108AD00053F824206FF3104243F8242010BD00BF48
:108AE000142800200060004010B5EFF30384103C10
:108AF00064B20B4B53F8240083689A7802F00302A7
:108B00009A70842219791A710421FFF741FFC03449
:108B1000044B53F824206FF3104243F8242010BD77
:108B2000142800200060004010B40346F0241A69A5
:108B3000D96900209070D47293F82A2083F82C20F1
:108B4000186283F8300059625DF8044B704700BF2B
:108B50000346002059601A72704700BF10B40446E3
:108B6000C4E90E32002061635DF8044B704700BF1A
:108B7000C368044A9B1AB3FA83F35B090B700020A5
:108B8000704700BF4332495310B50269016804467B
:108B90000023F02093709370D07294F82A2084F808
:108BA0002C208A69E069236284F83030E3606062D7
:108BB00022B1936810681B6A984721684B691BB102
:108BC0009A681868136A9847EFF31082012383F3B9
:108BD00010882068064900784C68C0F11F00834067
:108BE00023434B604B6882F31088002010BD00BF08
:108BF000FC6F044003685B69A3B190F82D2070B549
:108C000002F0FF056AB904469A6818689668238CD2
:108C1000A1692A46B047E26925620123626284F8AD
:108C2000333070BD704700BF002380F82F3080F8CC
:108C3000313080F8333090F82D2090F82A1080F8E9
:108C40002B1010B5C469046280F82C30436212B155
:108C5000012380F83130026803695269B4219970A8
:108C60006AB1526800211268997090F82D40FCB9E1
:108C70004FF0006111602321B42299729A7090F82C
:108C80003020CAB190F82A200021012A044680F839
:108C9000301014D094F82920DA7094F82B2094F82E
:108CA0002C30013A013384F82B2084F82C3010BD8D
:108CB000094C11605460DEE75122DA7210BDFFF7F3
:108CC00099FF94F82A30012B03D194F828202369C6
:108CD000E2E72369DEE700BFC65B010010B5047A56
:108CE00080F82E30012CC0E906120AD1436880F8C2
:108CF0002A405B0043F00103002280F8283080F80E
:108D00002920012380F82D30FFF78EFF002010BDB1
:108D100010B5047A80F82E30012CC0E9061208D173
:108D2000436880F82A405B00002280F8283080F8F1
:108D30002920002480F82D40FFF776FF204610BD43
:108D40002DE9F04704460B780E6A8A680D4603F158
:108D50000073097B0560E869E66303F560536260B0
:108D6000AA6921725B01002182B02361C4E90D016F
:108D7000BAB15168D2F808C00E6895F90E7003C9EF
:108D8000053373604FF4002333606B4683E80300C0
:108D9000DCF8006010680F701946B047002840F0FA
:108DA000D1806B69CBB1596822690F68266803C905
:108DB000033296F90FC0BA604FF0000E6A46C7F84A
:108DC00000E082E803009868066881F800C018682F
:108DD0001146B047002840F0B880EFF31082012020
:108DE00080F310885F492B784E68C3F11F0300FAA7
:108DF00003F326EA03034B604B6882F31088226872
:108E00002369576A95F90F1095F9102095F80DA070
:108E100095F90E603D78DFF858E1DFF858814FF0A2
:108E2000000C4FF0F00983F802C083F80B9097F81C
:108E3000029009F0030983F80090AD004FF0FA09A1
:108E400083F8069045F0200597F8019083F801908B
:108E5000EDB2DD717D791D72FD789D7497F80490F7
:108E6000414F4FEAC90949EA00095FFA89F983F8D5
:108E700009904FEA0A154FF023090EEB010A83F817
:108E80000A90EDB201F1C00983F80DC08AF80053D1
:108E90004B0948F8214057F829A09B0003F1604393
:108EA00003F5614301F01F016CF3104A47F829A054
:108EB00000FA01F10EEB0209C3F88011196002F10A
:108EC000C001530989F800539B0048F8224057F825
:108ED000219003F1604303F5614302F01F0200FAA1
:108EE00002F26CF31049664547F82190C3F88021DF
:108EF0001A6018DBB64406F1C00273098EF80053FD
:108F00009B0048F8264057F8221003F1604303F510
:108F1000614306F01F06B0406CF3104147F8221081
:108F2000C3F8800118600020C4E908000F4B84F8E2
:108F30002D00A06184F82E00E06184F82F00E3602A
:108F400084F8300002B0BDE8F087AB69002BF9D09F
:108F50009A681868136A984700283FF43EAF02B039
:108F6000BDE8F087FC6F0440006000404332495385
:108F700000E100E014280020F0B5856B83B00446C2
:108F80000F4635B395E803006E4686E80300236874
:108F9000E16B5A6929602F713AB194F82D1021B90B
:108FA000936810681B69984723689B6933B194F8EC
:108FB0002D201AB19A68186813699847636B284680
:108FC0009847A36B1BB196E8030083E8030003B046
:108FD000F0BD6E463546DAE7EFF30383103B5BB234
:108FE000C033044A52F823106FF3104142F82310A3
:108FF000704700BF00600040F8B5EFF30383103BFB
:109000005BB2C033624A52F823106FF3104142F84A
:109010002310EFF30383103B5BB25E4A52F8234008
:1090200021690B7B13F001032CD194F82C2094F8C8
:109030002A00904216D094F82D300BB1022A43D06A
:109040002046FFF7D7FD236994F82820DA7094F8BA
:109050002B2094F82C30013A013384F82B2084F82B
:109060002C30F8BD94F8332002F0FF054ABB236A88
:10907000BBBB94F82E3053B352220123CA7284F83A
:109080003030F8BD94F82D309BB194F8313083B96D
:10909000636AA2694979D154D4E9082394F82E105F
:1090A000013A0133C4E90823A1B923695422DA72D1
:1090B000F8BD002001225423206284F82F20CB72B7
:1090C000F8BD84F83330F8BD5223CB72F8BD542379
:1090D000CB72F8BD226952210123D17284F830305D
:1090E000F8BD94F82D20002A32D094F83120002ABF
:1090F00037D0226884F831505069002841D09269F5
:10910000002A3ED0E669022E3BD9936810689F681A
:10911000A269B31EF4268E709BB22946B847226816
:10912000E3695269916810688E68023B9BB22A46D7
:109130002946B047E3692169023B0220C4E90803DC
:10914000012284F833200023FF228B72CA70F8BDFD
:10915000626AA569501C013BAA5CC4E90830CA7068
:10916000F5E7636AA2694979D154D4E90832013B31
:109170000132012B2169C4E9083204D0FF22CA70F0
:10918000E5E7012BDFD82023FF228B72CA70DEE7D0
:10919000006000401428002038B5EFF30383103B33
:1091A0005BB2374A52F823402269D37A6FF3C30384
:1091B000D37294F82F30002B39D103F0FF0094F8CC
:1091C0002A1094F82C30994220D1236A8BB994F854
:1091D0002D1094F8300000290CBF03210221C8BBD8
:1091E000F023D372937803F0CF0393702046FFF7F8
:1091F000C3FEEFF30383103B5BB2C033214A52F846
:1092000023106FF3104142F8231038BDB3B9012980
:1092100024D094F829000021D172D07094F82B202A
:109220000133013A84F82C3084F82B20E1E7F02355
:109230002046D3720121FFF79FFEDAE794F82D5004
:1092400005F0FF0145B1022BE5D194F8290040F06B
:109250000100E0E7D372C9E70846DCE72046FFF7E4
:10926000C9FC94F82A30012B05D194F82800226912
:1092700094F82C30CFE7226994F82C30C9E700BF6E
:109280001428002000600040F0B583B0EFF30384A1
:10929000103C64B2144B53F82450EF68BFB16A68B5
:1092A0002B6992F90D20121B18BF0122CBB193E854
:1092B00003006E4686E80300696959601A70184613
:1092C000B8472B691BB196E8030083E80300C0345C
:1092D000064B53F824206FF3104243F8242003B0C8
:1092E000F0BD6E463346E7E71428002000600040DA
:1092F000EFF30383103B5BB20649074A51F8231092
:109300000120C033087252F823106FF3104142F865
:109310002310704714280020006000400B0A1B0136
:1093200053FA81F1034B53F82130C3F34003137018
:109330000020704700080440C8B20123834098B25F
:1093400052B10023090A490101F1804101F5802150
:1093500003438B60002070471B041046F2E700BFF8
:10936000F8B500283BD009681E4F4FF0000C01EB08
:10937000C00066464FF0010E8D8840F202429542D1
:109380004FF000030BD10C680EFA03F204F0B8544E
:10939000D2B2B4F1807F0CBF164342EA0C0C013309
:1093A000032B06D037F813209542ECD00133032B62
:1093B000F8D108318142DFD16FEA0C0C5FFA8CF4EE
:1093C000012002F0BBFA084B93F8BB241643264059
:1093D00083F8BB640120BDE8F84002F07FBA06467E
:1093E000FF24EDE7C85B010000E00140F0B585B067
:1093F00004AB02A843F80C0D01260C463046194672
:109400001546ADF80C400292ADF80060FFF7A8FFDA
:10941000EFF3108186F310881B4B1A681AB91B48AA
:109420004026C270C6701A6801321A6081F3108833
:10943000200AEA03E4B24FEA00100BD50119144ADE
:1094400052F8217025F480366FF3104742F82170EE
:1094500042F8216020440E4A42F82050EFF3108277
:10946000012181F31088196811B119680139196057
:109470001B681BB905498020CB70C87082F3108827
:10948000002005B0F0BD00BF10280020000D0440F2
:1094900000080440034630B40124806883F821406A
:1094A000002483F8234005799C6145F01005C3E949
:1094B0000422D9600571027964F3C3020271204667
:1094C00083F8244030BC7047034630B480680024E1
:1094D00083F8214083F8234005799C6145F010050D
:1094E000C3E90422D9600571027964F3C3020271F1
:1094F000204683F8244030BC704700BF10B40446B7
:10950000C4E90B320020A1625DF8044B704700BF34
:10951000016891F90F1070B44E098568274C024616
:109520000123203601F01F01002003FA01F15060F1
:10953000E87144F82610BFF34F8FBFF36F8F1168A7
:1095400091F90C104D09203501F01F0103FA01F1CA
:1095500044F82510BFF34F8FBFF36F8F116891F957
:109560000D104D09203501F01F0103FA01F144F8F7
:109570002510BFF34F8FBFF36F8F116891F90E1055
:109580004D09203501F01F0103FA01F144F82510BF
:10959000BFF34F8FBFF36F8FEFF3108183F310880A
:1095A0001468074A24785568C4F10904A3402B4382
:1095B0005360536881F3108870BC704700E100E08D
:1095C000FC6F04402DE9F0430A78034602F580025F
:1095D000D1E9054002F5A6621202002519609A60E1
:1095E0009C62C3E90B50EFF31080012282F31088D4
:1095F0007E4C0E786168C6F10906B24021EA02028B
:109600006260626880F3108819689A68CE698C7A03
:1096100083F823501F27B07817705F271770012C2D
:109620004FF0DF07177000F0DA800D89EC0904F0C5
:10963000060444F00104EDB2D4729572CC7A4F68FE
:109640006B4DE40044F00104E4B24FF0020C94715D
:1096500082F803C0347876782401AF4204F07004B5
:1096600044F0080446F0E00614BF00256FF07F05C3
:10967000002800F0AC8045F07D05EDB20138557151
:1096800047B21674947091F812E091F90F00DFF868
:1096900070C1584D584C594E47EA8E17FFB24FF0E3
:1096A000A0084FF09F0E177182F8078082F800E043
:1096B0004A7C0CEB00071201D2B287F8002300F1BC
:1096C000C00E45F82030420954F82E80920002F175
:1096D0006042012702F561426FF3104800F01F005D
:1096E00044F82E8007FA00F0C2F88001106091F86B
:1096F00010E091F90D004FEA0E1E0CEB00025FFA2C
:109700008EFE82F800E345F8203000F1C00254F8E4
:1097100022806FF3104844F822804FEA501891F9E4
:109720000E204FEA880808F160480CEB020908F5A2
:10973000614800F01F0007FA00F0C8F88001C8F87F
:10974000000089F800E302F1C00045F8223054F827
:1097500020806FF3104844F82080500991F90C10D4
:10976000800000F160408C4400F5614002F01F026F
:1097700007FA02F2C0F8802101F1C00802608CF8FB
:1097800000E34A0945F82130920054F8285002F1CC
:10979000604202F5614201F01F0100208F406FF32B
:1097A0001045022144F82850C2F88071176083F8F0
:1097B0002400C3E9030083F82110C3E9050083F8FE
:1097C0002200D8615E6083F82000BDE8F08345F098
:1097D0005D05EDB2557107461674947053E70C7A27
:1097E000D5726400E4B2947228E700BFFC6F0440B5
:1097F00040420F00142800200060004053433249CB
:1098000000E100E0F0B5C36A85B005460E46174694
:109810009BB193E8070001AC84E807002A6B1A604B
:109820005F601E721846AB6A9847EB6A1BB194E8FA
:10983000070083E8070005B0F0BD01AC2346EDE763
:1098400070B50123856880F820300226B323EB71C0
:1098500080F821606B79C26904466FF300036B7175
:109860000D46FFF7CFFFA368DE705A7942F0010280
:109870005A7194F82120012A05D094F821200AB9C0
:10988000052D04D070BD042D01D0082DF5D194F81C
:109890002320002AF6D194F821201AB95A7A02F02E
:1098A000F3025A72BF210122D97184F8232070BDBE
:1098B000836810B4A0220024DA7180F8204080F878
:1098C00022405A7964F300025A7190F824206AB950
:1098D000DF249F221C701A7000240223C26980F8C2
:1098E0002130C4615DF8044BFFF78CBF5C72F3E775
:1098F00030B583B0EFF30383103B5BB2C033424A11
:1099000052F823106FF3104142F82310EFF3038352
:10991000103B5BB23D4A52F8234094F82220A368E2
:10992000AAB9012284F82220DA7CD2B28DF805206F
:109930009DF8052012F0010F5A7A14BF02F0F702C9
:1099400002F0F3025A72AC22DA7103B030BD94F81F
:1099500020204AB91B7A13F0080F0CBF04210821FC
:109960002046FFF76DFFA368226962B1A1698A42B0
:109970001DD0E268DB7C481CA0615354E3690133CD
:10998000E36103B030BDD97CC9B28DF806109DF8F3
:109990000610197941F010011971197941F0080187
:1099A0001971197962F30411197103B030BD0225E0
:1099B00084F821505979E2696FF30001597120460A
:1099C0000621FFF71FFFA3682169DD705A7942F075
:1099D00001025A7191B9DA7CD2B28DF807209DF854
:1099E00007201A7942F010021A711A7942F008021F
:1099F0001A711A7961F304121A71A6E7A269E16873
:109A0000DB7C501CB8E700BF006000401428002039
:109A100038B5EFF30383103B5BB2C033224A52F8F0
:109A200023106FF3104142F82310EFF30383103B30
:109A30005BB21E4A52F8234094F8203093B194F858
:109A4000213003F0FF0263B9A3692069A16898423D
:109A50000DD0E269E0680132C05C88740133C4E96A
:109A6000063238BD05212046FFF7EAFEE7E7236806
:109A70000D4893F90E3003F1C004002B50F8245028
:109A800062F3104540F8245009DB5A09603203F0B4
:109A90001F030120064C00FA03F344F82230CB796F
:109AA00043F04003CB7138BD006000401428002013
:109AB00000E100E038B5EFF30383103B5BB2204ACE
:109AC00052F82340A1680B79C3F38003BBB1CB7973
:109AD0006FF38613CB71C02301E0013B02D0CA793A
