:10400000007F002091BC000041BB000021F00000B7
:104010008DBC00008DBC00008DBC00008DBC00007C
:104020000000000000000000000000008DBC000047
:104030008DBC0000000000008DBC00008DBC0000A5
:104040000000000000000000000000000000000070
:104050000000000000000000000000000000000060
:104060000000000000000000000000000000000050
:104070000000000000000000000000000000000040
:104080000000000000000000000000000000000030
:104090000000000000000000000000000000000020
:1040A0000000000000000000000000000000000010
:1040B0000000000000000000000000000000000000
:1040C00010B5054C237833B9044B13B10448AFF352
:1040D00000800123237010BDC003002000000000F9
:1040E000D888030008B5034B1BB103490348AFF35D
:1040F000008008BD00000000C4030020D888030031
:104100004308400003F0553300F0AA3018438308F9
:10411000800000F0CC3003F03333034318091B0157
:1041200003F0F03300F00F30184300BA7047FFFF80
:10413000064A136810B50133054C1360054B22681D
:104140001A600BF001FA206010BD00BF940500203A
:10415000A0050020A8050020064A136810B5013309
:10416000054C1360054B22681A600BF0EDF92060D6
:1041700010BD00BF44060020500600205806002055
:1041800070B504460A70104603F05EF8054603F069
:1041900071F80646206870B1322103F03AFD2068BC
:1041A000036832465B682946984720680368BDE883
:1041B00070405B6B1847606830B10368324629462F
:1041C0005B68BDE87040184770BD70B5044608468E
:1041D0000E4602F0E1FF054688B1267002F0F4FFBA
:1041E000608002F0F1FFA08002F0EEFFE08002F0BC
:1041F000EBFF208102F0E8FF608103F00FF8284612
:1042000070BDFFFF30B5016802690D0185B004463D
:104210005059FFF775FF2A4401905068FFF770FF6F
:1042200002909068FFF76CFF0390D3686269A36106
:104230000131B1FBF2F302FB1311216049B994F88B
:10424000203003B9A361236E03B19847012384F89A
:104250005C300C2201A9024827F081FD05B030BD79
:10426000080400202C49F8B50D680A682B4C0B682F
:10427000D210A25C5C4204F0070403F0070358BFAD
:104280006342274C42FA03F3226822F4384222F0B8
:1042900018022260226C22F4415222F03002DB0725
:1042A000226404F140041CD51E4B1F4F13F8152047
:1042B00003EB45031C325B7837F832201C331612AF
:1042C000360156FA82F237F8333004F5F8640526E1
:1042D00044F822601A12120152FA83F3042244F8BD
:1042E00023200B686024013393FBF4F204FB1233A8
:1042F0000B6080B1046874B1A36963B10BF024F959
:10430000E369C01AA369984205D92046FFF77AFFEE
:104310000BF01AF9E061F8BDDC030020080400206E
:1043200000000440743903007041030030B585B0CB
:104330000B6800934B6801938B680293002501235F
:104340000560C0F810D0436104460395FFF75AFF9B
:10435000A56105B030BD10B504460068C8B103685A
:104360001B69984728B9206803681022DB6B32214B
:104370009847206803681B699847D8B1206803688C
:104380005B699847C0B202F0D5FE0028F1D0012049
:1043900010BD636873B1606803681B69984748B1D2
:1043A000606803685B699847C0B202F0C3FE0028EA
:1043B000F1D0ECE70020EBE770B504460E460BF0B9
:1043C000C3F8E0600BF0C0F8E368C01AA368984235
:1043D0000DD82046FFF7BFFF05460028F2D026B1D2
:1043E000304602F0D9FE0028ECD0284670BD0025EA
:1043F000FBE72DE9F0410025058229210446FFF75E
:10440000DBFF804668B3292104F16000FFF7DDFE81
:10441000B4F96210D4F8AC000129B8BF01214C26D0
:10442000714328F025FAC4F8AC00B4F96230AB420D
:1044300019DD00212046FFF7BFFF90B1D4F8AC0092
:1044400006FB05F72A213844FFF7BFFE08B1013506
:10445000EBE7D4F8AC002B213844FFF7B6FE002878
:10446000F5D14FF000084046BDE8F081FFFFFFFFA7
:104470002DE9F041304D314E2A6833689A4250D1CF
:104480002C680BF061F804EBC40420440A24B0FB50
:10449000F4F02B4B2B4F286039681A6891429846EC
:1044A00041D13C680BF050F804EBC40420440A24CA
:1044B000B0FBF4F038603B68C8F800302B6833601C
:1044C000214B38681B68C01A26F0CCF802460B4610
:1044D00017A1D1E9000126F069FA1C4B06460F46E8
:1044E000C3E900671A4B28681B68C01A26F0BAF89F
:1044F00002460B460EA1D1E9000126F057FA0B4601
:1045000014490246C1E900233046394625F06EFFC2
:10451000114B002226F020F9104BC3E90001BDE841
:10452000F0812868B5E73868C4E700BFAFF30080C2
:1045300067666666E6119E4050060020540600201D
:10454000A4050020A0050020A80500209805002053
:1045500058060020480600200000E03F78040020B4
:104560002DE9F04F85B00AF0EFFF26F07BF8484CBC
:10457000484BC3E90001D4E90023CDE9000125F04F
:1045800033FF454B0F4645490646C3E90067002205
:10459000434BD1E9000125F027FF424B8046894675
:1045A000C3E900890022404B26F048FB002860D078
:1045B00042464B463046394626F0CEF83B4DD5E9CB
:1045C000002325F013FF82468B46C5E900AB384D2A
:1045D0004046D5E90023494625F006FF32463B46D2
:1045E00026F0E4F9334BCDE90201C3E900010022D2
:1045F000314B4046494626F0AFF823A3D3E90023C8
:1046000006460F465046594626F0A6F802460B4687
:104610003046394625F0EAFE002206460F46274B73
:10462000DDE9020126F098F802460B46304639468D
:1046300025F0DCFE224B9DED007BC3E90001214B00
:10464000C5E90089D3E9002384ED007B25F0CEFE87
:104650000022002304460D4626F0F0FA60B900223D
:10466000194B2046294626F007FB38B10024164D89
:1046700004E000200021A1E70024002545EC104BB8
:1046800005B0BDE8F08F00BFF168E388B5F8C43E1F
:1046900038060020300400205804002020000020AC
:1046A0000000344068040020000024408005002001
:1046B00028060020400400200000E03F0000694080
:1046C000180400201800002000004940FFFFFFFFF1
:1046D0002DE9F74FFFF7CCFE0AF036FF484D494B66
:1046E000DFF84881186004462868201A25F0BAFFD0
:1046F000454B06460F46C3E900674449444BD1E9A0
:104700000001D3E9002325F06FFE424B82468B4621
:104710000246C3E900AB30460B46394626F01CF88A
:10472000D8E9002325F062FE3B4BC8E90001D3E93C
:104730000023CDE900015046594625F055FE32468A
:104740003B4626F033F9354B80468946C3E900895C
:10475000504625A3D3E90023594625F0FDFF24A3A5
:10476000D3E9002306460F46DDE9000125F0F4FFFA
:1047700002460B463046394625F038FE1EA3D3E9E3
:10478000002306460F464046494625F0E5FF02460F
:104790000B463046394625F029FE214B2C60C3E9F3
:1047A00000011D4BC3E900AB1E4BD3E9002325F0EC
:1047B0001DFE0022002304460D4626F03FFA48B9AC
:1047C0000022194B2046294626F056FA20B1002433
:1047D000154D01E00024002545EC104B03B0BDE869
:1047E000F08F00BFAFF300809A9999999999993FFA
:1047F00095D626E80B2E013E3A8C30E28E79553E56
:1048000040060020380400206004002048000020FA
:1048100078040020700400203006002048040020A6
:1048200020040020180000200000494088050020D6
:1048300070B5304C304E314D94B000224FF47A7147
:10484000062009F0C3F92B48202201A9FFF798FCA4
:104850002848FFF7CEFD0028EFD0B4F96430002BD4
:10486000EBD0B4F96210B4F9100081420B46A8BF36
:10487000034681421AB201DC2282DEE7914203F153
:104880000103C8BFD4F8AC102382C5BF4C2302FB80
:104890000313B4F9BA30B3F90A30DBB2012B16D1E5
:1048A0001749164809F018FF1649144809F014FF73
:1048B0001549124809F010FF1449104809F00CFF7F
:1048C00000221421062009F081F914B070BD314690
:1048D000284609F001FF00220D49062009F076F96B
:1048E0000C490D48FFF722FD4FF4FA700AF0E8FD7D
:1048F000A3E700BF8404002028380300141200201E
:10490000A8370300C0370300D2370300F337030092
:10491000A086010034390300B005002030B5104CEA
:10492000104D114987B0204609F0D6FE0F4A1049B4
:10493000284601F07DFD4FF47A700AF0C1FD29464A
:10494000684601F09DFC0B49204609F0A7FE694628
:10495000204609F0CBFE084802F092FB07B030BDBC
:104960001412002038070020FF3803002800002020
:1049700035000020173903005C06002008B5024905
:104980000248FFF7D3FC08BD343A0300B00500200D
:1049900008B502490248FFF7C9FC08BD403A0300C8
:1049A000B005002008B502490248FFF7BFFC08BD6A
:1049B00064390300B005002008B5002105200AF085
:1049C000D3FB02200AF078FD012105200AF0CCFB80
:1049D0000A200AF071FD002105200AF0C5FB40F60F
:1049E000B832012104200AF0ADFC48B125F03AFEAE
:1049F00006A3D3E9002325F0AFFE41EC100B08BD60
:104A000000200149F9E700BF008049409CC420B064
:104A10007268913F07B551EC100B26F04DF9A023B9
:104A2000009300233222194609F0DCFB03B05DF845
:104A300004FBFFFFFFFFFFFF08B551EC100B2DED4E
:104A4000028BB0EE408AF0EE608A15A3D3E9002312
:104A500025F082FE41EC100BFFF7DCFF01460A2037
:104A600009F0E6FAB0EE480AF0EE680AFFF7D2FF66
:104A70000146092009F0DCFA074B012118780AF0F9
:104A800073FBBDEC028B054B01211878BDE8084093
:104A90000AF06ABBAFF30080040000200000002091
:104AA000D7A3703D0AD7EB3F08B52DED028B9FEDE4
:104AB000128BB0EE480AF0EE680AFFF7ABFF014632
:104AC0000A2009F0B5FAB0EE480AF0EE680AFFF7DE
:104AD000A1FF0146092009F0ABFA094B0021187823
:104AE0000AF042FBBDEC028B064B00211878BDE8B2
:104AF00008400AF039BB00BF0000000000000000C1
:104B0000040000200000002010B5374C94B020466F
:104B1000202201A9FFF734FB2046FFF76AFC70B1A1
:104B2000B4F964305BB1B4F96210B4F91000814299
:104B30000B46A8BF034681421AB20CDC22822B4BE3
:104B40001A78082A48D00A2A2AD100221A7000208E
:104B5000274B284945E0914203F10103C8BFD4F82F
:104B6000AC102382C5BF4C2302FB0313B4F9BA3047
:104B7000B3F90A30204ADBB21370013B092B0FD87E
:104B8000DFE803F00509101316191E240E271B4B2E
:104B900000221A7004E0194B01221A70FFF784FFFB
:104BA00014B010BDFFF7F4FEFAE7FFF7E7FEF7E7F2
:104BB000FFF7F8FEF4E7124B01221A70114BE7E7FA
:104BC0000F4B00221A700F4B0122E2E7074B08221D
:104BD000DFE7064B0A22DCE700221A700A49044B81
:104BE0000020C3E90001DBE78404002090050020D9
:104BF000500000200000494080040020E003002015
:104C000091050020340000200000394038B5FFF73E
:104C1000D3FE114B55EC104B83ED000B00220F4BD4
:104C200010EE100A294626F013F80D4B28B1012288
:104C30001A70BDE83840FFF737BF18700022094BE3
:104C40002046294625F0FAFF074B10B101221A70C1
:104C500038BD064A1278FAE7200000200000244000
:104C600020060020008049402804002090060020F3
:104C700008B5134B186825F005FD0FA3D3E90023F1
:104C800025F06AFD26F018F801460A2009F0D0F94F
:104C90000C4B0920196809F0CBF90B4B012118784E
:104CA0000AF062FA094B01211878BDE808400AF0C1
:104CB0005BBA00BFAFF30080D7A3703D0AD7EB3FCC
:104CC000100000200C000020040000200000002044
:104CD00008B5134B186825F0D5FC0FA3D3E90023C2
:104CE00025F03AFD25F0E8FF01460A2009F0A0F979
:104CF0000C4B0920196809F09BF90B4B012118781E
:104D00000AF032FA094B01211878BDE808400AF090
:104D10002BBA00BFAFF30080D7A3703D0AD7EB3F9B
:104D20000C000020100000200400002000000020E3
:104D300010B50F200AF024FA04460E200AF020FADB
:104D4000012C08D101280DD10E4BBDE8104093ED88
:104D5000000BFFF771BE9CB9012808D1BDE81040D7
:104D6000FFF786BF60B9BDE81040FFF7B1BF38B9A3
:104D7000054B1B78002BF1D1044B1B78002BF2D193
:104D800010BD00BF18000020910500203400002055
:104D90000D4A08B512780D4B1B783AB993B90C4BF4
:104DA0001B7823B9BDE80840FFF7C2BF53B9084BD1
:104DB0001B783BB940F6B8300AF07EFBBDE80840EE
:104DC000FFF724BF08BD00BF200600200800002018
:104DD000E00300201FB500210F200AF0ADF90021EB
:104DE0000E200AF0A9F9012105200AF0A5F90021F9
:104DF00004200AF0A1F9012108200AF09DF90121FF
:104E000007200AF099F901210B200AF095F90121F8
:104E10000C200AF091F900210B200AF0A5F90021DD
:104E20000C200AF0A1F9002108200AF09DF90021C8
:104E300007200AF099F9012109200AF07DF90121E2
:104E40000A200AF079F9022108460AF075F90221D0
:104E500003200AF071F9012106200AF06DF9002102
:104E60000DF10F0007F044F90E4B019303F12404F8
:104E70000D4BDFED0E0A9FED0E0A9DF80F200093FB
:104E80000021C3B2204607F0D9F900220C212046A8
:104E900007F0C6FB204607F07AFA204607F0B5FA7D
:104EA00004B010BDB005002065420000000048427B
:104EB00000401C46FFFFFFFF2DE9F041504D514FD0
:104EC000514EDFF88C81002405F124002C60C5E9E7
:104ED000064485F8204007F049F885F85C400AF060
:104EE00033FB386026F050F951EC100B25F00CFF25
:104EF00030600AF029FBC8F8000026F045F951ECB3
:104F0000100B25F001FF414D414B286032681A60BB
:104F1000404B2A681A6030683B68C01A25F0A2FB33
:104F200002460B4634A1D1E9000125F03FFD3A4B82
:104F300006460F462868C3E90067D8F80030C01A53
:104F400025F090FB02460B462BA1D1E9000125F08C
:104F50002DFD0B4631490246C1E900233046394652
:104F600025F044FA00222E4B25F0F6FB2D4BC3E929
:104F7000000126F009F92C4B83ED000B0AF0E4FA4E
:104F800025F070FB294BC3E9000126F0FDF851EC38
:104F9000100B25F0B9FE264B18600AF0D5FA254B08
:104FA0001860254B25481C8264229A60FF2283F8F2
:104FB000B02041F250414FF6FF72C3F8AC40C3E954
:104FC0000044A3F8B220A3F8B420A3F8B620A3F8B5
:104FD000B820A3F8BA2001F08BFF194801F0F8FEC1
:104FE0001849194809F004FC1848BDE8F0410CF0D4
:104FF00089BC00BFAFF3008067666666E6119E401D
:10500000B0050020A8050020A005002050060020C3
:10501000A405002054060020980500204806002022
:105020000000E03F78040020300400203806002013
:105030003804002040060020840400205C06002084
:10504000E4030020EC3C03001406002014040020BC
:105050005806002008B50A480CF0E0FC094809F0A1
:105060007CFB094801F022FB0848094B40F8103B43
:1050700001F01CFB0748BDE8084007F067BA00BF15
:105080001404002014060020E40300205C06002025
:1050900004400300D4050020F0B51B481B4E1A4FF6
:1050A00095B002F0F5FC35460023C6E900730524EF
:1050B00001A928462C22FFF763F82E212846FFF786
:1050C0007BF9C0B9013CF3D11149124809F0FAFA51
:1050D0001149104809F0F6FA10490E4809F0F2FAA1
:1050E00022464FF47A71062008F070FD4FF47A7072
:1050F0000AF0E6F9D8E7B5F964301BB90849054864
:1051000009F0EAFA15B0F0BDCC08002084040020B4
:105110006F380300141200207D380300D7380300D5
:105120004D38030038B5284801F0F2F9274B40B25A
:105130005328187021D007DC432822D0482818D0E3
:10514000412821D1224B0AE058280BD05A2805D0FB
:10515000572819D1BDE83840FFF724BC1D4B002269
:105160001A7038BD1B4B01221A70BDE83840FFF79A
:105170009BBCBDE83840FFF70BBCBDE83840FFF7EB
:10518000FDBB134B0222EBE7134B1B78022BE8D13C
:105190002F3800EB800025F075FA0022002304462A
:1051A0000D4625F069FD0028DBD000220B4B204680
:1051B000294625F04DFD0028D3D0094BC3E9004511
:1051C000084BC3E90045CCE7E40300203C04002081
:1051D000900600200800002028040020000049401C
:1051E00048000020180000202DE9F041284DDFF88C
:1051F000AC80284F8AB0264801F00CFD00283ED133
:10520000414601A801F086FE029B6B60039BAB60E8
:10521000049BEB60089E059BEC692B61069B6B6110
:10522000A642079BAB6115D016B17368013373605A
:105230007CB16368013B63605BB9236820469B686F
:105240009847A368013BA3601BB923682046DB682D
:105250009847EE619DF8243085F8203001A801F0D0
:1052600025FA39460C4809F019FA00224FF47A71F0
:10527000062008F0ABFCC8200AF022F9BBE70022A8
:105280001421062008F0A2FC0AB0BDE8F08100BF9E
:10529000E40300201F870300141200205C06002096
:1052A000F8B5494C494D4A4F4A4E20464FF4E1313A
:1052B00008F066F92946204609F00EFA29462046EC
:1052C00009F00AFA2946204609F006FA294620463E
:1052D00009F002FA294620463F4D09F0FDF93F4901
:1052E000204609F0F9F9FFF775FD3D492846FFF71B
:1052F0001DF841F288300AF0E3F83A49204609F0F7
:10530000EBF93949204609F0E7F9FFF707FB374980
:10531000204609F0E1F9032008F09FF804223449FF
:1053200008F00CF9022008F098F80422314908F03E
:1053300005F939462846FEF7F9FF41F288300AF0B0
:10534000BFF82D49204609F0C7F9FFF74DFF314658
:10535000204609F0C1F93146204609F0BDF9314631
:10536000204609F0B9F92549204609F0B5F9FFF7BB
:1053700093FE2349204609F0AFF922492846FEF75B
:10538000D5FF41F288300AF09BF81F49204609F00A
:10539000A3F939462846FEF7C9FF1C49204609F003
:1053A0009BF9FFF745FA28461949FEF7BFFF19494F
:1053B000204609F091F92046174909F08DF9062099
:1053C000BDE8F84008F04ABC14120020F73803008A
:1053D00034390300E13A0300B00500204C3A0300E1
:1053E00054390300623A03006E3A0300943A030012
:1053F0005941000031410000BD3A0300F63A030074
:105400000D3B030024390300223B0300333B030020
:1054100044390300413B0300533B030030B5454B87
:10542000454C97B0D3E9000125F046FC0A2201461D
:1054300001A809F0FCF901A904A809F019FA21460C
:1054400004A809F05EFA3D4B0546D3E9000125F0BA
:1054500033FC0A22014607A809F0E9F907A9284602
:1054600009F043FA214609F04CFA354B0546D3E9D9
:10547000000125F021FC0A2201460AA809F0D7F90B
:105480000AA9284609F031FA214609F03AFA2D4BCB
:10549000D3E9002305461946104624F0A7FF25F05E
:1054A0000BFC0A2201460DA809F0C1F90DA92846F6
:1054B00009F01BFA214609F024FA234B0A22197835
:1054C000054610A809F0B3F910A9284609F00DFA0D
:1054D000214609F016FA1D4B0A221978044613A832
:1054E00009F0A5F913A9204609F0FFF91849194C4C
:1054F00009F007FA0146204609F0ABF913A809F0B4
:105500002CF910A809F029F90DA809F026F90AA824
:1055100009F023F907A809F020F904A809F01DF9FA
:1055200001A809F01AF9A26821680B4801F056F9A0
:1055300017B030BD50040020F93803007804002073
:1055400020000020180000202804002080040020F3
:10555000FB38030014060020E4030020FFFFFFFFD8
:1055600038B5394D2B681721B3FBF1F201FB12322C
:10557000CAB9FFF74BFB354B1B78012B05D1FEF762
:10558000EFFF334B83ED000B38BD022B02D1FFF749
:105590009FF8F6E7002BF7D12E4BD3E900012C4BF7
:1055A000C3E90001F0E71F22B3FBF2F2C2EB4212A3
:1055B000934203D1BDE83840FFF7B4BD4921B3FBA6
:1055C000F1F201FB12321AB9BDE83840FFF79CBA7C
:1055D0004FF42F72B3FBF2F402FB1434002CD3D13E
:1055E0001D4B18681D4B1B68184425F03BF814A38D
:1055F000D3E9002325F0B0F80022194B25F0ACF8D0
:105600000022184B25F0A8F8174BC3E90001FEF75C
:105610002FFFFFF703FF2C60144C154BD4E900015A
:10562000002225F0C3F9C4E90001124C104BD4E963
:105630000001002225F0BAF9C4E90001A4E700BF87
:10564000894160E5D0220940AC05002028040020F3
:10565000180000205000002094050020440600207F
:1056600000000C400000D03F5004002088050020BE
:10567000000049408005002008B5FFF771FFFFF7E3
:1056800087FB024A13680133136008BDAC05002094
:1056900008B50368002B02DA094813F028FC8B4296
:1056A00008D949008B4205D20029B6BF6FF00043EC
:1056B000016003600068BDE8084001300CF0F2B8FA
:1056C0005F3C030010B500220124416042F21071DA
:1056D00002704470816080F88C4080F88D2080F8E2
:1056E000942010BD10B50446406828B163781BB9FA
:1056F00040F2AC410CF002F9204610BD08B4F3B5FD
:1057000007AE00F10C0456F8047B05468022002108
:10571000204626F048FB324639462046019629F0BD
:1057200007FBD5F89000A8B195F89430012B11D95A
:105730000F4908F0B3FFD5F89060336820465F68E2
:1057400028F002F8214602463046B847D5F89000C6
:1057500008F0B2FF20466D6827F0F6FF21460246AA
:10576000284607F0FBFF02B0BDE8F04001B07047EB
:10577000A93B03002DE9F041074608460E46904636
:1057800027F0E2FF7C68A04205460DD8241A444564
:105790003F6828BF44464DB12A463146381926F0A5
:1057A000CFFA18B1631E24B94FF0FF342046BDE88C
:1057B000F0811C46EFE7034653F8080B984201D0EE
:1057C0000CF090B870472DE9F0470D461C46416833
:1057D00033B9914238BF4FF0FF321046BDE8F08731
:1057E000914220D9D0F8008095F9007008EB0200B2
:1057F00008EB01068A1AC3F10109A24213D319EB7F
:10580000020210D0394626F04BFA824658B12246A1
:10581000294626F095FA10B9AAEB0802DDE70AF14D
:105820000100321AE9E74FF0FF32D6E7F8B5064635
:10583000456808460F4627F087FFA842024628BF62
:105840002A46044622B13946306826F079FA00B972
:10585000281BF8BD012A30B404D191F9003003703F
:1058600030BC7047002AFBD030BC26F078BAFFFF6E
:1058700073B505460E4619B912B10D4813F034FB45
:10588000941B0F2C019406D9002101A8FFF700FFFB
:10589000019B2860AB60224631462868FFF7DAFF9B
:1058A000019B2A686B600021D15402B070BD00BF1B
:1058B000353C030038B500F10803044603600D468B
:1058C00049B1084627F040FF2A1820462946FFF72D
:1058D000CFFF204638BD4FF0FF32F6E7F8B500F1B4
:1058E00008040460D1E90054A242064604D92346C4
:1058F0000649074813F0FEFAA918A21A9A4294BF63
:105900008A18CA18FFF7B4FF3046F8BD773C030089
:10591000923C030038B54C68A242054604D92346A0
:105920000349044813F0E6FAFFF7D8FF284638BDCC
:10593000203C0300923C03002DE9F043324E334DEE
:10594000337887B004460F461BB100233370012320
:105950002B7095F80080B8F1010F07D04FF00004CC
:1059600016D3B8F1020F41D02C7011E0434600224B
:1059700027493846FFF727FF00228146434625493D
:105980003846FFF720FFB9F1FF3F024604D100245B
:10599000204607B0BDE8F083431CF8D04B4639469B
:1059A0006846FFF7B7FF009825F0FDFB002814DCE0
:1059B000606803681B69984720B1606803685B6989
:1059C0009847F5E70124347028703A6800237B601B
:1059D00068461370FFF7EFFEDAE70F4B04301860EC
:1059E0000E4B00241C6002232B70EEE70B4A136859
:1059F00001331360084A12689342C8D101232C7006
:105A000033701C46C4E700BF580000209C060020ED
:105A1000C13B0300FD3803009806002094060020D7
:105A20002DE9F3410268466800F108039A420446F2
:105A30000F4606F1010504D081688D4215D9019504
:105A400003E00F2D11D901950F2101A8FFF720FECA
:105A500080461EB132462168FFF7FCFE2046FFF764
:105A6000AAFE019BC4F80080A36023689F552368A9
:105A7000656000225A5502B0BDE8F0812DE9F0437F
:105A800004464068DFF8C4800368DFF8C4905B68B0
:105A900089B0984701AA294902A8FFF70BFF09F02E
:105AA00053FD002507462E4609F04EFDA368C01B96
:105AB00098420DD3D4F8900050BB02A8FFF77BFEAC
:105AC000304609B0BDE8F08301252E460125EBE7FD
:105AD000002DEFD1606803681B6998470028E3D068
:105AE000606803685B69984741B202A8FFF798FFB6
:105AF0004FF0FF32414602A8FFF73CFE431C02462E
:105B0000E2D1494602A8FFF735FE0130E2D0DCE7DA
:105B100094F89430012BD0D9094908F0BFFD0299BF
:105B2000D4F8900008F0D8FD2EB10649D4F89000C2
:105B300008F0D2FDC1E70449F8E700BFEC3C0300E0
:105B40006F3B0300893B0300973B0300623B03006C
:105B5000673B0300F7B5024604460D4651F8080BB3
:105B600052F8083B814215D020609A426A68626010
:105B7000AA6818BFA668A26008BF002343B12B60C3
:105B8000AE602A68002320466B60137003B0F0BD3E
:105B90002960F6E7AC42F4D09A426E6814BFA1685F
:105BA0000F218E420BD902A840F8046DFFF770FD5B
:105BB00007462046FFF7FFFD019B2760A36026B143
:105BC000324629682068FFF745FE23686660002298
:105BD0009A55D6E72DE9F04F0446D0F8900087B0EB
:105BE0008946154628B194F8943013B15E4908F0FF
:105BF00055FD09F0A9FC4FF0000882464646DFF843
:105C000088B109F0A1FCA368A0EB0A00984202D277
:105C1000B8F1000F2ED094F88C3013B1284600F064
:105C200015FA0123D4F8900084F88C30002384F80E
:105C30008D3048B194F8943033B14C4908F02EFDC2
:105C4000D4F8900008F038FDD4F8900070B14849BD
:105C500008F024FD2968D4F8900008F03DFD002EDE
:105C60007FD04449D4F8900008F036FD304607B0A4
:105C7000BDE8F08F606803681B6998470028C0D0B2
:105C8000606803685B69984747B239462846FFF762
:105C9000C7FED4F8900028B194F8943013B1394677
:105CA00008F000FD94F88D70D7B129462046FFF723
:105CB00043FE07460028DDD0002284F88D206B6863
:105CC0007BB3043B29466846FFF708FE6946284631
:105CD000FFF740FF6846FFF76EFDB8463E46C9E74E
:105CE0004FF0FF3224492846FFF744FD411C02468D
:105CF0001BD06B68063B3A4629466846FFF70AFE0A
:105D000069462846FFF726FF6846FFF754FD1B4902
:105D10004846FFF78BFD20B14946284600F0AEF912
:105D200000B101264FF0010869E715492846FFF741
:105D300021FD431C024602D06B68043BDBE7594659
:105D40002846FFF717FD013094D06B683A46073BB1
:105D500029466846FFF7DEFD6846FFF72CFD3E4604
:105D6000E0E708497EE700BFF03B03000A3C030080
:105D7000143C0300893B0300F63B0300FD3B03009A
:105D8000623B0300973B0300673B030008B42DE927
:105D9000F34309AE136856F8049B00F10C058846DE
:105DA000002151600446197017462846802225F0CC
:105DB000FAFF324649462846019628F0B9FFD4F842
:105DC0009000B0B108F078FC1349D4F8900008F0C6
:105DD00065FCD4F8906033682846D3F8049027F027
:105DE000B3FC294602463046C847D4F8900008F074
:105DF00063FC2846666827F0A7FC29460246304621
:105E000007F0ACFC3A4641462046FFF7E3FE02B0FD
:105E1000BDE8F04301B07047E63B030010B504460F
:105E2000406890B010B3237803BB0368DB699847E0
:105E300001230AAA0E49237004A8FFF73BFD6068FE
:105E40000368DB68984703AA0A490AA8FFF732FDEE
:105E5000094B009304AA094B09480AA9FFF796FFCA
:105E60000AA8FFF7A8FC04A8FFF7A5FC10B010BD16
:105E7000EC3C0300C33B0300D33B03009F4A0300F9
:105E8000A006002001490248FFF71CBC6C1B002043
:105E9000A00600200148FFF725BC00BFA006002097
:105EA00008B5036813F8010C25F06BFDB0FA80F01B
:105EB000400908BD08B5007825F063FDB0FA80F010
:105EC000400908BDF8B515464268521A521B0446EF
:105ED0000B460AD04DB106684F19012A06EB0100A6
:105EE00006EB070108D1F257F25463685D1B236883
:105EF000656000225A55F8BD25F03CFFF5E770B506
:105F000003684668CD1A33449A42044605D10023FB
:105F100045600B702068284470BD521A2946FFF76F
:105F2000D1FFF7E72DE9F843D0E9008607464FEAAD
:105F3000A6094546B9F1000F2C4616DD2846FFF7A5
:105F4000B9FFF8B96C1C2046FFF7B4FFD0B9AC1C00
:105F50002046FFF7AFFFA8B9EC1C2046FFF7AAFFC9
:105F6000043578B909F1FF39E4E74644731B022B85
:105F700015D0032B0DD0012B03D12046FFF79AFF3C
:105F800000B93446224641463846FFF7B8FFBDE81F
:105F9000F8832846FFF78EFF0028F3D1013420460E
:105FA000FFF788FF0028EDD10134E6E72DE9F34142
:105FB000D0E9007506464FEAA5083D44B8F1000F48
:105FC0002C461ADD01A80195FFF76AFF18BB6C1E6D
:105FD00001A80194FFF764FFE8B9AC1E01A8019481
:105FE000FFF75EFFB8B9EC1E01A80194FFF758FF58
:105FF000043D80B908F1FF38E0E7EB1B022B1CD011
:10600000032B12D0012B05D102A840F8044DFFF755
:1060100047FF00B93C46D6E9002321461A443046E2
:10602000FFF76DFF02B0BDE8F08102A840F8045D03
:10603000FFF736FF0028EED16C1E02A840F8044D91
:10604000FFF72EFF0028E6D1013CDDE710B504463E
:10605000FFF7ACFF2046BDE81040FFF763BFFFFF2E
:1060600010B543689942144604D90A4602482146AD
:1060700012F040FF084610BD923C030070B50E467A
:1060800086B00446FFF74EFF756831682B46002244
:106090002046FFF798FBA8B90B4A29462046FFF790
:1060A000DFFF4FF0FF33024621466846FFF716FC3C
:1060B00069462046FFF74EFD6846FFF77CFB01204E
:1060C00006B070BD0020FBE7203C030008B5036864
:1060D000002B02DA094812F00AFF8B4208D9490066
:1060E0008B4205D20029B6BF6FF000430160036008
:1060F0000068BDE8084001300BF0D4BB5F3C0300F2
:1061000073B54CF250330025C0E9003500F1180397
:10611000C0E90435012600F130030446C0E90A3520
:10612000C0E90255057680F8305004230096A82275
:10613000C021403008F034F933460096A822C0212F
:1061400004F1580008F02CF9FF2300951A4619466F
:1061500004F1700008F024F9204602B070BD10B5BB
:1061600004466830FFF727FB04F15000FFF723FBDC
:1061700004F13800FFF71FFB04F11800FFF71BFBC9
:106180002046FFF718FB204610BD2DE9F7430346D4
:106190004668044653F8080B98428846174602EBB7
:1061A00006052CD0A1688D420DD827B13A4641464C
:1061B0003044FFF74FFB23686560002220465A55A4
:1061C00003B0BDE8F083019501A8FFF77FFF81468A
:1061D0001EB132462168FFF73DFBB8F1000F06D033
:1061E0002FB13A46414609EB0600FFF733FB204644
:1061F000FFF7E1FA019BC4F80090A360DBE70F2DE5
:10620000D3D901950F21DFE708B5D1E90012FFF7D7
:10621000BCFF08BD73B505460E4619B912B10D484D
:1062200012F062FE941B0F2C019406D9002101A8E4
:10623000FFF74CFF019B2860AB602246314628687F
:10624000FFF708FB019B2A686B600021D15402B064
:1062500070BD00BF353C030038B500F108030446AB
:1062600003600D4649B1084627F06EFA2A18204609
:106270002946FFF7CFFF204638BD4FF0FF32F6E743
:106280002DE9F0434FF4E1318FB004463548364FE5
:10629000364EDFF8F480FFF7C1FD354902A8FFF75D
:1062A000DBFF002300931A461946204608F078F8D1
:1062B0003225642009F004F9394608A8FFF7CCFF1D
:1062C0000096434602AA08A92648FFF75FFD8146CB
:1062D00008A8FFF770FAB9F1000F1DD0029824F05A
:1062E00062FF01282DD1234908A8FFF7B5FF00233D
:1062F0000193214B009302AA204B1A4808A9FFF7EB
:1063000045FD814608A8FFF756FAB9F1000F03D002
:106310000299204608F066F90023194600931A46B0
:1063200008A808F03DF808A9204608F068F908B167
:10633000013DBED102A8FFF73EFA20460FB0BDE8EE
:10634000F083029824F02FFF0228E5D10C4908A819
:10635000FFF782FF0B4B034802AA08A9FFF716FDBF
:10636000CFE700BFA0060020ED3C0300F83C03008F
:10637000EC3C0300993D0300A13D03001F3D0300D9
:10638000803D03008B3D03009F4A030070B590B031
:106390000C4604A81E4915461E46FFF75DFF4FF444
:1063A000E1311C48FFF73AFD1B490AA8FFF754FFEB
:1063B00002230193194B009304AA194B15480AA90B
:1063C000FFF7E4FC0AA8FFF7F6F916490AA8FFF759
:1063D00043FF154B01940093CDE90256134B0D4832
:1063E00004AA0AA9FFF7D2FC04460AA8FFF7E3F9BA
:1063F00024B1049824F0D7FE012806D0092404A86B
:10640000FFF7D9F9204610B070BD0724F7E700BFA9
:10641000EC3C0300A0060020ED3C0300263D0300F9
:106420001F3D0300553D0300703D0300633D030025
:106430000123FFF7ABBFFFFF73B505460E4619B941
:1064400012B10D4812F050FD941B0F2C019406D987
:10645000002101A8FFF73AFE019B2860AB602246AD
:1064600031462868FFF7F6F9019B2A686B60002126
:10647000D15402B070BD00BF353C030010B500F12F
:1064800008030360D1E9003204461A441946FFF7B5
:10649000D3FF204610BDFFFF0148FFF731BE00BF0C
:1064A0003807002070B50C4C04F12800FFF783F981
:1064B00004F11000FFF77FF9D4E90156AE4204D091
:1064C0002846FFF74CFE8035F8E7606818B1BDE854
:1064D00070400BF007BA70BD3807002000207047ED
:1064E0000069013018BF0120704708B503685B6B75
:1064F000984780F00100C0B208BD13B502AB026836
:1065000003F8011D546819460122A04702B010BDCE
:1065100007B5036801225B6A0DF10701984701285E
:106520000CBF9DF807004FF0FF3003B05DF804FB8F
:1065300000690B69C31A58425841704770470020E0
:10654000704740F20C41C0680BF0D8B910B510216B
:1065500004460BF0D3F9204610BD08B5FFF7F6FF4F
:1065600008BD7FB503680446164601A81D6A07F0FA
:1065700079FF324601992046A847044601A808F051
:10658000ECF8204604B070BD036810B504469B6863
:106590009847A368013BA3602BB923682046DB68BA
:1065A000BDE81040184710BD00F1080370B504465F
:1065B00003600E46B1B1084627F0C6F80F2805461D
:1065C00004D901300BF06EF9A5602060012D206820
:1065D0000BD196F9003003702368656000225A558C
:1065E000204670BD044812F07FFC002DF4D02A46EE
:1065F000314625F0B4FBEFE7353C0300036813B9DF
:1066000062B6BFF36F8F704713B5EFF3108300933B
:106610000123019372B6019B5A1E019233B10468A3
:106620006846FFF7EBFF204602B010BD6846FFF753
:10663000E5FFF8E713B50446EFF310830093012359
:10664000019372B6019B5A1E0192684633B1FFF75F
:10665000D5FF601CC0F3090002B010BDFFF7CEFFEC
:10666000FAE7FFFF0023C0E905334FF47A72C0E96F
:106670000132C3610B6903618B698361CB69044A91
:1066800002601BB15A6801325A60C361704700BF93
:10669000543F030010B50446006828B14368013B2D
:1066A00043600BB9FFF770FF204610BD10B5044BD7
:1066B000044640F81C3BFFF7EDFF204610BD00BF2D
:1066C000543F030030B5036901338FB0044620D135
:1066D000114902A8FFF768FF4FF4E1310F48FFF7B7
:1066E0009DFB0F4908A8FFF75FFF0E4B009302AA1E
:1066F0000D4B0A4808A9FFF749FB054608A8FFF714
:106700005AF81DB1029824F04EFD206102A8FFF74F
:1067100052F80FB030BD00BFEC3C0300A0060020D3
:106720002D3F03003B3F03009F4A030070B5044622
:1067300092B00D461646FFF7C5FF2369002B24DBF8
:106740001E4906A8FFF730FF4FF4E1311C48FFF760
:1067500065FB6369DBB11B490CA8FFF725FF636983
:106760000295CDE9036323690193174B009306AAB1
:10677000164B13480CA9FFF709FB04460CA8FFF7BA
:106780001AF806A8A4B9FFF716F8002013E010497C
:106790000CA8FFF709FFCDE90256236901930D4BC1
:1067A000009306AA0C4B06480CA9FFF7EFFAE4E7A2
:1067B000FFF701F8012012B070BD00BFEC3C0300F0
:1067C000A00600206C3E03008C3E03007C3E0300CC
:1067D0009E3E0300BF3E0300B23E030070B5036956
:1067E000002B90B005460E46144629DB154904A837
:1067F000FFF7DAFE4FF4E1311348FFF70FFB1349BF
:106800000AA8FFF7D1FE02942B690193104B009365
:1068100004AA104B0C480AA9FEF770FF0AA8FEF75D
:10682000CAFF224631460848FFF728F9054604A862
:1068300025B1FEF7C0FF204610B070BDFEF7BBFFCC
:106840000024F8E7EC3C0300A0060020463E0300CD
:106850005D3E0300533E030030B50369002B8FB04B
:10686000054634DB84695CB104F58160FFF7CCFE3A
:10687000002808DDA86900F58160FFF7C5FE044621
:1068800020460FB030BD154902A8FFF78DFE4FF42A
:10689000E1311348FFF7C2FA124908A8FFF784FE56
:1068A0002B690193104B009302AA104B0C4808A9C6
:1068B000FFF76CFA044608A8FEF77DFF4CB102987A
:1068C00024F071FC041E04DA02A8FEF774FF002411
:1068D000D6E702A8FEF76FFFD2E700BFEC3C03004B
:1068E000A0060020ED3E0300F93E03001F3D03001B
:1068F0002DE9F04F0369002B93B00746C0F2888062
:106900008369002B00F08480434906A8FFF74CFE02
:10691000BA69EFF310830C9301230D9372B60D9BAC
:10692000591E0D911BB1D2F80854C5F580653B4E38
:106930000CA8FFF763FE002430464FF4E1314FF01E
:106940000108FFF76BFA013D86F88C4086F88D80D0
:1069500033490CA8FFF728FE02953B690193314BA0
:1069600000933046304B06AA0CA9FFF70FFA0646F3
:106970000CA8FEF720FF002E3FD0079B002B45D030
:10698000C246AC4239D2079B9C4236D2069BBE69B6
:1069900013F804B0EFF31083CDE9043872B6059B09
:1069A0005A1E059223B3EFF31083CDE90C3A72B669
:1069B0000D9B5A1E0D923BB1D6F80834A3F58063A7
:1069C000D3F1000949EB03090CA8FFF717FEB9F151
:1069D000000FE4D1D6F8000406F800B0FFF72AFE55
:1069E000D6F80834C6F800040133C6F80834D6E7F0
:1069F00004A8FFF703FE0134C3E74FF0FF3406A8F5
:106A0000FEF7D9FE204613B0BDE8F08F1C46F6E72E
:106A10004FF0FF34F6E700BFEC3C0300A006002077
:106A2000123E0300223E0300533E030038B50446E5
:106A300080690D4650B100F58160FFF7E5FDA84281
:106A400004D22046BDE83840FFF752BF38BD2DE9DB
:106A5000F74F07468A4611461646FFF7E7FF3B69A0
:106A6000002B33DBBC6994B34FF0010B5644002478
:106A7000D946B2452BD0BBF1000F28D0BD69D5F85F
:106A800008344BB995F800809B460AF8018BBBF19E
:106A9000000FEED00134ECE7EFF31083CDE90039BD
:106AA00072B6019B5A1E019263B1D5F8040415F821
:106AB0000080FFF7BFFDD5F80834C5F80404013B9A
:106AC000C5F808346846FFF799FDDEE70024204644
:106AD00003B0BDE8F08FFFFF10B50369002B8EB047
:106AE000044628DB154902A8FFF75EFD4FF4E131AB
:106AF0001348FFF793F9134908A8FFF755FD2369D9
:106B00000193114B009302AA104B0D4808A9FFF7FF
:106B10003DF9044608A8FEF74EFE4CB1029824F059
:106B200042FB044602A8FEF746FE20460EB010BD0A
:106B30004FF0FF34F6E74FF0FF34F6E7EC3C03008C
:106B4000A0060020E43D0300EB3D03001F3D0300D1
:106B500010B50369002B8EB004461CDB0F4902A858
:106B6000FFF722FD4FF4E1310D48FFF757F90D49CA
:106B700008A8FFF719FD236901930B4B009302AAA4
:106B80000A4B074808A9FFF701F908A8FEF713FE0A
:106B900002A8FEF710FE0EB010BD00BFEC3C0300D3
:106BA000A0060020343E03003C3E03001F3D0300CE
:106BB00010B50369002B8EB004461FDB104902A8F4
:106BC000FFF7F2FC4FF4E1310E48FFF727F90E49C9
:106BD00008A8FFF7E9FC236901930C4B009302AA74
:106BE0000B4B084808A9FFF7D1F808A8FEF7E3FD0A
:106BF0004FF0FF33236102A8FEF7DDFD0EB010BD9C
:106C0000EC3C0300A0060020F43D0300023E03001C
:106C10001F3D030010B503688EB01B6904469847FA
:106C2000002828DC2369002B27DB154902A8FFF781
:106C3000BBFC4FF4E1311348FFF7F0F8124908A804
:106C4000FFF7B2FC23690193104B009302AA104B8B
:106C50000C4808A9FFF79AF8044608A8FEF7ABFD10
:106C60001CB1029824F09FFAC4B202A8FEF7A3FD5B
:106C700020460EB010BD0124FAE70024F8E700BF5B
:106C8000EC3C0300A0060020073F0300193F03006F
:106C90001F3D030030B50C4695B0054602A807F02D
:106CA00077FB2369002B33DB1D4908A8FFF77CFC29
:106CB0004FF4E1311B48FFF7B1F81B490EA8FFF76D
:106CC00073FC23690193194B009308AA184B1548CC
:106CD0000EA9FFF75BF804460EA8FEF76CFDA4B101
:106CE00008992C4602A807F07DFC124B44F8043B9F
:106CF00003AB0FCB84E80F009DF81C302B7508A860
:106D0000FEF759FD284615B030BD08A8FEF753FD23
:106D1000002300931A461946284607F041FBF1E785
:106D2000EC3C0300A0060020D53E0300E03E03003B
:106D30001F3D03009443030010B50369002B8EB080
:106D4000044625DB134902A8FFF72EFC4FF4E1317E
:106D50001148FFF763F8114908A8FFF725FC2369DC
:106D600001930F4B009302AA0E4B0B4808A9FFF7A3
:106D70000DF8044608A8FEF71EFD1CB1029824F089
:106D800012FA84B202A8FEF716FD20460EB010BD1E
:106D90000024FAE7EC3C0300A0060020C83D0300F5
:106DA000D53D03001F3D030013B500230446D1E980
:106DB0000002C1E900332368206002A800936368E1
:106DC00040F8043D6260FFF765FC204602B010BD4C
:106DD000F7B54FF47A730025C0E90153184B0360EF
:106DE00001274FF0FF33C0E904350446C0E90655DA
:106DF00080F8207040F20C400AF054FD4FF480629D
:106E00000646294624F0CFFF1020C6F80054C6F8E5
:106E10000454C6F80854CDE900650AF043FD094B57
:106E20000360C0E90177C6600190694604F118006B
:106E3000FFF7BAFF01A8FFF72DFC204603B0F0BD15
:106E4000543F0300B43D030073B54FF47A7300253B
:106E5000C0E90153174B03600446C0E90415C0E9BB
:106E6000065580F8205040F20C400AF01BFD4FF40C
:106E700080620646294624F096FF1020C6F800548A
:106E8000C6F80454C6F80854CDE900650AF00AFDB6
:106E90000123C0E90133084B0360C66001906946D5
:106EA00004F11800FFF780FF01A8FFF7F3FB20466D
:106EB00002B070BD543F0300B43D0300704708B5F5
:106EC00003685B69984780F00100C0B208BD13B544
:106ED00002AB026803F8011D546819460122A0475D
:106EE00002B010BD80688B68C31A58425841704781
:106EF00010B500234360064B03604FF0FF33044698
:106F0000C0E902311030FFF763FF204610BD00BF1B
:106F1000044003002DE9F0418B68013392B007462D
:106F20000C4666D009AA354903A8FEF7C3FC4FF406
:106F3000E1313348FEF772FF02AA324909A8FEF791
:106F4000B9FCA3680193304B009303AA2F4B2C4844
:106F500009A9FEF71BFF054609A8FEF72CFC002D2A
:106F600044D0039824F01FF9236A8342014604F1B8
:106F700010080AD141463846FFF774FB03A8FEF714
:106F80001AFC384612B0BDE8F08109A8FFF75CFF93
:106F90000A9B63610B9BA3610C9BE361109E0D9B9D
:106FA000E56A23620E9B6362AE420F9BA36215D01B
:106FB00016B17368013373607DB16B68013B6B6020
:106FC0005BB92B6828469B689847AB68013BAB6070
:106FD0001BB92B682846DB689847E6629DF8443069
:106FE00084F8303009A8FFF761FBC3E703A8FEF778
:106FF000E2FB3846FFF7ECFEC3E700BFEC3C0300C2
:10700000A0060020D43F0300E63F03001F3D03001D
:1070100030B58368013391B004460D4623D10AAAE6
:10702000124904A8FEF746FC4FF4E1311048FEF780
:10703000F5FE03AA0F490AA8FEF73CFC0E4B01958A
:10704000009304AA0D4B0A480AA9FEF79FFE0546C5
:107050000AA8FEF7B0FB1DB1049824F0A4F8A060C4
:1070600004A8FEF7A8FB11B030BD00BFEC3C030044
:10707000A0060020983F0300A63F03001F3D030029
:10708000C168FFF7C5BFFFFF70B58368002B92B0E2
:1070900005460E4614462BDB0CAA164906A8FEF739
:1070A00009FC4FF4E1311448FEF7B8FE05AA134974
:1070B0000CA8FEF7FFFB0294AB680193104B009302
:1070C00006AA104B0C480CA9FEF718FB0CA8FEF7FB
:1070D00072FB224631460848FEF7D0FC054606A85A
:1070E00025B1FEF768FB204612B070BDFEF763FBCA
:1070F0000024F8E7EC3C0300A0060020B63F0300A4
:10710000C43F0300533E030010B50949CB78002467
:107110000533DBB22246E0B2834204D8C85C831A4E
:107120005842584110BD085D0244D2B20134F2E722
:10713000C5070020154AB2F90030032B1AD8DFE842
:1071400003F002081114552807D1114908700133C2
:1071500002E0AA2803D000231380002070470C49C6
:107160004870F4E70A498870F1E77928F3D80849AC
:10717000C870ECE70649C854C97805318B42E6D19E
:1071800004490B8000231380FFF7BEBF4608002090
:10719000C5070020C2070020074B1B79834209D195
:1071A000064B05221A80064A00231370054A012067
:1071B0001370704700207047C5070020C0070020EB
:1071C000C40700204508002013B50F4A0F4CB2F940
:1071D0000020B4F900309A4202DD0D4A12782AB13B
:1071E0000C4B01221A70002002B010BD0A49022285
:1071F00019440DF1060024F0B2FD2388BDF9060004
:1072000002332380F0E700BFC2070020C007002040
:10721000C407002045080020C5070020074B1A7846
:1072200012B1002018707047054BB3F90000054BF0
:10723000B3F90030C31A584258417047450800203E
:10724000C0070020C2070020074B00221A70074B1E
:1072500055221A70AA225A7011229A70044A187183
:107260000521118018467047C808002048080020F2
:10727000CA0800200D4B187830B5A0B90C4CB4F9F1
:1072800000307E2B09DC0B4A591FD1700146834226
:1072900004DC581C00B2D154208030BD155C294458
:1072A000C9B20130F3E70020F7E700BFC8080020AB
:1072B000CA080020480800204309012200F01F00EE
:1072C00002FA00F02033044A42F82300BFF34F8F44
:1072D000BFF36F8F704700BF00E100E003681B78C9
:1072E000092B0BD80A4A52F823303BB11A7F2AB136
:1072F0000279012A03D1032283F82E207047022A43
:1073000001D10122F8E7032AF8D10222F4E700BFF5
:107310008411002003681B78022B0BD80A4A52F80C
:1073200023303BB11A7F2AB10279012A03D103220B
:1073300083F82E207047022A01D10122F8E7032AA0
:10734000F8D10222F4E700BF5C11002010B5037FE2
:107350000446B3B1437FBBB1D0F81C318BB13C3094
:10736000984794F98B00FFF7A7FF94F98A00FFF77D
:10737000A3FF94F98C00FFF79FFF94F98D00FFF7AE
:107380009BFF0023237710BDD0F83031002BF8D0BD
:10739000A430984794F9E500FFF78EFF94F9E400D4
:1073A000FFF78AFF94F9E600FFF786FF94F9E700FC
:1073B000E5E7036801211B6B184710B403689C6B59
:1073C0000123A4465DF8044B604707B5037F8DF8A1
:1073D000071063B1437FC3B190F82C309BB1D0F854
:1073E0003834FE2B07D9012380F82D30436000206C
:1073F00003B05DF804FBC2189DF8071082F8331241
:107400000133C0F838340120F2E7D0F82831002BDE
:10741000F9D001220DF10701A4309847F3E7C0F835
:1074200040147047C0F84414704790F83C34D0F8CA
:107430003404C01A704790F83C34D0F834148B42AE
:1074400002463FBFC118013391F8320382F83C3441
:1074500028BF4FF0FF30704790F83C34D0F8342408
:1074600093423ABFC01890F832034FF0FF30704794
:1074700090F82E30022B03D090F82E30032BF7D14A
:107480007047F8B5037F04460D46164693B1437F17
:107490004BB18F18BD420BD0236815F8011B1B6838
:1074A00020469847F6E7D0F828310BB1A43098472A
:1074B0003046F8BD1E46FBE738B5037F04460D464F
:1074C00033B1437F23B1D0F81C310BB13C30984726
:1074D000637FDBB1294BC4F880501A6A94F82430DA
:1074E0005BB327490F23002284F833308D424FF0DD
:1074F000010384F8312084F8343015D10E2384F848
:107500003030FF2384F8323084F82F20237F53B1AA
:10751000D4F800313BB104F17C0104F13C00984700
:1075200008B10023237738BD022284F83020CC2212
:1075300084F8322084F82F30E8E7124B1B68C2F33E
:1075400002618B400E49C2F302328D4223FA02F3EC
:107550000D4AB3FBF2F303F1FF3208D00B4B9D420F
:10756000D4D141F20F03238784F83720CEE741F6C8
:107570001A320133228784F83730C7E700E0014030
:10758000A0860100CC3F0020006CDC02801A0600BF
:1075900017B4D0F8243101914BB10169019A00F57B
:1075A0009A742144A43003B05DF8044B18470120BD
:1075B00003B05DF8044B70477FB5436801930368DF
:1075C0001A78022A46D81A783B4B53F82240002CEE
:1075D00040D0237F002B3DD0037A012B03D103231E
:1075E00084F82E3036E0022B1DD1012384F82E3092
:1075F000019E04F59A753246294604F2323024F091
:10760000AEFB0021C4F83464216184F83C14FF22ED
:10761000284624F0C8FBD4F84034DBB1019804B00C
:10762000BDE870401847032B01D10223D8E7042B93
:1076300012D184F82E302369019A1344FE2B2DD8E1
:1076400001212046FFF7A4FF0290029B13B9236992
:107650000133236104B070BD052B09D184F82E30AD
:10766000D4F84434002BF5D004B0BDE8704018477E
:10767000062B18D1042384F82E302369019A134471
:10768000FE2B0BD801992046FFF782FF0390039B46
:10769000002BDFD1019A23691344DAE70021204649
:1076A000FFF776FFD6E7072B01D10523D6E7082B96
:1076B000D0D1062394E700BF5C110020F0B580F81C
:1076C00025309DF8143080F83D340025DF234FF439
:1076D0007A76C0E905121E4F07600122C0E9015603
:1076E00005610577427780F82450866280F82C5037
:1076F00080F82D50C0F80051C0F80451C0F808516E
:10770000C0F80C51C0F81051C0F81451C0F818510D
:10771000C0F81C51C0F82051C0F82451C0F82851BD
:10772000C0F82C51C0F83051C0F83454C0F8385467
:1077300080F88A3080F88B3080F88C3080F88D307B
:1077400080F8E43080F8E53080F8E630F0BD00BF26
:10775000284003002DE9FF414369002B044603DA6A
:10776000002004B0BDE8F0818269002AF8DB8B427A
:10777000F6DA8A42F4DAD9B20222684602AE0AF098
:1077800021F830460322217E0AF01CF800203DF843
:10779000101000258B1109B336F81520F2B183EAD9
:1077A0009217FF061AD181EA0207FF0716D403F0E9
:1077B0001F0312F00100236217D1022BD0DCA36952
:1077C0001D4D84F8240035F833101C4A1C4801F084
:1077D0005BFF6369194A35F8331028E00135032D42
:1077E000D9D101300328D2D1BAE7092BB8DC12F481
:1077F000F04FA369134F104E11484FF0010584F864
:1078000024500CBF4FF080624FF0A0623A4311F455
:10781000F04F36F833100CBF4FF080684FF0A0687F
:1078200001F032FF636936F8331048EA0702044872
:1078300001F02AFF012094E77041030010040107C2
:10784000F83E00201000010073B5012505770446BD
:1078500000F045FA01462046FFF77CFF237F1840E1
:107860002077002800F09280637F002B00F0898051
:1078700023686C499B6A2046984794F82430226A12
:10788000002B57D0684B43F82240684BC4F80031B6
:10789000674BC4F80431674BC4F80831664BC4F831
:1078A0000C31664BC4F81031654BC4F81431654B8C
:1078B000C4F81831644BC4F81C3104F12F03C4F828
:1078C000A030624BC4F89830236A564A84F87C3062
:1078D0000023C4E9202394F82520C4E924339A42E4
:1078E00004F17C030CBF01220222C4F89C300C235B
:1078F00084F8882084F88930637F04F17C0604F1E1
:10790000D80500960195002B7CD094F82430002BEC
:1079100073D004F0EDFE6A46062105F0E3F8237FFC
:107920001840D4F800312077314604F13C009847E4
:1079300050BB2BE0464984F8355041F82240454A77
:10794000C4F80021444AC4F80421444AC4F8082178
:10795000434AC4F80C21434AC4F81021424AC4F8EF
:107960001421424AC4F81821414AC4F81C2104F1E8
:107970003502C4F8A0203F4AC4F8982084F8363075
:10798000A2E794F824301BB10023237702B070BD26
:107990002F4A216A84F8E33042F82140364AC4F87D
:1079A0002021364AC4F82421354AC4F82821354A12
:1079B000C4F82C21344AC4F83021226A84F8D82033
:1079C000184AC4F8DC20B4F8F820A4F8E02094F8B1
:1079D000252084F8EA30002A0CBF0122022284F814
:1079E000E22040F60C42A4F8E820284AC4F8EC2033
:1079F00004F1D802C4E93C237EE704F079FE6A462C
:107A000005218AE704F074FE07216A4605F06AF84A
:107A1000237F18402077D4F82031294604F1A400B0
:107A200085E700BFA086010084110020DD8F0000E3
:107A3000798F0000AD8F0000C58D0000ED8D000036
:107A4000F98D00000D8E0000258E0000DD72000013
:107A50005C110020C1A10000CD9F000001A000002A
:107A6000C1A20000819E00008D9E0000A19E00002A
:107A7000CDA200001573000061980000319700004E
:107A80006597000099970000AD970000B975000058
:107A900010B5036804465B6A984701236377204664
:107AA000BDE81040FFF7D0BE38B5036804465B6AF6
:107AB0000D46984700236377A4F8F8502046BDE8A8
:107AC0003840FFF7C1BEFFF7EFBF2DE9F0471E4674
:107AD000037F044692463BB3D0F8103163B300F104
:107AE0003C0990F8882048469847054668B9D4F87C
:107AF000047157B19DF8243084F82E0083F00103FF
:107B0000324651464846B847054607F01DFD8046B7
:107B100007F01AFD089BA0EB0800984204D294F8E5
:107B20002E300BB9002DF3D094F82E30012B0CBF62
:107B300030460020BDE8F0870125E6E72DE9F04753
:107B40009A46037F089F04469146002B39D0D0F80F
:107B5000103123B300F13C0890F888204046984744
:107B6000054668B9D4F8086156B19DF8243084F808
:107B70002E0083F00103524649464046B047054671
:107B800007F0E2FC064607F0DFFC801B874208D9BD
:107B900094F82E302BB9002DF5D004200FE00125EC
:107BA000EEE7002DF9D194F82D3063B994F82E301A
:107BB0005BB194F82E30032B14BF00200220BDE8E7
:107BC000F0870620FBE70120F9E70520F7E737B546
:107BD00090F8FC5090F838340191826A009229465E
:107BE00000F233220446FFF7A9FF002384F82C306B
:107BF00003B030BD037F4BB10023012280F82D304C
:107C0000C0F8FC1080F82C20C0F838347047FFF71B
:107C1000F1BFFFF7EFBF2DE9F3411646027F9DF854
:107C2000205004460F469846002A31D0B5B103686B
:107C3000DB6A9847032D28BF0325013DEDB2FF2DD8
:107C4000236807D0E90028FA01F11B68C9B2204671
:107C50009847F2E71B6B0021204698479DF8243097
:107C6000FF2E28BFFF26003318BF01230193A36A0C
:107C7000009304F23232F3B239462046FFF725FF73
:107C80000023C4F8340484F83C3402B0BDE8F08129
:107C90001046FAE707B5019300230093FFF7BBFFF7
:107CA00003B05DF804FBFFFF13B5002423460094E6
:107CB000122213210548FFF701FD009423461B22E1
:107CC0001A210348FFF7FAFC02B010BDCC080020CF
:107CD000140D002008B507F003FB002008BD272085
:107CE0007047704737B5FFF7FCFF01210D2007F003
:107CF00023FA00210D2007F037FA684607220321F6
:107D000009F060FDBDF800301C4CC3F3841301255D
:107D1000684607220521E55409F054FDBDF80030FE
:107D2000C3F38413684607220621E55409F04AFD8F
:107D3000BDF80030C3F38413684607220921E554D7
:107D400009F040FDBDF80030C3F3841368460722F4
:107D50000A21E55409F036FDBDF80030C3F3841361
:107D600007220B216846E55409F02CFDBDF80030D0
:107D7000C3F38413E55403B030BD00BF9E1100204F
:107D8000F0B44B788E780A78CD780F4C1B0136030F
:107D9000A75C0C794A7906F440562D02DBB205F453
:107DA0004071334307F003050B43D201E101074C57
:107DB0002B43C9B2064DA171D2B263802272056015
:107DC0000020F0BC704700BFA842030000420440FE
:107DD00054445700024B0020FF2218701A7070475D
:107DE0000042044070B5836A84B004460E46ABB1CD
:107DF00093E8070001AD85E807006168E26A097849
:107E000019601E719A601846636A9847A36A1BB18D
:107E100095E8070083E8070004B070BD01AD2B466C
:107E2000EBE700BF30B4EFF30383103B5BB203F129
:107E3000C0011C4A1C4C52F821006FF3104042F85C
:107E4000210054F82330D3E906218A4212D0186960
:107E50009C6868B193F820500F2D18D9616840F8DC
:107E60002210D96901328A429A6103D030BC70472E
:107E70006068F7E75B680D4993F90330012203F06E
:107E80001F005B09824041F8232030BC7047072D5A
:107E900003D821798154D969E4E7A48820F81240F5
:107EA000E0E700BF00600040443F002000E100E048
:107EB000F0B4EFF30383103B5BB203F1C002284937
:107EC000284C51F822006FF3104041F8220054F87A
:107ED00023305C685A69206ADD6910B14078012856
:107EE0000FD0AA420BD0D3E9020129B193F8204068
:107EF0000F2C16D951F82210416001325A61F0BCA2
:107F000070476E1E964214D021690029E9D094F979
:107F10000310154C01F01F064909B04044F8210038
:107F2000DFE7072C95BF895C31F812100171818061
:107F3000E3E794F9036006F1C0077409A40051F85F
:107F400027C004F1604404F5614406F01F06B04008
:107F50006FF3104C41F827C0C4F880012060C0E7DF
:107F600000600040443F002000E100E070B4EFF307
:107F70000383103B5BB2304A304C03F1C00152F82E
:107F800021006FF3104042F8210054F8230082686A
:107F9000D278920705D54268527A012A01D070BC86
:107FA0007047590920310122254C03F01F0302FAC2
:107FB00003F344F82130BFF34F8FBFF36F8F436853
:107FC00093F90230002B2EDB5909203103F01F03F7
:107FD00002FA03F344F82130BFF34F8FBFF36F8FE2
:107FE000D0E90114237891F902106FF38613002968
:107FF000237014DB01F1C0050F4C4B099B0054F8B2
:10800000256003F1604303F5614301F01F018A40DD
:108010006FF3104644F82560C3F880211A600121EF
:1080200070BCFFF7DFBE826813786FF3861313709E
:10803000012170BCFFF7D6BE00600040443F002025
:1080400000E100E0F8B5EFF30384103C314B64B27B
:1080500053F82460736893F90230002B42DB5A090D
:10806000203201202C4903F01F0300FA03F341F8EA
:108070002230BFF34F8FBFF36F8FD6E90112137811
:1080800091F902106FF386130029137015DB01F1CB
:10809000C007224D4B099B0055F827C003F16043F0
:1080A00003F5614301F01F0100FA01F16FF3104C79
:1080B00045F827C0C3F880111960D5780023EDB2C8
:1080C000D3702A0721D4EB0712D405F01405142D20
:1080D00016D0C034114B53F824206FF3104243F8EC
:1080E0002420F8BDB26813786FF386131370E4E7A9
:1080F0000421304605F01405FFF774FE142DE8D175
:1081000030460821FFF76EFEE3E705213046FFF712
:1081100069FED8E7443F002000E100E00060004035
:1081200070B50D46016A8B7803F07B038B70037882
:10813000044623B3C0E90352E369186988B1226990
:108140007AB1A378816800688E68E16803F0030360
:10815000013B22FA03F300229BB22261B04768B9C7
:10816000216A8B7843F080038B70207878B9A378EC
:1081700003F00303022B0CD02B78CB7070BD8378F7
:1081800003F00303D21A2B44C0E90332D4E70020E2
:1081900070BD2B8843F47E43CB8170BD036A9A780F
:1081A00070B4D2B2054602F00B004E780C7898708D
:1081B0000020E8608D785D701D7866F301051D7004
:1081C000C9789974DD7904F05C0105F0A3042143BA
:1081D00002F07B02D97170BC9A707047F0B5846A66
:1081E00085B006468C461746BCB194E80F006D4634
:1081F00085E80F00F269F36A12782260E360C4F840
:1082000008C027712046736A9847B46A1CB195E884
:108210000F0084E80F0005B0F0BD6D462C46E9E77D
:1082200070B5D0E9072592F905202F490446500979
:108230000123203002F01F02002603FA02F26660DA
:10824000AE7041F82020BFF34F8FBFF36F8FE2690C
:1082500092F90B205009203002F01F0203FA02F2BB
:1082600041F82020BFF34F8FBFF36F8FE26992F97F
:1082700007205009203002F01F0203FA02F241F8F1
:108280002020BFF34F8FBFF36F8FE26992F909206F
:108290005009203002F01F02934041F82030BFF314
:1082A0004F8FBFF36F8FE369DA6822B1936810686C
:1082B0001B6A9847E3691B691BB19A681868136ABF
:1082C0009847EFF31082012383F31088E069074990
:1082D00000784C68C0F11F00834023434B604B681B
:1082E00082F31088002070BD00E100E0FC6F0440C4
:1082F0002DE9F8430D4609780323CB4013F0010321
:1083000001F1007218BF1023037002F560528378E8
:1083100052010121026204466A78C56161F30103DA
:10832000D5E9051061620021A370C4E90A1022B9E1
:10833000DBB2022262F30103A37095F90B60674B75
:10834000A87A7209203206F01F07012101FA07F707
:1083500043F82270BFF34F8FBFF36F8F604A614FB6
:1083600006F1C00C03EB060852F82CE000016FF395
:10837000104E42F82CE0C0B288F8000395F90500D1
:1083800047F826404FEA501C0CF1200C00F01F0E5D
:1083900001FA0EFE2E7943F82CE0BFF34F8FBFF3A6
:1083A0006F8F00F1C00C03EB000852F82CE036018F
:1083B0006FF3104E42F82CE0F6B288F8006395F99E
:1083C000076047F820404FEA561C0CF1200C06F0DD
:1083D0001F0E01FA0EFEA87943F82CE0BFF34F8F71
:1083E000BFF36F8F06F1C00C03EB060852F82CE0C8
:1083F00000016FF3104E42F82CE0C0B288F8000381
:1084000095F9090047F826404FEA501C00F01F0676
:108410000CF1200CB1402E7A43F82C10BFF34F8F93
:10842000BFF36F8F00F1C00C310152F82C60034490
:10843000C9B26FF3104642F82C6083F8001347F876
:108440002040EB68F3B15968266A0A68E7694FF47F
:10845000002C701DC2E900C094F800C0BCF1000FF0
:1084600001D0113656607E7836B9D67801270B30A8
:1084700067F305165060D6709A68186813689847B5
:10848000064640BB2B69002B2ED05968266A0A6825
:10849000E7694FF0006CF01CC2F800C0906094F8DF
:1084A00000C0BCF1000F01D00F3696607E7836B95F
:1084B000D67801270B3067F305169060D6709A685E
:1084C000186813689847064670B1EB681BB19A6844
:1084D0001868136A98473046BDE8F88300E100E069
:1084E00000600040443F0020EFF31082012383F33B
:1084F00010889B492E784868C6F11F06B34020EAD1
:1085000003034B604B6882F31088236A00229A7041
:108510001A715A729A72DA725A83297840F20722D3
:10852000CA40D20744BF4022DA7406221A77227862
:10853000E16972B1C868013A002800F008810120A1
:10854000120392B2024342F006009882988A824255
:10855000FCD1EE786A78A878F600032A46EA00167D
:1085600000F0E280002A0CBF4FF0E20E4FF0F20E56
:10857000ED696A7895F802C02F7B2878F6B2D201AF
:108580004FEA4C1C1E700CF0200C7F00D2B2861EED
:1085900007F0020742EA0C02012E4FF0000C83F8AC
:1085A00006E05F7383F808C040F2C8806E68D2B2FC
:1085B000DA71B2785A701F7896F801C032786CF38D
:1085C00001071F70F6789E74DE7902F05C0206F0F7
:1085D000A3063243DA7191F905C0624E0027C4E95F
:1085E0000377C4E905770CF1C00200F0030056F8E8
:1085F00022E067F3104E46F822E04FEA5C12920048
:1086000091F90B8002F1604202F561420CF01F0EFD
:108610004FF0010C08F1C0090CFA0EFEC2F880E11F
:10862000C2F800E056F8292067F3104246F82920E6
:108630004FEA5812920091F907E002F1604202F508
:10864000614208F01F080EF1C0090CFA08F8C2F8E0
:108650008081C2F8008056F8292067F3104246F85E
:1086600029204FEA5E12920091F9091002F160424E
:1086700002F561420EF01F0E01F1C0080CFA0EFE69
:10868000C2F880E1C2F800E056F828E067F3104E27
:1086900046F828E04A0992006D8902F1604202F52D
:1086A000614201F01F014FF6FF760CFA01F140F034
:1086B0007000B542C2F880111160987025812DD0EC
:1086C000EFF310818CF31088274A13681BB92748F1
:1086D0004025C370C57013680133136081F310889F
:1086E000218923480B0A1B0153FA81F150F82130EC
:1086F00023F0011323F4404343F0040340F82130F6
:10870000EFF31081012383F31088136813B113680A
:10871000013B1360136863B181F31088154B6360EC
:1087200000263046BDE8F88346F040064FF0F20ED2
:108730001EE70E4A8020D370D070EDE7022808BFF4
:1087400042F01002FF26D2B25E70DA7143E7C869C8
:10875000007A1040000200F4706040F00100EFE683
:10876000FC6F044000600040403F0020000D0440CA
:1087700000080440554943532DE9F04F9B46FF251F
:108780008024634B8BF802508BF80340614C1B6ACA
:108790002668614C9BF80050C3F302678BB0BE4063
:1087A000C3F3023326FA03F300910992A3FB0412E8
:1087B000CDE9021200266FF3820506931B0ACDE96C
:1087C00007068BF80050204605930196099B8342CB
:1087D00076DA9DF8203004930027504B049ADD5D33
:1087E000C5F34009C5F3800549EA050393425FD10B
:1087F0004B4B33F81780079B03FB08F8069BB3FB32
:10880000F8F4661EFF2E53D804FB08F4824621E0DC
:10881000059AB4FBF2F27F2A02FB03F354D9002B32
:10882000B8BFFF331B12A3F5C333A03B002BB8BF67
:108830005B429A454ADC9BF800309DF804208BF897
:10884000032043F00403A4EB08048BF80030002E4F
:108850003AD0013E2246E317DDE9020122F0C4FAD4
:10886000A0F5C330A038009A00F5C333A033002A26
:10887000CED10028B8BF4042824525DD274B9BF86A
:108880000110DA5D9BF800308BF80260C2F300043F
:1088900064F3861369F3041365F3C303C2F3C102DF
:1088A00062F301018BF80030009B8BF801100193FB
:1088B00001370D2F91D1089B1BB3099B984223DCF4
:1088C00000200BB0BDE8F08F5046F1E713498BF85C
:1088D0000260C85D9BF800100192C0F3000C6CF3BD
:1088E00086119BF801C069F30411C0F3C10065F360
:1088F000C30160F3010C9A468BF800108BF801C09D
:1089000099E70123089361E703200BB0BDE8F08FDE
:1089100000E00140CC3F0020A0860100B0420300EF
:10892000C0420300F0B4EFF30383103B5BB203F1EA
:10893000C001324A324C52F821006FF3104042F825
:10894000210054F82300C2690369126992B10BB186
:10895000F0BC7047026A9378446A03F07F0343F0E7
:10896000040300219370C160002CF1D08022F0BC80
:10897000FFF734BC026A002BEDD00678E6B1D48A4A
:10898000C4F30424B4422DD28578C16805F0030CE9
:10899000654609E00F78D77301345B1B2944B44264
:1089A000C0E903131ED223B3BCF1020FF2D10F882A
:1089B00047F47E47D781EFE78178C46801F003056B
:1089C000022D0AD02578D57001F003029B1A2244AB
:1089D000C0E90323002BBBD1BCE7258845F47E45C5
:1089E000D581F1E711796FF3C7111171002BAFD168
:1089F000B0E7117963F3C7111171ACE70060004073
:108A0000443F002030B583B0EFF30383103B5BB2EB
:108A100003F1C001554A564C52F821006FF3104043
:108A200042F8210054F82340E369DB6873B1A3697D
:108A300063B1636A0021C4E90511002B70D02046A0
:108A4000012203B0BDE83040FFF7C8BB22894FF6D2
:108A5000FF739A4220D0EFF31081012383F3108833
:108A6000444B1A681AB944484025C270C5701A6848
:108A700001321A6081F3108822894049130A1B01D0
:108A800053FA82F251F8223023F0011323F44043C9
:108A900043F0050341F822302278236A002A41D0AE
:108AA000D98AC80613D01B8AC3F308030193A369AC
:108AB000002B41D1636A2BB1042201992046FFF7B4
:108AC0008DFB22782AB1236AD98AC906E6D1BE2253
:108AD0001A7123894FF6FF72934221D01A0A1201AC
:108AE00052FA83F2254951F8223023F0011323F47E
:108AF000404343F0040341F82230EFF31082012396
:108B000083F310881B4B196811B11968013919607A
:108B10001B681BB918498020CB70C87082F310887D
:108B200003B030BDA17801F003010229BBD05B790D
:108B30000193A369002BBDD0A278606902F0030203
:108B400001A923F00CF9D4E90521A37803F003036C
:108B50001A44C91AC4E9052129B9636A1BB1012263
:108B60002046FFF73BFB2278ACE700BF00600040E7
:108B7000443F0020403F0020000D04400008044016
:108B800010B5EFF30384103C0B4B64B253F8240090
:108B9000D0E90821937803F07B03937019B1022286
:108BA0000021FFF71BFBC034044B53F824206FF364
:108BB000104243F8242010BD443F002000600040D4
:108BC00070B5EFF30384103C164B64B253F82400E5
:108BD0000278036A3AB9827802F00302022A02D0CC
:108BE0005979C9B202E0198AC1F308011D79EDB2C1
:108BF000EE0605F0380204D51D7FED0758BF42F0A0
:108C000040021D79466A05F0C7051D710EB1FFF7D8
:108C1000E5FAC034044B53F824206FF3104243F8B4
:108C2000242070BD443F00200060004070B5436ABE
:108C300084B004460E46ABB193E8070001AD85E869
:108C400007006168A26A097819601E719A60184667
:108C5000236A9847636A1BB195E8070083E8070019
:108C600004B070BD01AD2B46EBE700BF10B4EFF3CD
:108C70000383103B5BB203F1C001144A144C52F859
:108C800021006FF3104042F8210054F823305A6954
:108C9000D9698A4206D2D3E90240A8B1805CE0706B
:108CA00001325A61914202D05DF8044B70471A6953
:108CB000002AF9D19A685DF8044B937803F07B039E
:108CC00043F0040393707047E070E9E700600040F0
:108CD000443F002010B4EFF30383103B5BB203F179
:108CE000C001174A174C52F821006FF3104042F8A8
:108CF000210054F823305A69D9698A4206D2D3E94F
:108D00000240D0B1805CE07001325A619A698A42B7
:108D100007D2986819694079541C9C618854D3E93A
:108D20000621914206D19A68937803F03B0343F001
:108D3000040393705DF8044B7047E070E4E700BFF4
:108D400000600040443F002010B5EFF30384103C66
:108D500064B20A4B53F824008268937803F003034B
:108D600093700121FFF762FFC034054B53F82420B4
:108D70006FF3104243F8242010BD00BF443F002091
:108D80000060004010B5EFF30384103C64B20B4B5D
:108D900053F8240083689A7802F003029A708422C0
:108DA00019791A710421FFF741FFC034044B53F8BD
:108DB00024206FF3104243F8242010BD443F0020CC
:108DC0000060004010B40346F0241A69D9690020FD
:108DD0009070D47293F82A2083F82C20186283F8BC
:108DE000300059625DF8044B704700BF0346002015
:108DF00059601A72704700BF10B40446C4E90E32BD
:108E0000002061635DF8044B704700BFC368044AEB
:108E10009B1AB3FA83F35B090B700020704700BF05
:108E20004332495310B50269016804460023F0201B
:108E300093709370D07294F82A2084F82C208A6959
:108E4000E069236284F83030E360606222B19368A5
:108E500010681B6A984721684B691BB19A681868AB
:108E6000136A9847EFF31082012383F31088206878
:108E7000064900784C68C0F11F00834023434B60D3
:108E80004B6882F31088002010BD00BFFC6F0440C7
:108E900003685B69A3B190F82D2070B502F0FF055F
:108EA0006AB904469A6818689668238CA1692A46AC
:108EB000B047E26925620123626284F8333070BDF5
:108EC000704700BF002380F82F3080F8313080F8E1
:108ED000333090F82D2090F82A1080F82B1010B520
:108EE000C469046280F82C30436212B1012380F817
:108EF0003130026803695269B42199706AB15268CD
:108F000000211268997090F82D40FCB94FF0006173
:108F100011602321B42299729A7090F83020CAB15E
:108F200090F82A200021012A044680F8301014D03D
:108F300094F82920DA7094F82B2094F82C30013A18
:108F4000013384F82B2084F82C3010BD094C1160BB
:108F50005460DEE75122DA7210BDFFF799FF94F8F2
:108F60002A30012B03D194F828202369E2E72369F2
:108F7000DEE700BFDA42030010B5047A80F82E3035
:108F8000012CC0E906120AD1436880F82A405B0030
:108F900043F00103002280F8283080F829200123C3
:108FA00080F82D30FFF78EFF002010BD10B5047A39
:108FB00080F82E30012CC0E9061208D1436880F8F1
:108FC0002A405B00002280F8283080F82920002405
:108FD00080F82D40FFF776FF204610BD2DE9F047C1
:108FE00004460B780E6A8A680D4603F10073097B0C
:108FF0000560E869E66303F560536260AA6921725F
:109000005B01002182B02361C4E90D01BAB151684E
:10901000D2F808C00E6895F90E7003C90533736065
:109020004FF4002333606B4683E80300DCF80060F4
:1090300010680F701946B047002840F0D1806B6966
:10904000CBB1596822690F68266803C9033296F9C3
:109050000FC0BA604FF0000E6A46C7F800E082E821
:1090600003009868066881F800C018681146B04788
:10907000002840F0B880EFF31082012080F31088C0
:109080005F492B784E68C3F11F0300FA03F326EA09
:1090900003034B604B6882F3108822682369576A88
:1090A00095F90F1095F9102095F80DA095F90E601F
:1090B0003D78DFF858E1DFF858814FF0000C4FF0B1
:1090C000F00983F802C083F80B9097F8029009F03A
:1090D000030983F80090AD004FF0FA0983F8069079
:1090E00045F0200597F8019083F80190EDB2DD710D
:1090F0007D791D72FD789D7497F80490414F4FEA79
:10910000C90949EA00095FFA89F983F809904FEA29
:109110000A154FF023090EEB010A83F80A90EDB20D
:1091200001F1C00983F80DC08AF800534B0948F8D3
:10913000214057F829A09B0003F1604303F56143E8
:1091400001F01F016CF3104A47F829A000FA01F161
:109150000EEB0209C3F88011196002F1C001530936
:1091600089F800539B0048F8224057F8219003F1FA
:10917000604303F5614302F01F0200FA02F26CF350
:109180001049664547F82190C3F880211A6018DB22
:10919000B64406F1C00273098EF800539B0048F8EC
:1091A000264057F8221003F1604303F5614306F0AF
:1091B0001F06B0406CF3104147F82210C3F880013D
:1091C00018600020C4E908000F4B84F82D00A0614E
:1091D00084F82E00E06184F82F00E36084F830000A
:1091E00002B0BDE8F087AB69002BF9D09A68186827
:1091F000136A984700283FF43EAF02B0BDE8F087FD
:10920000FC6F0440006000404332495300E100E03D
:10921000443F0020F0B5856B83B004460F4635B35C
:1092200095E803006E4686E803002368E16B5A69FF
:1092300029602F713AB194F82D1021B99368106804
:109240001B69984723689B6933B194F82D201AB1A4
:109250009A68186813699847636B28469847A36B08
:109260001BB196E8030083E8030003B0F0BD6E462F
:109270003546DAE7EFF30383103B5BB2C033044AB1
:1092800052F823106FF3104142F82310704700BFCB
:1092900000600040F8B5EFF30383103B5BB2C033CE
:1092A000624A52F823106FF3104142F82310EFF393
:1092B0000383103B5BB25E4A52F8234021690B7B6B
:1092C00013F001032CD194F82C2094F82A0090423A
:1092D00016D094F82D300BB1022A43D02046FFF768
:1092E000D7FD236994F82820DA7094F82B2094F89D
:1092F0002C30013A013384F82B2084F82C30F8BD4F
:1093000094F8332002F0FF054ABB236ABBBB94F8F4
:109310002E3053B352220123CA7284F83030F8BD84
:1093200094F82D309BB194F8313083B9636AA26907
:109330004979D154D4E9082394F82E10013A013325
:10934000C4E90823A1B923695422DA72F8BD0020C8
:1093500001225423206284F82F20CB72F8BD84F8B8
:109360003330F8BD5223CB72F8BD5423CB72F8BD15
:10937000226952210123D17284F83030F8BD94F86B
:109380002D20002A32D094F83120002A37D02268CC
:1093900084F831505069002841D09269002A3ED0AB
:1093A000E669022E3BD9936810689F68A269B31ED4
:1093B000F4268E709BB22946B8472268E369526949
:1093C000916810688E68023B9BB22A462946B047D6
:1093D000E3692169023B0220C4E90803012284F801
:1093E00033200023FF228B72CA70F8BD626AA56920
:1093F000501C013BAA5CC4E90830CA70F5E7636AF7
:10940000A2694979D154D4E90832013B0132012BD8
:109410002169C4E9083204D0FF22CA70E5E7012BB4
:10942000DFD82023FF228B72CA70DEE70060004085
:10943000443F002038B5EFF30383103B5BB2374A5B
:1094400052F823402269D37A6FF3C303D37294F89E
:109450002F30002B39D103F0FF0094F82A1094F834
:109460002C30994220D1236A8BB994F82D1094F8AE
:10947000300000290CBF03210221C8BBF023D372A6
:10948000937803F0CF0393702046FFF7C3FEEFF30A
:109490000383103B5BB2C033214A52F823106FF3B1
:1094A000104142F8231038BDB3B9012924D094F8F3
:1094B00029000021D172D07094F82B200133013A99
:1094C00084F82C3084F82B20E1E7F0232046D37277
:1094D0000121FFF79FFEDAE794F82D5005F0FF0118
:1094E00045B1022BE5D194F8290040F00100E0E7F6
:1094F000D372C9E70846DCE72046FFF7C9FC94F8B9
:109500002A30012B05D194F82800226994F82C30D8
:10951000CFE7226994F82C30C9E700BF443F002010
:1095200000600040F0B583B0EFF30384103C64B2F8
:10953000144B53F82450EF68BFB16A682B6992F955
:109540000D20121B18BF0122CBB193E803006E4619
:1095500086E80300696959601A701846B8472B6994
:109560001BB196E8030083E80300C034064B53F8B0
:1095700024206FF3104243F8242003B0F0BD6E4660
:109580003346E7E7443F002000600040EFF30383E9
:10959000103B5BB20649074A51F823100120C03343
:1095A000087252F823106FF3104142F823107047ED
:1095B000443F0020006000400B0A1B0153FA81F178
:1095C000034B53F82130C3F340031370002070475E
:1095D00000080440C8B20123834098B252B100236E
:1095E000090A490101F1804101F5802103438B60A3
:1095F000002070471B041046F2E700BFF8B50028B2
:109600003BD009681E4F4FF0000C01EBC0006646CE
:109610004FF0010E8D8840F2024295424FF0000358
:109620000BD10C680EFA03F204F0B854D2B2B4F1C4
:10963000807F0CBF164342EA0C0C0133032B06D08B
:1096400037F813209542ECD00133032BF8D10831C1
:109650008142DFD16FEA0C0C5FFA8CF4012002F03A
:10966000CFFA084B93F8BB241643264083F8BB641B
:109670000120BDE8F84002F093BA0646FF24EDE76A
:10968000DC42030000E00140F0B585B004AB02A865
:1096900043F80C0D01260C46304619461546ADF828
:1096A0000C400292ADF80060FFF7A8FFEFF31081C5
:1096B00086F310881B4B1A681AB91B484026C270E3
:1096C000C6701A6801321A6081F31088200AEA0312
:1096D000E4B24FEA00100BD50119144A52F8217078
:1096E00025F480366FF3104742F8217042F821606C
:1096F00020440E4A42F82050EFF31082012181F3FA
:109700001088196811B11968013919601B681BB9F3
:1097100005498020CB70C87082F31088002005B006
:10972000F0BD00BF403F0020000D04400008044091
:10973000034630B40124806883F82140002483F874
:10974000234005799C6145F01005C3E90422D960E6
:109750000571027964F3C3020271204683F8244044
:1097600030BC7047034630B48068002483F8214041
:1097700083F8234005799C6145F01005C3E9042274
:10978000D9600571027964F3C3020271204683F83F
:10979000244030BC704700BF10B40446C4E90B320B
:1097A0000020A1625DF8044B704700BF016891F989
:1097B0000F1070B44E098568274C024601232036ED
:1097C00001F01F01002003FA01F15060E87144F834
:1097D0002610BFF34F8FBFF36F8F116891F90C10F4
:1097E0004D09203501F01F0103FA01F144F825105D
:1097F000BFF34F8FBFF36F8F116891F90D104D09B3
:10980000203501F01F0103FA01F144F82510BFF3E0
:109810004F8FBFF36F8F116891F90E104D092035EE
:1098200001F01F0103FA01F144F82510BFF34F8F37
:10983000BFF36F8FEFF3108183F310881468074A2A
:1098400024785568C4F10904A3402B43536053683E
:1098500081F3108870BC704700E100E0FC6F0440A9
:109860002DE9F0430A78034602F58002D1E905406C
:1098700002F5A6621202002519609A609C62C3E993
:109880000B50EFF31080012282F310887E4C0E788B
:109890006168C6F10906B24021EA020262606268AC
:1098A00080F3108819689A68CE698C7A83F82350FF
:1098B0001F27B07817705F271770012C4FF0DF0754
:1098C000177000F0DA800D89EC0904F0060444F00A
:1098D0000104EDB2D4729572CC7A4F686B4DE400FE
:1098E00044F00104E4B24FF0020C947182F803C01A
:1098F000347876782401AF4204F0700444F0080410
:1099000046F0E00614BF00256FF07F05002800F048
:10991000AC8045F07D05EDB20138557147B2167443
:10992000947091F812E091F90F00DFF870C1584D72
:10993000584C594E47EA8E17FFB24FF0A0084FF02F
:109940009F0E177182F8078082F800E04A7C0CEBCA
:1099500000071201D2B287F8002300F1C00E45F8CB
:109960002030420954F82E80920002F16042012713
:1099700002F561426FF3104800F01F0044F82E809A
:1099800007FA00F0C2F88001106091F810E091F938
:109990000D004FEA0E1E0CEB00025FFA8EFE82F8FD
:1099A00000E345F8203000F1C00254F822806FF344
:1099B000104844F822804FEA501891F90E204FEADF
:1099C000880808F160480CEB020908F5614800F0CE
:1099D0001F0007FA00F0C8F88001C8F8000089F8F5
:1099E00000E302F1C00045F8223054F820806FF304
:1099F000104844F82080500991F90C10800000F1C3
:109A000060408C4400F5614002F01F0207FA02F248
:109A1000C0F8802101F1C00802608CF800E34A0917
:109A200045F82130920054F8285002F1604202F5C6
:109A3000614201F01F0100208F406FF310450221A9
:109A400044F82850C2F88071176083F82400C3E9F5
:109A5000030083F82110C3E9050083F82200D861D0
:109A60005E6083F82000BDE8F08345F05D05EDB24F
:109A7000557107461674947053E70C7AD5726400DA
:109A8000E4B2947228E700BFFC6F044040420F002C
:109A9000443F0020006000405343324900E100E0B1
:109AA000F0B5C36A85B005460E4617469BB193E8EC
:109AB000070001AC84E807002A6B1A605F601E7221
:109AC0001846AB6A9847EB6A1BB194E8070083E835
:109AD000070005B0F0BD01AC2346EDE770B50123EA
