:10400000007F0020699E0000199D00006DCF000018
:10401000659E0000659E0000659E0000659E000094
:10402000000000000000000000000000659E00008D
:10403000659E000000000000659E0000659E000077
:104040000000000000000000000000000000000070
:104050000000000000000000000000000000000060
:104060000000000000000000000000000000000050
:104070000000000000000000000000000000000040
:104080000000000000000000000000000000000030
:104090000000000000000000000000000000000020
:1040A0000000000000000000000000000000000010
:1040B0000000000000000000000000000000000000
:1040C00010B5054C237833B9044B13B10448AFF352
:1040D00000800123237010BDC802002000000000F2
:1040E000D04B010008B5034B1BB103490348AFF3A4
:1040F000008008BD00000000CC020020D04B010071
:104100004308400003F0553300F0AA3018438308F9
:10411000800000F0CC3003F03333034318091B0157
:1041200003F0F03300F00F30184300BA7047FFFF80
:10413000064A136810B50133054C1360054B22681D
:104140001A6009F08FF9206010BD00BF90030020B5
:10415000A0030020A8030020064A136810B501330D
:10416000054C1360054B22681A6009F07BF920604A
:1041700010BD00BF4404002050040020580400205B
:1041800030B5016802690D0185B004465059FFF74A
:10419000B7FF2A4401905068FFF7B2FF0290906881
:1041A000FFF7AEFF0390D3686269A3610131B1FBF1
:1041B000F2F302FB1311216049B994F8203003B9DE
:1041C000A361236E03B19847012384F85C300C226D
:1041D00001A902480CF04BFB05B030BD10030020D4
:1041E0002C49F8B50D680A682B4C0B68D210A25CFC
:1041F0005C4204F0070403F0070358BF6342274CF6
:1042000042FA03F3226822F4384222F018022260B4
:10421000226C22F4415222F03002DB07226404F1C6
:1042200040041CD51E4B1F4F13F8152003EB45030C
:104230001C325B7837F832201C331612360156FADE
:1042400082F237F8333004F5F864052644F822602A
:104250001A12120152FA83F3042244F823200B6845
:104260006024013393FBF4F204FB12330B6080B142
:10427000046874B1A36963B109F0F4F8E369C01A82
:10428000A369984205D92046FFF77AFF09F0EAF8BA
:10429000E061F8BDE40200201003002000000440AB
:1042A000B0350100C03C010030B585B00B6800930B
:1042B0004B6801938B680293002501230560C0F8C9
:1042C00010D0436104460395FFF75AFFA56105B07E
:1042D00030BDFFFF2DE9F8432D4D2E4E2A6833687F
:1042E0009A4251D12C6809F0BDF804EBC404204473
:1042F0000A24B0FBF4F0284B284F286039681A686C
:104300009142984642D13C6809F0ACF804EBC404F1
:1043100020440A24B0FBF4F038603B68C8F8003051
:104320002B6833601E4B3868D3E900891D4B1B682E
:10433000C01A0BF063FC02460B46404649460BF0A0
:1043400001FE194B06460F46C3E90067174B286864
:104350001B68C01A0BF052FC02460B464046494609
:104360000BF0F0FD0B4612490246C1E9002330462E
:1043700039460BF007FB0F4B00220BF0B9FC0E4B3C
:10438000C3E90001BDE8F8832868B4E73868C3E7EB
:104390005004002054040020A4030020A0030020A7
:1043A00010000020A80300209803002058040020DB
:1043B000480400200000E03F78030020FFFFFFFFDB
:1043C0002DE9F04F85B009F04DF80BF017FC484C83
:1043D000484BC3E90001D4E90023CDE900010BF00B
:1043E000CFFA454B0F4645490646C3E90067002210
:1043F000434BD1E900010BF0C3FA424B804689469A
:10440000C3E900890022404B0BF0E4FE002860D095
:1044100042464B46304639460BF06AFC3B4DD5E9E7
:1044200000230BF0AFFA82468B46C5E900AB384D4E
:104430004046D5E9002349460BF0A2FA32463B46F6
:104440000BF080FD334BCDE90201C3E900010022EE
:10445000314B404649460BF04BFC23A3D3E90023E4
:1044600006460F46504659460BF042FC02460B46A4
:10447000304639460BF086FA002206460F46274B97
:10448000DDE902010BF034FC02460B4630463946AA
:104490000BF078FA224B9DED007BC3E90001214B24
:1044A000C5E90089D3E9002384ED007B0BF06AFAAB
:1044B0000022002304460D460BF08CFE60B900225A
:1044C000194B204629460BF0A3FE38B10024164DA7
:1044D00004E000200021A1E70024002545EC104B5A
:1044E00005B0BDE8F08F00BFF168E388B5F8C43EC1
:1044F000380400203003002058030020280000204A
:1045000000003440680300200000244080030020A5
:1045100028040020400300200000E03F0000694024
:10452000200300201800002000004940FFFFFFFF8B
:104530002DE9F74FFFF7CEFE08F094FF484D494BA9
:10454000DFF84881186004462868201A0BF056FBF3
:10455000454B06460F46C3E900674449444BD1E941
:104560000001D3E900230BF00BFA424B82468B4645
:104570000246C3E900AB30460B4639460BF0B8FBA8
:10458000D8E900230BF0FEF93B4BC8E90001D3E961
:104590000023CDE90001504659460BF0F1F93246AF
:1045A0003B460BF0CFFC354B80468946C3E900897A
:1045B000504625A3D3E9002359460BF099FB24A3C9
:1045C000D3E9002306460F46DDE900010BF090FB1E
:1045D00002460B46304639460BF0D4F91EA3D3E908
:1045E000002306460F46404649460BF081FB024633
:1045F0000B46304639460BF0C5F9214B2C60C3E918
:1046000000011D4BC3E900AB1E4BD3E900230BF0A7
:10461000B9F90022002304460D460BF0DBFD48B932
:104620000022194B204629460BF0F2FD20B1002450
:10463000154D01E00024002545EC104B03B0BDE80A
:10464000F08F00BFAFF300809A9999999999993F9B
:1046500095D626E80B2E013E3A8C30E28E79553EF7
:104660004004002038030020600300205000002098
:10467000780300207003002030040020480300204D
:104680002803002018000020000049408803002073
:1046900030B5104C104D114987B0204607F0C2FFCD
:1046A0000F4A1049284601F015FB41F2883008F006
:1046B00095FE2946684601F035FA0B49204607F079
:1046C0009DFF6946204607F0B7FF084802F0FAF858
:1046D00007B030BD40060020340500207A350100C7
:1046E000300000203F000020923501005C040020D3
:1046F00008B502490248FFF7D7FD08BD7036010032
:10470000B003002008B502490248FFF7CDFD08BDFF
:104710007C360100B003002008B502490248FFF7CB
:10472000C3FD08BDA0350100B0030020FFFFFFFF5F
:1047300008B50021052008F0BDFC022008F04AFE63
:104740000121052008F0B6FC0A2008F043FE0021F4
:10475000052008F0AFFC40F6B8320121042008F033
:104760007FFD48B10BF04AFA06A3D3E900230BF012
:10477000BFFA41EC100B08BD00200149F9E700BF6A
:10478000008049409CC420B07268913F07B551EC4D
:10479000100B0BF05DFD912300930023322219468C
:1047A00007F0D0FC03B05DF804FBFFFFFFFFFFFF45
:1047B00008B551EC100B2DED028BB0EE408AF0EEF7
:1047C000608A15A3D3E900230BF092FA41EC100B99
:1047D000FFF7DCFF01460A2007F0DAFBB0EE480ADB
:1047E000F0EE680AFFF7D2FF0146092007F0D0FB80
:1047F000074B0121187808F05DFCBDEC028B054BDE
:1048000001211878BDE8084008F054BCAFF30080DF
:104810000400002000000020713D0AD7A370ED3F86
:10482000024B93ED000BFFF7C3BF00BF1800002041
:1048300008B52DED028B9FED128BB0EE480AF0EE1D
:10484000680AFFF7A3FF01460A2007F0A1FBB0EEBC
:10485000480AF0EE680AFFF799FF0146092007F0C1
:1048600097FB094B0021187808F024FCBDEC028B63
:10487000064B00211878BDE8084008F01BBC00BFBB
:1048800000000000000000000400002000000020E4
:1048900038B5FFF74DFF114B55EC104B83ED000B76
:1048A00000220F4B10EE100A29460BF09DFC0D4B19
:1048B00028B101221A70BDE83840FFF7B9BF18705F
:1048C0000022094B204629460BF084FC074B10B10F
:1048D00001221A7038BD0222FBE700BF2800002029
:1048E00000002440200400200080494020000020D7
:1048F000514B1868514B1B682DE9F04718440BF0D9
:104900007DF94BA3D3E900230BF0F2F900224C4BC5
:10491000DFF880814B4DDFF880A14B4C0BF0E8F9BC
:1049200000224A4B0BF0E4F9494BC3E9000108F0BF
:1049300099FDC8F800000BF0DBFE51EC100B0BF0FA
:10494000AFFC286008F08EFDCAF800000BF0D0FE26
:1049500051EC100B0BF0A4FC3E4B20602A681A604F
:104960003D4B22681A603D4B2868D3E90067D8F8B0
:104970000030C01A0BF042F902460B463046394669
:104980000BF0E0FA364B804689462068354CC3E987
:104990000089DAF80030C01A0BF030F902460B46F5
:1049A000304639460BF0CEFA0B462F490246C1E994
:1049B0000023404649460AF0E5FF00222B4B0BF04E
:1049C00097F92B4BC3E900010BF092FE294B83EDC5
:1049D000000B08F047FD0BF011F9274BC3E900016C
:1049E0000BF086FE51EC100B0BF05AFC234B1860B9
:1049F00008F038FD224B41F250411860214801F087
:104A000099FE214801F006FE2049214807F096FE54
:104A1000002504F124002560C4E9065584F82050DF
:104A200005F090FB84F85C50BDE8F087AFF30080A0
:104A3000894160E5D0220940900300204404002011
:104A400000000C40A0030020500400200000D03FD4
:104A500050030020A4030020540400201000002074
:104A600098030020B0030020480400200000E03F2D
:104A70007803002030030020380400203803002091
:104A8000400400205C040020E80200208A38010075
:104A900014040020A80300205804002008B508488A
:104AA00005F02AFE074807F0FEFD074801F020FA4E
:104AB0000648074B40F8103BBDE8084001F018BA23
:104AC000D403002014040020E80200205C0400202D
:104AD000A43B010038B5234801F03CF9224B40B219
:104AE0005728187039D021DC48282ED0532830D0D0
:104AF0001E4B1B78022B20D12F3800EB80000BF0CF
:104B00008DF80022002304460D460BF081FBA0B176
:104B10000022174B204629460BF066FB68B1154B67
:104B2000C3E90045144BC3E9004506E0582805D009
:104B30005A28DDD1114B00221A7038BD0F4B0122CB
:104B40001A70BDE83840FFF773BEBDE83840FFF784
:104B5000D9BDBDE83840FFF7CBBDBDE83840FFF711
:104B6000DBBD00BFE80200203C0300202000002045
:104B700000004940500000201800002008000020DC
:104B80002DE9F0414FF416518CB06D486D4C6E4DCF
:104B9000DFF8E8816D4F06F07BFD00210F2008F063
:104BA00071FA00210E2008F06DFA0121052008F0AD
:104BB00069FA0021042008F065FA0121082008F0B4
:104BC00061FA0121072008F05DFA01210B2008F0AD
:104BD00059FA01210C2008F055FA00210B2008F0A9
:104BE00069FA00210C2008F065FA0021082008F07D
:104BF00061FA0021072008F05DFA0121092008F080
:104C000041FA01210A2008F03DFA0221084608F085
:104C100039FA0221032008F035FA002103A805F033
:104C200053FB4B4BDFED4B0A9FED4B0A9DF80C20DD
:104C300000930021C3B2019404F1240005F0EAFBC3
:104C400000220C2104F1240005F072FD04F124007F
:104C500005F089FC04F1240005F0ACFC3F4938481C
:104C600007F0E0FC3E49364807F0DCFCFFF710FD9A
:104C70003C49334807F0D6FC3B49314807F0D2FCA9
:104C8000032006F072FC0422384906F0DFFC022003
:104C900006F06BFC0422364906F0D8FC354928485A
:104CA00007F0C0FC284801F0D7FB002838D1414666
:104CB00003A801F051FD049B6B60059BAB60069B54
:104CC000EB600A9E079BEC692B61089B6B61A64217
:104CD000099BAB6115D016B17368013373607CB169
:104CE0006368013B63605BB9236820469B68984713
:104CF000A368013BA3601BB923682046DB68984783
:104D0000EE619DF82C3085F8203003A801F0F0F812
:104D100039460B4807F072FC642008F05FFBC1E7DE
:104D20001549074807F07EFC1349054807F07AFC4F
:104D30001149034807F076FC0CB0BDE8F08100BFD4
:104D400040060020B0030020E8020020F3360100F6
:104D5000E14100000000484200401C468836010046
:104D6000A7360100B3360100D036010059410000DA
:104D700031410000E1360100F53601005C040020FD
:104D800030B53D4B3D4C93B0D3E900010BF060FAD8
:104D90000A220146684607F0F0FC694603A807F0BE
:104DA0000DFD214603A807F052FD354B0546D3E91A
:104DB00000010BF04DFA0A22014606A807F0DDFCBF
:104DC00006A9284607F037FD214607F040FD2D4B88
:104DD0000546D3E900010BF03BFA0A22014609A877
:104DE00007F0CBFC09A9284607F025FD214607F06E
:104DF0002EFD254BD3E900230546194610460AF03F
:104E0000C1FD0BF025FA0A2201460CA807F0B5FCFB
:104E10000CA9284607F00FFD214607F018FD1B4B93
:104E20000A22197804460FA807F0A7FC0FA920460C
:104E300007F001FD1649174C07F009FD0146204611
:104E400007F0ADFC0FA807F02EFC0CA807F02BFC18
:104E500009A807F028FC06A807F025FC03A807F01E
:104E600022FC684607F01FFCA26821680A4801F08E
:104E7000D7F813B030BD00BF5003002074350100D7
:104E800078030020280000201800002020000020C7
:104E90007635010014040020E8020020FFFFFFFF28
:104EA00038B5394C23681721B3FBF1F201FB1232FC
:104EB000E2B9FFF7EDFC354B1B78012B11D1FFF761
:104EC0007FFA334B83ED000B324A334B12781B7859
:104ED000002A4CD10BB9FFF7A3FC236801332360F0
:104EE00038BD022BF0D1FFF723FBEAE71F22B3FB0B
:104EF000F2F2C2EB4212934202D1FFF7EBFDE3E77D
:104F00004FF42F72B3FBF2F502FB1535002DDBD108
:104F1000224B1868224B1B6818440AF06FFE18A336
:104F2000D3E900230AF0E4FE00221E4B0AF0E0FE63
:104F300000221D4B0AF0DCFE1C4BC3E90001FFF709
:104F4000C9F9FFF71DFF2560194D1A4BD5E900017E
:104F500000220AF0F7FFC5E90001174D154BD5E90E
:104F6000000100220AF0EEFFC5E90001ACE7002BCA
:104F7000B3D140F6B83008F02DFAFFF789FCACE762
:104F8000894160E5D0220940AC03002020000020C8
:104F900018000020200400200800002090030020BA
:104FA0004404002000000C400000D03F50030020CB
:104FB00088030020000049408003002008B50368F2
:104FC000002B02DA09480AF02AFC8B4208D9490072
:104FD0008B4205D20029B6BF6FF000430160036029
:104FE0000068BDE8084001300AF0EABBFD37010067
:104FF00010B500220124416042F210710270447029
:10500000816080F88C4080F88D2080F8942010BD5D
:1050100010B50446406828B163781BB940F2AC4132
:105020000AF0F8FB204610BD08B4F3B507AE00F156
:105030000C0456F8047B05468022002120460BF024
:105040003AFC32463946204601960CF0C7FAD5F8AC
:105050009000A8B195F89430012B11D90F4907F0B1
:10506000CDFAD5F89060336820465F680CF0F8F907
:10507000214602463046B847D5F8900007F0CCFAF2
:1050800020466D680CF0ECF921460246284606F0F1
:10509000EDFB02B0BDE8F04001B0704747370100BA
:1050A0002DE9F041074608460E4690460CF0D8F927
:1050B0007C68A04205460DD8241A44453F6828BFA5
:1050C00044464DB12A46314638190BF0C1FB18B1A0
:1050D000631E24B94FF0FF342046BDE8F0811C4622
:1050E000EFE7034653F8080B984201D00AF088BB5B
:1050F00070472DE9F0470D461C46416833B991428F
:1051000038BF4FF0FF321046BDE8F087914220D9FA
:10511000D0F8008095F9007008EB020008EB01065A
:105120008A1AC3F10109A24213D319EB020210D06B
:1051300039460BF03DFB824658B1224629460BF01A
:1051400087FB10B9AAEB0802DDE70AF10100321A69
:10515000E9E74FF0FF32D6E7F8B50646456808465E
:105160000F460CF07DF9A842024628BF2A460446A5
:1051700022B1394630680BF06BFB00B9281BF8BD33
:10518000012A30B404D191F90030037030BC70476B
:10519000002AFBD030BC0BF06ABBFFFF73B505469D
:1051A0000E4619B912B10D480AF036FB941B0F2CAC
:1051B000019406D9002101A8FFF700FF019B286098
:1051C000AB60224631462868FFF7DAFF019B2A6868
:1051D0006B600021D15402B070BD00BFD337010015
:1051E00038B500F10803044603600D4649B108468E
:1051F0000CF036F92A1820462946FFF7CFFF204643
:1052000038BD4FF0FF32F6E7F8B500F1080404604E
:10521000D1E90054A242064604D92346064907486C
:105220000AF000FBA918A21A9A4294BF8A18CA1859
:10523000FFF7B4FF3046F8BD1538010030380100E3
:1052400038B54C68A242054604D9234603490448B0
:105250000AF0E8FAFFF7D8FF284638BDBE3701004C
:10526000303801002DE9F043324E334D337887B0AA
:1052700004460F461BB10023337001232B7095F8B1
:105280000080B8F1010F07D04FF0000416D3B8F139
:10529000020F41D02C7011E04346002227493846C6
:1052A000FFF727FF00228146434625493846FFF78E
:1052B00020FFB9F1FF3F024604D10024204607B089
:1052C000BDE8F083431CF8D04B4639466846FFF7EB
:1052D000B7FF00980BF01BFA002814DC6068036825
:1052E0001B69984720B1606803685B699847F5E7D8
:1052F0000124347028703A6800237B60684613707C
:10530000FFF7EFFEDAE70F4B043018600E4B002476
:105310001C6002232B70EEE70B4A13680133136005
:10532000084A12689342C8D101232C7033701C467E
:10533000C4E700BF58000020980400205F37010038
:105340007835010094040020900400202DE9F341F9
:105350000268466800F108039A4204460F4606F1C7
:10536000010504D081688D4215D9019503E00F2D08
:1053700011D901950F2101A8FFF720FE80461EB12B
:1053800032462168FFF7FCFE2046FFF7AAFE019B8C
:10539000C4F80080A36023689F55236865600022DD
:1053A0005A5502B0BDE8F0812DE9F043044640684B
:1053B000DFF8C4800368DFF8C4905B6889B0984761
:1053C00001AA294902A8FFF70BFF08F04BF80025B6
:1053D00007462E4608F046F8A368C01B98420DD336
:1053E000D4F8900050BB02A8FFF77BFE304609B00E
:1053F000BDE8F08301252E460125EBE7002DEFD116
:10540000606803681B6998470028E3D060680368F8
:105410005B69984741B202A8FFF798FF4FF0FF324F
:10542000414602A8FFF73CFE431C0246E2D1494632
:1054300002A8FFF735FE0130E2D0DCE794F89430A3
:10544000012BD0D9094907F0D9F80299D4F8900076
:1054500007F0E8F82EB10649D4F8900007F0E2F81A
:10546000C1E70449F8E700BF8A3801000D370100A1
:1054700027370100353701000037010005370100EB
:10548000F7B5024604460D4651F8080B52F8083BA2
:10549000814215D020609A426A686260AA6818BF8B
:1054A000A668A26008BF002343B12B60AE602A68E3
:1054B000002320466B60137003B0F0BD2960F6E74F
:1054C000AC42F4D09A426E6814BFA1680F218E429C
:1054D0000BD902A840F8046DFFF770FD074620467F
:1054E000FFF7FFFD019B2760A36026B132462968C4
:1054F0002068FFF745FE2368666000229A55D6E7CC
:105500002DE9F04F0446D0F8900087B08946154643
:1055100028B194F8943013B15E4907F06FF807F0A2
:10552000A1FF4FF0000882464646DFF888B107F039
:1055300099FFA368A0EB0A00984202D2B8F1000FCD
:105540002ED094F88C3013B1284600F015FA0123C0
:10555000D4F8900084F88C30002384F88D3048B162
:1055600094F8943033B14C4907F048F8D4F89000DF
:1055700007F052F8D4F8900070B1484907F03EF8AF
:105580002968D4F8900007F04DF8002E7FD04449E8
:10559000D4F8900007F046F8304607B0BDE8F08F29
:1055A000606803681B6998470028C0D0606803687A
:1055B0005B69984747B239462846FFF7C7FED4F8DB
:1055C000900028B194F8943013B1394607F01AF8D6
:1055D00094F88D70D7B129462046FFF743FE074661
:1055E0000028DDD0002284F88D206B687BB3043B5B
:1055F00029466846FFF708FE69462846FFF740FF40
:105600006846FFF76EFDB8463E46C9E74FF0FF32E9
:1056100024492846FFF744FD411C02461BD06B6815
:10562000063B3A4629466846FFF70AFE6946284681
:10563000FFF726FF6846FFF754FD1B494846FFF772
:105640008BFD20B14946284600F0AEF900B1012695
:105650004FF0010869E715492846FFF721FD431C73
:10566000024602D06B68043BDBE759462846FFF749
:1056700017FD013094D06B683A46073B29466846CF
:10568000FFF7DEFD6846FFF72CFD3E46E0E70849E0
:105690007EE700BF8E370100A8370100B237010056
:1056A00027370100943701009B37010000370100C4
:1056B000353701000537010008B42DE9F34309AE81
:1056C000136856F8049B00F10C05884600215160D0
:1056D000044619701746284680220BF0ECF8324633
:1056E0004946284601960BF079FFD4F89000B0B1F6
:1056F00006F092FF1349D4F8900006F07FFFD4F82B
:10570000906033682846D3F804900BF0A9FE294630
:1057100002463046C847D4F8900006F07DFF284680
:1057200066680BF09DFE29460246304606F09EF85C
:105730003A4641462046FFF7E3FE02B0BDE8F0439B
:1057400001B070478437010010B50446406890B03E
:1057500010B3237803BB0368DB69984701230AAAC7
:105760000E49237004A8FFF73BFD60680368DB68FF
:10577000984703AA0A490AA8FFF732FD094B00938C
:1057800004AA094B09480AA9FFF796FF0AA8FFF7E0
:10579000A8FC04A8FFF7A5FC10B010BD8A380100D2
:1057A0006137010071370100EF4501009C040020C2
:1057B00001490248FFF71CBC980F00209C04002000
:1057C0000148FFF725BC00BF9C04002008B5036812
:1057D00013F8010C0AF0AFFFB0FA80F0400908BDE1
:1057E00008B500780AF0A7FFB0FA80F0400908BDBC
:1057F000F8B515464268521A521B04460B460AD0A9
:105800004DB106684F19012A06EB010006EB0701AE
:1058100008D1F257F25463685D1B2368656000226B
:105820005A55F8BD0BF02EF8F5E770B503684668D9
:10583000CD1A33449A42044605D1002345600B70CB
:105840002068284470BD521A2946FFF7D1FFF7E7B8
:105850002DE9F843D0E9008607464FEAA6094546F8
:10586000B9F1000F2C4616DD2846FFF7B9FFF8B94D
:105870006C1C2046FFF7B4FFD0B9AC1C2046FFF7E4
:10588000AFFFA8B9EC1C2046FFF7AAFF043578B992
:1058900009F1FF39E4E74644731B022B15D0032BB3
:1058A0000DD0012B03D12046FFF79AFF00B93446F3
:1058B000224641463846FFF7B8FFBDE8F883284640
:1058C000FFF78EFF0028F3D101342046FFF788FF51
:1058D0000028EDD10134E6E72DE9F341D0E9007568
:1058E00006464FEAA5083D44B8F1000F2C461ADDE4
:1058F00001A80195FFF76AFF18BB6C1E01A801946F
:10590000FFF764FFE8B9AC1E01A80194FFF75EFF42
:10591000B8B9EC1E01A80194FFF758FF043D80B907
:1059200008F1FF38E0E7EB1B022B1CD0032B12D051
:10593000012B05D102A840F8044DFFF747FF00B93D
:105940003C46D6E9002321461A443046FFF76DFF56
:1059500002B0BDE8F08102A840F8045DFFF736FF11
:105960000028EED16C1E02A840F8044DFFF72EFF70
:105970000028E6D1013CDDE710B50446FFF7ACFF97
:105980002046BDE81040FFF763BFFFFF10B5436836
:105990009942144604D90A460248214609F042FFBA
:1059A000084610BD3038010070B50E4686B004467A
:1059B000FFF74EFF756831682B4600222046FFF73F
:1059C00098FBA8B90B4A29462046FFF7DFFF4FF0A6
:1059D000FF33024621466846FFF716FC694620461B
:1059E000FFF74EFD6846FFF77CFB012006B070BD57
:1059F0000020FBE7BE37010008B50368002B02DA80
:105A0000094809F00CFF8B4208D949008B4205D2A6
:105A10000029B6BF6FF00043016003600068BDE875
:105A20000840013009F0CCBEFD37010073B54CF2DF
:105A300050330025C0E9003500F11803C0E90435F2
:105A4000012600F130030446C0E90A35C0E90255D9
:105A5000057680F8305004230096A822C0214030FB
:105A600006F04EFC33460096A822C02104F15800EF
:105A700006F046FCFF2300951A46194604F1700013
:105A800006F03EFC204602B070BD10B504466830FA
:105A9000FFF727FB04F15000FFF723FB04F1380068
:105AA000FFF71FFB04F11800FFF71BFB2046FFF771
:105AB00018FB204610BDFFFF73B505460E4619B909
:105AC00012B10D4809F0A8FE941B0F2C019406D9C1
:105AD000002101A8FFF790FF019B2860AB602246E0
:105AE00031462868FFF74CFB019B2A686B60002158
:105AF000D15402B070BD00BFD337010038B500F1FA
:105B00000803044603600D4649B108460BF0A8FCA3
:105B10002A1820462946FFF7CFFF204638BD4FF010
:105B2000FF32F6E72DE9F0434FF4E1318FB0044640
:105B30003548364F364EDFF8F480FFF705FE35491D
:105B400002A8FFF7DBFF002300931A461946204600
:105B500006F0D6FB3225642007F040FC394608A841
:105B6000FFF7CCFF0096434602AA08A92648FFF794
:105B7000A3FD814608A8FFF7B4FAB9F1000F1DD0C4
:105B800002980AF0C4FD01282DD1234908A8FFF787
:105B9000B5FF00230193214B009302AA204B1A4822
:105BA00008A9FFF789FD814608A8FFF79AFAB9F11D
:105BB000000F03D00299204606F0C4FC00231946CA
:105BC00000931A4608A806F09BFB08A9204606F099
:105BD000C6FC08B1013DBED102A8FFF782FA2046FB
:105BE0000FB0BDE8F08302980AF091FD0228E5D1DC
:105BF0000C4908A8FFF782FF0B4B034802AA08A92B
:105C0000FFF75AFDCFE700BF9C0400208B3801004E
:105C1000963801008A380100373901003F39010008
:105C2000BD3801001E39010029390100EF4501008E
:105C300070B590B00C4604A81E4915461E46FFF7E5
:105C40005DFF4FF4E1311C48FFF77EFD1B490AA8B8
:105C5000FFF754FF02230193194B009304AA194B39
:105C600015480AA9FFF728FD0AA8FFF73AFA1649CE
:105C70000AA8FFF743FF154B01940093CDE90256A4
:105C8000134B0D4804AA0AA9FFF716FD04460AA8FB
:105C9000FFF727FA24B104980AF039FD012806D04D
:105CA000092404A8FFF71DFA204610B070BD072490
:105CB000F7E700BF8A3801009C0400208B38010000
:105CC000C4380100BD380100F33801000E3901006D
:105CD000013901000123FFF7ABBFFFFF0148FFF7C8
:105CE000A5BE00BF3405002070B50C4C04F128009F
:105CF000FFF7F7F904F11000FFF7F3F9D4E90156C3
:105D0000AE4204D02846FFF7C0FE8035F8E7606851
:105D100018B1BDE8704009F073BD70BD34050020B6
:105D2000002070470069013018BF0120704708B596
:105D300003685B6B984780F00100C0B208BD13B5E3
:105D400002AB026803F8011D546819460122A047FE
:105D500002B010BD07B5036801225B6A0DF10701AF
:105D6000984701280CBF9DF807004FF0FF3003B0A3
:105D70005DF804FB00690B69C31A5842584170472B
:105D800070470020704740F20C41C06809F042BDE6
:105D900010B51021044609F03DFD204610BD08B5A0
:105DA000FFF7F6FF08BD7FB503680446164601A855
:105DB0001D6A06F007FB324601992046A8470446B3
:105DC00001A806F070FC204604B070BD036810B551
:105DD00004469B689847A368013BA3602BB92368DE
:105DE0002046DB68BDE81040184710BD00F10803ED
:105DF00070B5044603600E46B1B108460BF030FBA7
:105E00000F28054604D9013009F0DAFCA5602060AE
:105E1000012D20680BD196F900300370236865606E
:105E200000225A55204670BD044809F0F5FC002DAB
:105E3000F4D02A4631460AF01AFDEFE7D3370100C5
:105E4000036813B962B6BFF36F8F704713B5EFF3F2
:105E5000108300930123019372B6019B5A1E019295
:105E600033B104686846FFF7EBFF204602B010BD6F
:105E70006846FFF7E5FFF8E713B50446EFF3108334
:105E800000930123019372B6019B5A1E019268464A
:105E900033B1FFF7D5FF601CC0F3090002B010BD9D
:105EA000FFF7CEFFFAE7FFFF0023C0E905334FF409
:105EB0007A72C0E90132C3610B6903618B69836146
:105EC000CB69044A02601BB15A6801325A60C3614F
:105ED000704700BFF43A010010B50446006828B1CD
:105EE0004368013B43600BB9FFF770FF204610BDCC
:105EF00010B5044B044640F81C3BFFF7EDFF20466D
:105F000010BD00BFF43A010030B5036901338FB012
:105F1000044620D1114902A8FFF768FF4FF4E13190
:105F20000F48FFF711FC0F4908A8FFF75FFF0E4B62
:105F3000009302AA0D4B0A4808A9FFF7BDFB0546CE
:105F400008A8FFF7CEF81DB102980AF0E0FB206127
:105F500002A8FFF7C6F80FB030BD00BF8A380100B5
:105F60009C040020CD3A0100DB3A0100EF4501001E
:105F700070B5044692B00D461646FFF7C5FF23697B
:105F8000002B24DB1E4906A8FFF730FF4FF4E13158
:105F90001C48FFF7D9FB6369DBB11B490CA8FFF76D
:105FA00025FF63690295CDE9036323690193174BCC
:105FB000009306AA164B13480CA9FFF77DFB044675
:105FC0000CA8FFF78EF806A8A4B9FFF78AF80020FE
:105FD00013E010490CA8FFF709FFCDE90256236929
:105FE00001930D4B009306AA0C4B06480CA9FFF732
:105FF00063FBE4E7FFF775F8012012B070BD00BF46
:106000008A3801009C0400200C3A01002C3A01005F
:106010001C3A01003E3A01005F3A0100523A010089
:1060200070B50369002B90B005460E46144629DB77
:10603000154904A8FFF7DAFE4FF4E1311348FFF7E2
:1060400083FB13490AA8FFF7D1FE02942B69019341
:10605000104B009304AA104B0C480AA9FEF7E4FF6A
:106060000AA8FFF73EF8224631460848FFF79CF998
:10607000054604A825B1FFF734F8204610B070BDDE
:10608000FFF72FF80024F8E78A3801009C0400206D
:10609000E6390100FD390100F339010030B503692B
:1060A000002B8FB0054634DB84695CB104F5816058
:1060B000FFF7CCFE002808DDA86900F58160FFF736
:1060C000C5FE044620460FB030BD154902A8FFF7B3
:1060D0008DFE4FF4E1311348FFF736FB124908A853
:1060E000FFF784FE2B690193104B009302AA104B1B
:1060F0000C4808A9FFF7E0FA044608A8FEF7F1FFEC
:106100004CB102980AF003FB041E04DA02A8FEF761
:10611000E8FF0024D6E702A8FEF7E3FFD2E700BFBE
:106120008A3801009C0400208D3A0100993A010050
:10613000BD3801002DE9F04F0369002B93B00746ED
:10614000C0F288808369002B00F08480434906A850
:10615000FFF74CFEBA69EFF310830C9301230D9304
:1061600072B60D9B591E0D911BB1D2F80854C5F59E
:1061700080653B4E0CA8FFF763FE002430464FF4C9
:10618000E1314FF00108FFF7DFFA013D86F88C405E
:1061900086F88D8033490CA8FFF728FE02953B69ED
:1061A0000193314B00933046304B06AA0CA9FFF700
:1061B00083FA06460CA8FEF794FF002E3FD0079BFB
:1061C000002B45D0C246AC4239D2079B9C4236D206
:1061D000069BBE6913F804B0EFF31083CDE90438D1
:1061E00072B6059B5A1E059223B3EFF31083CDE9D7
:1061F0000C3A72B60D9B5A1E0D923BB1D6F808347C
:10620000A3F58063D3F1000949EB03090CA8FFF75C
:1062100017FEB9F1000FE4D1D6F8000406F800B07B
:10622000FFF72AFED6F80834C6F800040133C6F892
:106230000834D6E704A8FFF703FE0134C3E74FF0A4
:10624000FF3406A8FEF74DFF204613B0BDE8F08FDF
:106250001C46F6E74FF0FF34F6E700BF8A3801002E
:106260009C040020B2390100C2390100F339010059
:1062700038B5044680690D4650B100F58160FFF7DE
:10628000E5FDA84204D22046BDE83840FFF752BFE2
:1062900038BD2DE9F74F07468A4611461646FFF7E7
:1062A000E7FF3B69002B33DBBC6994B34FF0010B74
:1062B00056440024D946B2452BD0BBF1000F28D05C
:1062C000BD69D5F808344BB995F800809B460AF8AB
:1062D000018BBBF1000FEED00134ECE7EFF310833C
:1062E000CDE9003972B6019B5A1E019263B1D5F80F
:1062F000040415F80080FFF7BFFDD5F80834C5F891
:106300000404013BC5F808346846FFF799FDDEE751
:106310000024204603B0BDE8F08FFFFF10B50369ED
:10632000002B8EB0044628DB154902A8FFF75EFD5E
:106330004FF4E1311348FFF707FA134908A8FFF7B4
:1063400055FD23690193114B009302AA104B0D4890
:1063500008A9FFF7B1F9044608A8FEF7C2FE4CB140
:1063600002980AF0D4F9044602A8FEF7BAFE2046C5
:106370000EB010BD4FF0FF34F6E74FF0FF34F6E7F4
:106380008A3801009C040020843901008B39010007
:10639000BD38010010B50369002B8EB004461CDB2C
:1063A0000F4902A8FFF722FD4FF4E1310D48FFF736
:1063B000CBF90D4908A8FFF719FD236901930B4B91
:1063C000009302AA0A4B074808A9FFF775F908A825
:1063D000FEF787FE02A8FEF784FE0EB010BD00BFD8
:1063E0008A3801009C040020D4390100DC39010006
:1063F000BD38010010B50369002B8EB004461FDBC9
:10640000104902A8FFF7F2FC4FF4E1310E48FFF704
:106410009BF90E4908A8FFF7E9FC236901930C4B8F
:10642000009302AA0B4B084808A9FFF745F908A8F2
:10643000FEF757FE4FF0FF33236102A8FEF751FE2F
:106440000EB010BD8A3801009C0400209439010070
:10645000A2390100BD38010010B503688EB01B6978
:1064600004469847002828DC2369002B27DB1549C0
:1064700002A8FFF7BBFC4FF4E1311348FFF764F9C2
:10648000124908A8FFF7B2FC23690193104B00934F
:1064900002AA104B0C4808A9FFF70EF9044608A8F9
:1064A000FEF71FFE1CB102980AF031F9C4B202A82F
:1064B000FEF717FE20460EB010BD0124FAE70024B7
:1064C000F8E700BF8A3801009C040020A73A0100C9
:1064D000B93A0100BD38010030B50C4695B005460B
:1064E00002A805F005FF2369002B33DB1D4908A82E
:1064F000FFF77CFC4FF4E1311B48FFF725F91B49FE
:106500000EA8FFF773FC23690193194B009308AAA7
:10651000184B15480EA9FFF7CFF804460EA8FEF752
:10652000E0FDA4B108992C4602A806F00BF8124B26
:1065300044F8043B03AB0FCB84E80F009DF81C30FC
:106540002B7508A8FEF7CDFD284615B030BD08A86C
:10655000FEF7C7FD002300931A461946284605F0AA
:10656000CFFEF1E78A3801009C040020753A010053
:10657000803A0100BD380100E43E010010B5036916
:10658000002B8EB0044625DB134902A8FFF72EFC32
:106590004FF4E1311148FFF7D7F8114908A8FFF788
:1065A00025FC236901930F4B009302AA0E4B0B4865
:1065B00008A9FFF781F8044608A8FEF792FD1CB170
:1065C00002980AF0A4F884B202A8FEF78AFD2046D9
:1065D0000EB010BD0024FAE78A3801009C040020A8
:1065E0006839010075390100BD38010013B5002379
:1065F0000446D1E90002C1E900332368206002A803
:106600000093636840F8043D6260FFF765FC204634
:1066100002B010BDF7B54FF47A730025C0E90153FD
:10662000184B036001274FF0FF33C0E904350446DF
:10663000C0E9065580F8207040F20C4009F0C0F81F
:106640004FF48062064629460AF035F91020C6F854
:106650000054C6F80454C6F80854CDE9006509F0A2
:10666000AFF8094B0360C0E90177C6600190694645
:1066700004F11800FFF7BAFF01A8FFF72DFC204630
:1066800003B0F0BDF43A01005439010073B54FF482
:106690007A730025C0E90153174B03600446C0E933
:1066A0000415C0E9065580F8205040F20C4009F06E
:1066B00087F84FF48062064629460AF0FCF810205D
:1066C000C6F80054C6F80454C6F80854CDE900656D
:1066D00009F076F80123C0E90133084B0360C66076
:1066E0000190694604F11800FFF780FF01A8FFF749
:1066F000F3FB204602B070BDF43A010054390100AA
:10670000704708B503685B69984780F00100C0B224
:1067100008BD13B502AB026803F8011D54681946A1
:106720000122A04702B010BD80688B68C31A58428E
:106730005841704710B500234360064B03604FF08B
:10674000FF330446C0E902311030FFF763FF2046F3
:1067500010BD00BFA43B01002DE9F0418B6801335F
:1067600092B007460C4666D009AA354903A8FEF741
:1067700037FD4FF4E1313348FEF7E6FF02AA324914
:1067800009A8FEF72DFDA3680193304B009303AADF
:106790002F4B2C4809A9FEF78FFF054609A8FEF7E5
:1067A000A0FC002D44D0039809F0B1FF236A834276
:1067B000014604F110080AD141463846FFF774FB40
:1067C00003A8FEF78EFC384612B0BDE8F08109A898
:1067D000FFF75CFF0A9B63610B9BA3610C9BE3616A
:1067E000109E0D9BE56A23620E9B6362AE420F9B77
:1067F000A36215D016B17368013373607DB16B6805
:10680000013B6B605BB92B6828469B689847AB6877
:10681000013BAB601BB92B682846DB689847E662F2
:106820009DF8443084F8303009A8FFF761FBC3E7D6
:1068300003A8FEF756FC3846FFF7ECFEC3E700BF9F
:106840008A3801009C040020743B0100863B010053
:10685000BD38010030B58368013391B004460D4660
:1068600023D10AAA124904A8FEF7BAFC4FF4E13179
:106870001048FEF769FF03AA0F490AA8FEF7B0FC0B
:106880000E4B0195009304AA0D4B0A480AA9FEF786
:1068900013FF05460AA8FEF724FC1DB1049809F071
:1068A00036FFA06004A8FEF71CFC11B030BD00BF8D
:1068B0008A3801009C040020383B0100463B01005F
:1068C000BD380100C168FFF7C5BFFFFF70B5836821
:1068D000002B92B005460E4614462BDB0CAA164937
:1068E00006A8FEF77DFC4FF4E1311448FEF72CFFBB
:1068F00005AA13490CA8FEF773FC0294AB68019338
:10690000104B009306AA104B0C480CA9FEF78CFB09
:106910000CA8FEF7E6FB224631460848FEF744FD88
:10692000054606A825B1FEF7DCFB204612B070BD77
:10693000FEF7D7FB0024F8E78A3801009C0400200A
:10694000563B0100643B0100F339010008B506F035
:1069500059FC002008BD27207047704737B5FFF766
:10696000FCFF01210D2006F08DFB00210D2006F01B
:10697000A1FB68460722032108F0B2FEBDF80030F3
:106980001C4CC3F384130125684607220521E554F6
:1069900008F0A6FEBDF80030C3F384136846072252
:1069A0000621E55408F09CFEBDF80030C3F38413C3
:1069B000684607220921E55408F092FEBDF8003030
:1069C000C3F38413684607220A21E55408F088FEC1
:1069D000BDF80030C3F3841307220B216846E55449
:1069E00008F07EFEBDF80030C3F38413E55403B015
:1069F00030BD00BFCA050020F0B44B788E780A780D
:106A0000CD780F4C1B013603A75C0C794A7906F44C
:106A100040562D02DBB205F44071334307F0030505
:106A20000B43D201E101074C2B43C9B2064DA171C2
:106A3000D2B26380227205600020F0BC704700BFB4
:106A4000F83D01000042044054445700024B00202E
:106A5000FF2218701A7070470042044070B5836AB4
:106A600084B004460E46ABB193E8070001AD85E85B
:106A700007006168E26A097819601E719A60184619
:106A8000636A9847A36A1BB195E8070083E807008B
:106A900004B070BD01AD2B46EBE700BF30B4EFF39F
:106AA0000383103B5BB203F1C0011C4A1C4C52F83B
:106AB00021006FF3104042F8210054F82330D3E94D
:106AC00006218A4212D018699C6868B193F8205058
:106AD0000F2D18D9616840F82210D96901328A4215
:106AE0009A6103D030BC70476068F7E75B680D4976
:106AF00093F90330012203F01F005B09824041F843
:106B0000232030BC7047072D03D821798154D969DF
:106B1000E4E7A48820F81240E0E700BF00600040EE
:106B2000341D002000E100E0F0B4EFF30383103BDC
:106B30005BB203F1C0022849284C51F822006FF3E0
:106B4000104041F8220054F823305C685A69206AEA
:106B5000DD6910B1407801280FD0AA420BD0D3E9EB
:106B6000020129B193F820400F2C16D951F82210B8
:106B7000416001325A61F0BC70476E1E964214D0DB
:106B800021690029E9D094F90310154C01F01F0682
:106B90004909B04044F82100DFE7072C95BF895C24
:106BA00031F8121001718180E3E794F9036006F176
:106BB000C0077409A40051F827C004F1604404F52B
:106BC000614406F01F06B0406FF3104C41F827C037
:106BD000C4F880012060C0E700600040341D002040
:106BE00000E100E070B4EFF30383103B5BB2304A86
:106BF000304C03F1C00152F821006FF3104042F80D
:106C0000210054F823008268D278920705D54268A3
:106C1000527A012A01D070BC7047590920310122F3
:106C2000254C03F01F0302FA03F344F82130BFF3AD
:106C30004F8FBFF36F8F436893F90230002B2EDB29
:106C40005909203103F01F0302FA03F344F82130FD
:106C5000BFF34F8FBFF36F8FD0E90114237891F901
:106C600002106FF386130029237014DB01F1C005B5
:106C70000F4C4B099B0054F8256003F1604303F56A
:106C8000614301F01F018A406FF3104644F825600C
:106C9000C3F880211A60012170BCFFF7DFBE826853
:106CA00013786FF386131370012170BCFFF7D6BE03
:106CB00000600040341D002000E100E0F8B5EFF373
:106CC0000384103C314B64B253F82460736893F929
:106CD0000230002B42DB5A09203201202C4903F0FC
:106CE0001F0300FA03F341F82230BFF34F8FBFF3C5
:106CF0006F8FD6E90112137891F902106FF38613A2
:106D00000029137015DB01F1C007224D4B099B00D0
:106D100055F827C003F1604303F5614301F01F01FB
:106D200000FA01F16FF3104C45F827C0C3F8801149
:106D30001960D5780023EDB2D3702A0721D4EB0770
:106D400012D405F01405142D16D0C034114B53F88D
:106D500024206FF3104243F82420F8BDB268137862
:106D60006FF386131370E4E70421304605F0140531
:106D7000FFF774FE142DE8D130460821FFF76EFEB0
:106D8000E3E705213046FFF769FED8E7341D002010
:106D900000E100E00060004070B50D46016A8B78AC
:106DA00003F07B038B700378044623B3C0E90352DE
:106DB000E369186988B122697AB1A37881680068AB
:106DC0008E68E16803F00303013B22FA03F300221B
:106DD0009BB22261B04768B9216A8B7843F0800387
:106DE0008B70207878B9A37803F00303022B0CD0C2
:106DF0002B78CB7070BD837803F00303D21A2B4439
:106E0000C0E90332D4E7002070BD2B8843F47E43F1
:106E1000CB8170BD036A9A7870B4D2B2054602F095
:106E20000B004E780C7898700020E8608D785D70CB
:106E30001D7866F301051D70C9789974DD7904F039
:106E40005C0105F0A304214302F07B02D97170BC00
:106E50009A707047F0B5846A85B006468C4617462E
:106E6000BCB194E80F006D4685E80F00F269F36A43
:106E700012782260E360C4F808C027712046736A64
:106E80009847B46A1CB195E80F0084E80F0005B07C
:106E9000F0BD6D462C46E9E770B5D0E9072592F9BB
:106EA00005202F49044650090123203002F01F021B
:106EB000002603FA02F26660AE7041F82020BFF3AC
:106EC0004F8FBFF36F8FE26992F90B20500920308A
:106ED00002F01F0203FA02F241F82020BFF34F8FA5
:106EE000BFF36F8FE26992F907205009203002F05A
:106EF0001F0203FA02F241F82020BFF34F8FBFF3C5
:106F00006F8FE26992F909205009203002F01F02C8
:106F1000934041F82030BFF34F8FBFF36F8FE36989
:106F2000DA6822B1936810681B6A9847E3691B69A5
:106F30001BB19A681868136A9847EFF3108201230F
:106F400083F31088E069074900784C68C0F11F009E
:106F5000834023434B604B6882F31088002070BD50
:106F600000E100E0FC6F04402DE9F8430D4609788C
:106F70000323CB4013F0010301F1007218BF10236B
:106F8000037002F5605283785201012102620446C7
:106F90006A78C56161F30103D5E9051061620021DA
:106FA000A370C4E90A1022B9DBB2022262F3010322
:106FB000A37095F90B60674BA87A7209203206F02E
:106FC0001F07012101FA07F743F82270BFF34F8F23
:106FD000BFF36F8F604A614F06F1C00C03EB0608E8
:106FE00052F82CE000016FF3104E42F82CE0C0B2D2
:106FF00088F8000395F9050047F826404FEA501C31
:107000000CF1200C00F01F0E01FA0EFE2E7943F851
:107010002CE0BFF34F8FBFF36F8F00F1C00C03EB79
:10702000000852F82CE036016FF3104E42F82CE0C5
:10703000F6B288F8006395F9076047F820404FEAF8
:10704000561C0CF1200C06F01F0E01FA0EFEA8795A
:1070500043F82CE0BFF34F8FBFF36F8F06F1C00CE6
:1070600003EB060852F82CE000016FF3104E42F8D3
:107070002CE0C0B288F8000395F9090047F82640D3
:107080004FEA501C00F01F060CF1200CB1402E7A84
:1070900043F82C10BFF34F8FBFF36F8F00F1C00C7C
:1070A000310152F82C600344C9B26FF3104642F824
:1070B0002C6083F8001347F82040EB68F3B159685F
:1070C000266A0A68E7694FF4002C701DC2E900C007
:1070D00094F800C0BCF1000F01D0113656607E78E4
:1070E00036B9D67801270B3067F305165060D67095
:1070F0009A68186813689847064640BB2B69002BAE
:107100002ED05968266A0A68E7694FF0006CF01CB7
:10711000C2F800C0906094F800C0BCF1000F01D02C
:107120000F3696607E7836B9D67801270B3067F334
:1071300005169060D6709A681868136898470646D6
:1071400070B1EB681BB19A681868136A98473046AB
:10715000BDE8F88300E100E000600040341D00203D
:10716000EFF31082012383F310889B492E7848683F
:10717000C6F11F06B34020EA03034B604B6882F35D
:107180001088236A00229A701A715A729A72DA72FF
:107190005A83297840F20722CA40D20744BF4022CE
:1071A000DA7406221A772278E16972B1C868013A66
:1071B000002800F008810120120392B2024342F03D
:1071C00006009882988A8242FCD1EE786A78A87884
:1071D000F600032A46EA001600F0E280002A0CBFFF
:1071E0004FF0E20E4FF0F20EED696A7895F802C0AA
:1071F0002F7B2878F6B2D2014FEA4C1C1E700CF09F
:10720000200C7F00D2B2861E07F0020742EA0C0271
:10721000012E4FF0000C83F806E05F7383F808C07E
:1072200040F2C8806E68D2B2DA71B2785A701F78B4
:1072300096F801C032786CF301071F70F6789E74DF
:10724000DE7902F05C0206F0A3063243DA7191F9AE
:1072500005C0624E0027C4E90377C4E905770CF145
:10726000C00200F0030056F822E067F3104E46F823
:1072700022E04FEA5C12920091F90B8002F1604229
:1072800002F561420CF01F0E4FF0010C08F1C0092D
:107290000CFA0EFEC2F880E1C2F800E056F8292090
:1072A00067F3104246F829204FEA5812920091F9EC
:1072B00007E002F1604202F5614208F01F080EF19A
:1072C000C0090CFA08F8C2F88081C2F8008056F8AC
:1072D000292067F3104246F829204FEA5E129200F7
:1072E00091F9091002F1604202F561420EF01F0EA1
:1072F00001F1C0080CFA0EFEC2F880E1C2F800E00D
:1073000056F828E067F3104E46F828E04A09920044
:107310006D8902F1604202F5614201F01F014FF6F2
:10732000FF760CFA01F140F07000B542C2F880110E
:107330001160987025812DD0EFF310818CF31088A7
:10734000274A13681BB927484025C370C5701368C6
:107350000133136081F31088218923480B0A1B0134
:1073600053FA81F150F8213023F0011323F4404304
:1073700043F0040340F82130EFF31081012383F33D
:107380001088136813B11368013B1360136863B16D
:1073900081F31088154B636000263046BDE8F88302
:1073A00046F040064FF0F20E1EE70E4A8020D370E2
:1073B000D070EDE7022808BF42F01002FF26D2B2DB
:1073C0005E70DA7143E7C869007A1040000200F489
:1073D000706040F00100EFE6FC6F04400060004088
:1073E000301D0020000D044000080440554943535F
:1073F0002DE9F04F9B46FF258024634B8BF802500C
:107400008BF80340614C1B6A2668614C9BF8005066
:10741000C3F302678BB0BE40C3F3023326FA03F313
:1074200000910992A3FB0412CDE9021200266FF32A
:10743000820506931B0ACDE907068BF8005020460B
:1074400005930196099B834276DA9DF820300493D8
:107450000027504B049ADD5DC5F34009C5F3800554
:1074600049EA050393425FD14B4B33F81780079BE2
:1074700003FB08F8069BB3FBF8F4661EFF2E53D8F7
:1074800004FB08F4824621E0059AB4FBF2F27F2A5D
:1074900002FB03F354D9002BB8BFFF331B12A3F533
:1074A000C333A03B002BB8BF5B429A454ADC9BF834
:1074B00000309DF804208BF8032043F00403A4EB74
:1074C00008048BF80030002E3AD0013E2246E31724
:1074D000DDE9020108F054FFA0F5C330A038009A9E
:1074E00000F5C333A033002ACED10028B8BF4042F4
:1074F000824525DD274B9BF80110DA5D9BF80030B3
:107500008BF80260C2F3000464F3861369F304137A
:1075100065F3C303C2F3C10262F301018BF80030CB
:10752000009B8BF80110019301370D2F91D1089B1F
:107530001BB3099B984223DC00200BB0BDE8F08F01
:107540005046F1E713498BF80260C85D9BF80010C4
:107550000192C0F3000C6CF386119BF801C069F333
:107560000411C0F3C10065F3C30160F3010C9A4636
:107570008BF800108BF801C099E70123089361E7AD
:1075800003200BB0BDE8F08F00E00140BC1D0020DF
:10759000A0860100003E0100103E0100F0B4EFF3B0
:1075A0000383103B5BB203F1C001324A324C52F804
:1075B00021006FF3104042F8210054F82300C26903
:1075C0000369126992B10BB1F0BC7047026A9378FB
:1075D000446A03F07F0343F0040300219370C16009
:1075E000002CF1D08022F0BCFFF734BC026A002BE3
:1075F000EDD00678E6B1D48AC4F30424B4422DD287
:107600008578C16805F0030C654609E00F78D773EB
:1076100001345B1B2944B442C0E903131ED223B3D7
:10762000BCF1020FF2D10F8847F47E47D781EFE714
:107630008178C46801F00305022D0AD02578D57041
:1076400001F003029B1A2244C0E90323002BBBD1A3
:10765000BCE7258845F47E45D581F1E711796FF3C4
:10766000C7111171002BAFD1B0E7117963F3C711C6
:107670001171ACE700600040341D002030B583B0CC
:10768000EFF30383103B5BB203F1C001554A564C44
:1076900052F821006FF3104042F8210054F82340C3
:1076A000E369DB6873B1A36963B1636A0021C4E96C
:1076B0000511002B70D02046012203B0BDE83040F8
:1076C000FFF7C8BB22894FF6FF739A4220D0EFF331
:1076D0001081012383F31088444B1A681AB9444877
:1076E0004025C270C5701A6801321A6081F3108893
:1076F00022894049130A1B0153FA82F251F82230C1
:1077000023F0011323F4404343F0050341F82230F2
:107710002278236A002A41D0D98AC80613D01B8A4E
:10772000C3F308030193A369002B41D1636A2BB112
:10773000042201992046FFF78DFB22782AB1236AA3
:10774000D98AC906E6D1BE221A7123894FF6FF7283
:10775000934221D01A0A120152FA83F2254951F8B4
:10776000223023F0011323F4404343F0040341F893
:107770002230EFF31082012383F310881B4B19682A
:1077800011B11968013919601B681BB918498020AB
:10779000CB70C87082F3108803B030BDA17801F0BF
:1077A00003010229BBD05B790193A369002BBDD0F3
:1077B000A278606902F0030201A909F058F8D4E93F
:1077C0000521A37803F003031A44C91AC4E905216B
:1077D00029B9636A1BB101222046FFF73BFB2278DF
:1077E000ACE700BF00600040341D0020301D0020C9
:1077F000000D04400008044010B5EFF30384103C72
:107800000B4B64B253F82400D0E90821937803F0BD
:107810007B03937019B102220021FFF71BFBC034D8
:10782000044B53F824206FF3104243F8242010BD7A
:10783000341D00200060004070B5EFF30384103C5D
:10784000164B64B253F824000278036A3AB982787E
:1078500002F00302022A02D05979C9B202E0198A61
:10786000C1F308011D79EDB2EE0605F0380204D52A
:107870001D7FED0758BF42F040021D79466A05F0B2
:10788000C7051D710EB1FFF7E5FAC034044B53F87C
:1078900024206FF3104243F8242070BD341D0020D3
:1078A0000060004070B5436A84B004460E46ABB138
:1078B00093E8070001AD85E807006168A26A0978CE
:1078C00019601E719A601846236A9847636A1BB153
:1078D00095E8070083E8070004B070BD01AD2B46B2
:1078E000EBE700BF10B4EFF30383103B5BB203F18F
:1078F000C001144A144C52F821006FF3104042F8B2
:10790000210054F823305A69D9698A4206D2D3E952
:107910000240A8B1805CE07001325A61914202D00D
:107920005DF8044B70471A69002AF9D19A685DF82E
:10793000044B937803F07B0343F004039370704788
:10794000E070E9E700600040341D002010B4EFF360
:107950000383103B5BB203F1C001174A174C52F886
:1079600021006FF3104042F8210054F823305A6987
:10797000D9698A4206D2D3E90240D0B1805CE07076
:1079800001325A619A698A4207D298681969407926
:10799000541C9C618854D3E90621914206D19A680F
:1079A000937803F03B0343F0040393705DF8044BBA
:1079B0007047E070E4E700BF00600040341D002025
:1079C00010B5EFF30384103C64B20A4B53F8240063
:1079D0008268937803F0030393700121FFF762FF3D
:1079E000C034054B53F824206FF3104243F8242091
:1079F00010BD00BF341D00200060004010B5EFF343
:107A00000384103C64B20B4B53F8240083689A78CB
:107A100002F003029A70842219791A710421FFF787
:107A200041FFC034044B53F824206FF3104243F855
:107A3000242010BD341D00200060004003685B69F5
:107A4000A3B190F82D2070B502F0FF056AB9044685
:107A50009A6818689668238CA1692A46B047E2693B
:107A600025620123626284F8333070BD704700BF25
:107A7000F0B5856B83B004460F4635B395E8030037
:107A80006E4686E803002368E16B5A6929602F710E
:107A90003AB194F82D1021B9936810681B69984782
:107AA00023689B6933B194F82D201AB19A6818683D
:107AB00013699847636B28469847A36B1BB196E8F8
:107AC000030083E8030003B0F0BD6E463546DAE7F5
:107AD000EFF30383103B5BB2C033044A52F8231028
:107AE0006FF3104142F82310704700BF0060004060
:107AF000F8B5EFF30383103B5BB2C033624A52F830
:107B000023106FF3104142F82310EFF30383103B6F
:107B10005BB25E4A52F8234021690B7B13F00103EC
:107B20002CD194F82C2094F82A00904216D094F886
:107B30002D300BB1022A43D02046FFF77FFF236987
:107B400094F82820DA7094F82B2094F82C30013A1D
:107B5000013384F82B2084F82C30F8BD94F83320BE
:107B600002F0FF054ABB236ABBBB94F82E3053B327
:107B700052220123CA7284F83030F8BD94F82D30B7
:107B80009BB194F8313083B9636AA2694979D154C1
:107B9000D4E9082394F82E10013A0133C4E90823EC
:107BA000A1B923695422DA72F8BD002001225423BE
:107BB000206284F82F20CB72F8BD84F83330F8BDF2
:107BC0005223CB72F8BD5423CB72F8BD22695221E7
:107BD0000123D17284F83030F8BD94F82D20002AAA
:107BE00032D094F83120002A37D0226884F83150FE
:107BF0005069002841D09269002A3ED0E669022EE1
:107C00003BD9936810689F68A269B31EF4268E70F2
:107C10009BB22946B8472268E369526991681068A7
:107C20008E68023B9BB22A462946B047E369216928
:107C3000023B0220C4E90803012284F83320002318
:107C4000FF228B72CA70F8BD626AA569501C013BA5
:107C5000AA5CC4E90830CA70F5E7636AA269497989
:107C6000D154D4E90832013B0132012B2169C4E926
:107C7000083204D0FF22CA70E5E7012BDFD82023A9
:107C8000FF228B72CA70DEE700600040341D0020C6
:107C900038B5EFF30383103B5BB2374A52F8234009
:107CA0002269D37A6FF3C303D37294F82F30002B79
:107CB00039D103F0FF0094F82A1094F82C3099423F
:107CC00020D1236A8BB994F82D1094F83000002944
:107CD0000CBF03210221C8BBF023D372937803F0B9
:107CE000CF0393702046FFF7C3FEEFF30383103BEF
:107CF0005BB2C033214A52F823106FF3104142F8AF
:107D0000231038BDB3B9012924D094F829000021EB
:107D1000D172D07094F82B200133013A84F82C30C2
:107D200084F82B20E1E7F0232046D3720121FFF7EE
:107D30009FFEDAE794F82D5005F0FF0145B1022BC4
:107D4000E5D194F8290040F00100E0E7D372C9E7DB
:107D50000846DCE72046FFF771FE94F82A30012B35
:107D600005D194F82800226994F82C30CFE72269D5
:107D700094F82C30C9E700BF341D0020006000409B
:107D8000F0B583B0EFF30384103C64B2144B53F8A6
:107D90002450EF68BFB16A682B6992F90D20121B5D
:107DA00018BF0122CBB193E803006E4686E80300BA
:107DB000696959601A701846B8472B691BB196E873
:107DC000030083E80300C034064B53F824206FF30C
:107DD000104243F8242003B0F0BD6E463346E7E777
:107DE000341D002000600040EFF30383103B5BB2C2
:107DF0000649074A51F823100120C033087252F88F
:107E000023106FF3104142F823107047341D0020F7
:107E100000600040C8B20123834098B252B10023F1
:107E2000090A490101F1804101F5802103438B607A
:107E3000002070471B041046F2E700BFF8B5002889
:107E40003BD009681E4F4FF0000C01EBC0006646A6
:107E50004FF0010E8D8840F2024295424FF0000330
:107E60000BD10C680EFA03F204F0B854D2B2B4F19C
:107E7000807F0CBF164342EA0C0C0133032B06D063
:107E800037F813209542ECD00133032BF8D1083199
:107E90008142DFD16FEA0C0C5FFA8CF4012001F013
:107EA0009BFF084B93F8BB241643264083F8BB6422
:107EB0000120BDE8F84001F05FBF0646FF24EDE772
:107EC0002C3E010000E00140F0B585B004AB02A8F3
:107ED00043F80C0D01260C46304619461546ADF800
:107EE0000C400292ADF80060FFF7A8FFEFF310819D
:107EF00086F310881B4B1A681AB91B484026C270BB
:107F0000C6701A6801321A6081F31088200AEA03E9
:107F1000E4B24FEA00100BD50119144A52F821704F
:107F200025F480366FF3104742F8217042F8216043
:107F300020440E4A42F82050EFF31082012181F3D1
:107F40001088196811B11968013919601B681BB9CB
:107F500005498020CB70C87082F31088002005B0DE
:107F6000F0BD00BF301D0020000D0440000804409B
:107F7000F0B5C36A85B005460E4617469BB193E837
:107F8000070001AC84E807002A6B1A605F601E726C
:107F90001846AB6A9847EB6A1BB194E8070083E880
:107FA000070005B0F0BD01AC2346EDE770B5012335
:107FB000856880F820300226B323EB7180F82160B9
:107FC0006B79C26904466FF300036B710D46FFF7CE
:107FD000CFFFA368DE705A7942F001025A7194F81B
:107FE0002120012A05D094F821200AB9052D04D0BA
:107FF00070BD042D01D0082DF5D194F82320002A5E
:10800000F6D194F821201AB95A7A02F0F3025A7282
:10801000BF210122D97184F8232070BD836810B478
:10802000A0220024DA7180F8204080F822405A799A
:1080300064F300025A7190F824206AB9DF249F2269
:108040001C701A7000240223C26980F82130C461B8
:108050005DF8044BFFF78CBF5C72F3E730B583B07B
:10806000EFF30383103B5BB2C033424A52F8231054
:108070006FF3104142F82310EFF30383103B5BB220
:108080003D4A52F8234094F82220A368AAB901225D
:1080900084F82220DA7CD2B28DF805209DF80520E4
:1080A00012F0010F5A7A14BF02F0F70202F0F30245
:1080B0005A72AC22DA7103B030BD94F820204AB96C
:1080C0001B7A13F0080F0CBF042108212046FFF78C
:1080D0006DFFA368226962B1A1698A421DD0E2687E
:1080E000DB7C481CA0615354E3690133E36103B0B6
:1080F00030BDD97CC9B28DF806109DF806101979EB
:1081000041F010011971197941F0080119711979BB
:1081100062F30411197103B030BD022584F82150B7
:108120005979E2696FF30001597120460621FFF782
:108130001FFFA3682169DD705A7942F001025A716C
:1081400091B9DA7CD2B28DF807209DF807201A7910
:1081500042F010021A711A7942F008021A711A7963
:1081600061F304121A71A6E7A269E168DB7C501C76
:10817000B8E700BF00600040341D002038B5EFF3C1
:108180000383103B5BB2C033224A52F823106FF3D3
:10819000104142F82310EFF30383103B5BB21E4AF9
:1081A00052F8234094F8203093B194F8213003F032
:1081B000FF0263B9A3692069A16898420DD0E26902
:1081C000E0680132C05C88740133C4E9063238BD0E
:1081D00005212046FFF7EAFEE7E723680D4893F9FB
:1081E0000E3003F1C004002B50F8245062F3104508
:1081F00040F8245009DB5A09603203F01F030120C4
:10820000064C00FA03F344F82230CB7943F04003E4
:10821000CB7138BD00600040341D002000E100E05B
:1082200038B5EFF30383103B5BB2204A52F823408A
:10823000A1680B79C3F38003BBB1CB796FF38613CD
:10824000CB71C02301E0013B02D0CA795206FAD4B7
:10825000EFF30383103B5BB2C033154A52F823108F
:108260006FF3104142F8231038BD022584F82150E5
:108270004879E26963F30000487107212046FFF75F
:1082800077FEA168CD704B7943F001034B7194F8F0
:108290002130002BD1D1A369E269E0680132C05CD2
:1082A00088740133C4E90632C7E700BF341D0020DB
:1082B0000060004000B583B0EFF30383103B5BB276
:1082C000214A52F823008268537ADBB299072FD1F2
:1082D00013F00C0F1FD0012380F8243090F82130C8
:1082E000012B2ED0026983699A4228D9C369013BC8
:1082F000C3610321FFF792FEEFF30383103B5BB2F0
:10830000C033124A52F823106FF3104142F8231081
:1083100003B05DF804FBDB06EED5D37CDBB28DF851
:1083200007309DF80730D37903F0EF03D371E3E70B
:10833000002380F824300121FFF770FEDCE70321E1
:10834000D8E70221D6E700BF341D002000600040BE
:1083500030B5836B83B004460A46ABB193E80300A3
:108360006D4685E80300E16B19601A711846636B6E
:108370009847A36B1BB195E8030083E80300002333
:1083800084F82B3003B030BD6D462B46EBE700BFC1
:108390002DE9F04FD0F800800469D8F82450D8F8BF
:1083A00004A095F800E095F801B0DFF868C1DFF8A7
:1083B0006891DFF868811F2626705F27DF26277007
:1083C00026702F799DF9286047F0E0072774EF7831
:1083D00047F0E0076774AF789DF92450BEF1010FB4
:1083E0004FEA07170CBF4FF0050E4FF0040E07F0D1
:1083F00070074EEA4B0E47F00807A7700CEB060B10
:10840000CA450CBF4FF0F7094FF077095FFA8EFEAF
:108410004FF0000AB327090184F803E0C9B284F8D9
:10842000059006F1C00E84F806A0E771384F8BF86E
:10843000001348F8260057F82EB04FEA56194FEAB5
:1084400089096AF3104B09F1604947F82EB009F524
:1084500061494FF0010E06F01F060CEB030B0EFAFC
:1084600006F6C9F88061C9F8006003F1C0098BF80D
:1084700000135E0948F8230057F829B0B60006F14A
:10848000604606F5614603F01F036AF3104B0EFACF
:1084900003F347F829B00CEB0509C6F880313360C7
:1084A00005F1C00389F800136E0948F8250057F854
:1084B0002390B60006F16046944406F561466AF3DF
:1084C000104905F01F0547F823900EFA05F502F153
:1084D000C009C6F8805135608CF8001348F82200B6
:1084E00057F8291053099B0003F160436AF31041C8
:1084F00047F8291003F5614302F01F020EFA02F259
:108500009F20C3F880211A602070BDE8F08F00BF63
:108510000060004000E100E040420F00341D0020F8
:10852000C369026913B990F82C308BB130B5044699
:1085300083B0A1B994F82630A16984F828300023CB
:10854000E36184F82C30B3232162D37103B030BDD2
:1085500090F82B30002BE9D1B323D371704700681A
:108560000023D37190F9115090F90E20417B90F9BE
:108570000F30019590F9100000902046FFF708FF9A
:108580002269D7E710B483B0EFF30383103B5BB2EB
:10859000C033474A52F823106FF3104142F82310BA
:1085A000EFF30383103B434A5BB252F8233093F856
:1085B0002D10DA69B1B998691969012803D90879C8
:1085C00040F040000871012A27D0CA7CD2B28DF851
:1085D000072001229DF8071083F82D2003B05DF8D5
:1085E000044B7047002AF9D0032A1FD0022A23D057
:1085F000012A2BD019691A6A5869C97C8154D3E9B8
:1086000007210131013AC3E90721002AE6D119699E
:108610000B7962F386130B71E0E70A7942F01002DE
:108620000A710A7942F008020A71CEE719690A79DB
:1086300042F040020A71DEE719690A7942F010023D
:108640000A710A7942F008020A71D4E793F82A10F5
:1086500029B31968184C91F90F104809203001F01E
:108660001F0102FA01F144F82010BFF34F8FBFF34E
:108670006F8F1969C87940F08000C871087940F09F
:1086800010000871087904246FF3C30008714C705E
:1086900048796FF30000487183F82C20ABE7196923
:1086A0004A7A082002F0F7024A724870A3E700BF36
:1086B00000600040341D002000E100E010B4EFF342
:1086C0000383103B5BB2C033344A52F823106FF37C
:1086D000104142F82310EFF30383103B304A5BB2A2
:1086E00052F8233093F8272092B193F8260093F89C
:1086F000281003283DD0186993F824408474013170
:10870000013A83F8281083F827205DF8044B70475E
:1087100093F82920002AF8D1DA69186982BBC27956
:108720006FF3C712C271C02201E0013A02D0C179D1
:10873000C909FAD11B68194A93F9103003F1C00135
:10874000002B52F821406FF3104442F8214009DB1E
:108750005A09603203F01F030121124C01FA03F39E
:1087600044F82230C3795DF8044B43F04003C371F1
:1087700070470229BFD193F830000028C5D0BAE76E
:10878000196A5C69013A645C84740131C3E90721A8
:10879000002AC4D05DF8044B704700BF0060004061
:1087A000341D002000E100E030B4EFF30383103B00
:1087B0002A4A5BB252F8233093F829201AB193F871
:1087C0002720012A45D0DA69CAB11969CB796FF33C
:1087D0008613CB71C02301E0013B02D0CA79520657
:1087E000FAD4EFF30383103B5BB2C0331C4A52F858
:1087F00023106FF3104142F8231030BC704793F8F8
:108800002A10F1B11968174D91F90F10480920305D
:10881000012401F01F0104FA01F145F82010BFF313
:108820004F8FBFF36F8F1969C879042540F080001E
:10883000C8714D70487962F30000487183F82C408C
:10884000C4E719694B7A082203F0F7034B724A70A8
:10885000BCE793F83020002AB5D1B6E7341D0020DC
:108860000060004000E100E038B5EFF30383103B07
:108870005BB2344A52F823402269537ADBB2E021DA
:10888000DD06517203F003011AD55078400637D443
:1088900001252946204684F82B50FFF741FE294642
:1088A0002046FFF755FDEFF30383103B5BB2C03367
:1088B000254A52F823106FF3104142F8231038BDB7
:1088C0000029E5D119070FD594F82B30002B33D1AF
:1088D00094F82910B323002914BF02210321D37176
:1088E0002046FFF735FDDEE794F82C100029DAD09A
:1088F0005B07D8D594F82B300121002BF0D1E7E7A6
:108900000029C5D151784D06C1F38010DAD523680E
:1089100084F82B00596A537A0978012903F0F70388
:108920000CBF03210221082053725070D17053797B
:1089300043F001035371B6E700212046FFF7F0FD35
:108940000121CDE7341D0020006000402DE9F041F9
:1089500091F90240194EA300D1E9025203F180437C
:1089600003F5C0430027D3F800C30471C3F80073B4
:10897000C0E902520D78457191F80480CA7891F8E7
:1089800005E0775542EA081242EACE12D2B2BC4262
:108990007255C3F800C30BDB4B78094904F1604200
:1089A0001B0102F56142DBB282F8003341F824007A
:1089B000044B03600020BDE8F08100BF0060004070
:1089C000341D00205543490030B490F904200D486F
:1089D00002F1C004530950F824509B006FF3104576
:1089E00003F1604340F8245003F5614302F01F0295
:1089F000012101FA02F20020C3F880211A6030BC84
:108A0000704700BF0060004070B582B0EFF3038490
:108A1000103C164B164964B253F8242056799568D9
:108A20008B5D03F00303032B0FD0C03451F82430C7
:108A30006FF3104341F824302DB102A8D36840F8F9
:108A4000083D0196A84702B070BD2DB102A8D368B9
:108A500040F8083D0196A847C034054B53F8242040
:108A60006FF3104243F8242002B070BD341D002083
:108A7000006000400346D3E90223002053607047A2
:108A80000346D3E90123D269F0B4D2E90347D2E91E
:108A90000115566945F0004544F0004441F000429C
:108AA0005D6100209C611A615F629E62F0BC70474C
:108AB000D0E9012330B410785A6E0C4D0C4C0328C9
:108AC00098BF01328A60D86A2A6A2368C2F30264B6
:108AD000A34002F00702C0F3C350D340C3400122B9
:108AE00000204B600A7030BC704700BF00E00140BE
:108AF000BC1D0020002824DB30B400F1604303F5E6
:108B00006143104D104C0901C9B283F8001345F8B8
:108B1000202000F1C001430954F821509B006FF35D
:108B2000104503F1604344F8215003F5614300F020
:108B30001F00012202FA00F0C3F8800130BC186067
:108B400070477047341D002000600040F0B5836915
:108B500085B005460F4616469BB193E8070001AC69
:108B600084E80700EA691A601F719E6018466B6905
:108B70009847AB691BB194E8070083E8070005B08C
:108B8000F0BD01AC2346EDE7430910B4203300F0FB
:108B90001F0408490122A24041F82320BFF34F8F50
:108BA000BFF36F8F044B5DF8044B002243F8202085
:108BB000704700BF00E100E0341D002038B5436875
:108BC000044693F91200DD69002801DBFFF7DCFFA2
:108BD00095F92400002801DBFFF7D6FF95F9250061
:108BE000002801DBFFF7D0FFAB6A2BB193F901003E
:108BF000002801DBFFF7C8FFD4E90221002323602E
:108C000018469160536338BD30B40478486E032C25
:108C100098BF013042B1824206D2032C98BF02F1C4
:108C2000FF321A6030BC7047029D496BED0754BF9C
:108C300001F01F01C1F30441032C09D9090981F096
:108C4000010172B901B180B902225A6030BC70478B
:108C500001F00C01A1F10401B1FA81F14909002AE6
:108C6000F0D0824201D30029EED103225A6030BCF9
:108C7000704700BFF0B585B006460F461546D0E9EF
:108C8000010102AB00924FF0FF3C00243A46CDE9CF
:108C900002C4FFF7B9FFB168039B0C6B05F003003A
:108CA0007BB915F0080F14BF0422022215F0020F41
:108CB000DDF808C018D001EB8202C2F84CC0C2F83F
:108CC00050C06A0603D50A6C42F480020A64012887
:108CD00011D024F44034022D44EA03440DD068B985
:108CE00000200C6305B0F0BD0244123201EB820299
:108CF000C2F804C0E5E7022D00D13BB924F040746E
:108D000044EA036400200C6305B0F0BD01257068DF
:108D1000009502AB3A46FFF777FFB168039BEDE79A
:108D20002DE9F0470B7C41600D46012101FA03F269
:108D3000C260920716BF00220174027403F580031B
:108D4000D5E9051203F5F0631B02002784B0044641
:108D500083604161C0E90672EE69EFF3108301227E
:108D600082F31088874A287CD16801288CBF6FF075
:108D700040006FF020000140D160D26883F310887A
:108D80002A78287A6B68A1684FF4254C032AC1F829
:108D900000C04FEAC050CF6203F1FF3ECF638F6443
:108DA00000F0D88084BF40EA02409E464FF0004C5D
:108DB000C862D6F81880F069C1F810C00027C1F861
:108DC00014C0C1F818C04FF0FF3C4F6203978F6288
:108DD000CDF808C0C1F81C800862D6F82C80C1F814
:108DE00068E0C1F864E0002A40F084805B086344D6
:108DF0000293C64601204FF0030C4B658B65BEF114
:108E0000000F15D1337883B1777848F48078022A3F
:108E100048EA87134FEA071800F0A18040F2A180CA
:108E2000032748EA030848EA0708B378002B7CD1F7
:108E3000B76A002F00F08A80BB7897F803A097F8F4
:108E400004901B0643EA0A73D7F808A043EA0943D3
:108E50008B63C1F88CA0BAF1000F61D00123BEF181
:108E6000000F09D197F81C9097F81BA04FEA4969A9
:108E700049EA4A2948EA0908C1F88830BEF1000FDA
:108E800008D196F8213096F820E05B0743EA4E338C
:108E900048EA03084FF4AA03012A0B6402D1002315
:108EA000CB640B65E368CB60C1F83480C1F830C097
:108EB0000863697C95F912002246FFF71BFE2246E3
:108EC00096F8221096F92400FFF714FE224696F831
:108ED000231096F92500FFF70DFE2FB122463978B1
:108EE00097F90100FFF706FE274B2360002004B02E
:108EF000BDE8F087012A3ED9EA686068009702ABB6
:108F0000FFF782FE039FA168029BD6F82CE02A7827
:108F1000380440EA076040F0030C40F001006CE7C1
:108F2000FB68003318BF012399E7F7783B0143EA58
:108F30008713022A43F480730FD017D903273B43CA
:108F4000B76A48EA0348002F7FF476AF8F63C1F811
:108F5000887093E740F4803028E70927EFE7092776
:108F60005FE7002F14BF092706275AE7002F14BF19
:108F700009270627E3E7012063460246C6464FF06D
:108F8000030C3AE7FC6F044054504700F0B4EFF391
:108F90000383103B5BB203F1C001164A164C52F832
:108FA00021006FF3104042F8210054F82300446878
:108FB0002478012C15D1D0E90265B5600025B5648F
:108FC000F564356552F821600C4F65F310465D0974
:108FD000603503F01F0304FA03F342F8216047F8F9
:108FE0002530436923B100221146F0BCFFF7AEBD26
:108FF000F0BC704700600040341D002000E100E03C
:109000001C4B30B4C3600B7803F001034370EFF3E3
:109010001083012585F31088174AD46824F480143E
:10902000D460D26883F31088EFF3108485F310883E
:109030004378CBB1C26813796FF3C713137184F30C
:1090400010884A684B78D278C4680C4DD201D2B2ED
:10905000DB016271DBB20122A371E2710B78037054
:109060004560002030BC7047C5682A7963F38612DA
:109070002A71E4E700E00540FC6F044000434144EE
:10908000C3684278002023F812107047EFF3108273
:10909000012383F310884378C1683BB10B7943F017
:1090A00080030B7182F31088002070470B7943F026
:1090B00040030B7182F3108800207047EFF310819A
:1090C000012383F31088437843B1C26813796FF3A7
:1090D000C713137181F3108800207047C0680279AC
:1090E00063F38612027181F310880020704700BF7D
:1090F00010B40346EFF31084012282F31088427803
:109100007AB1C26811796FF3C7111171117A6FF3D7
:10911000C711117284F31088002058605DF8044B69
:109120007047C168087962F386100871087A62F3A3
:1091300086100872EEE700BF2DE9F0430F688BB090
:109140008846814614461FB33D460FCD6E460FC676
:109150000FCD0FC695E8030086E803000FCC3E460E
:109160000FC60FCC0FC694E8030085E8030038460D
:10917000C847D8F8004044B16D460FCD0FC40FCD9D
:109180000FC495E8030084E803000BB0BDE8F0834A
:109190001746ECE770B58AB0EFF30383103B5BB280
:1091A000C0332E4A52F823106FF3104142F82310B7
:1091B000EFF30383103B5BB2294A52F8235000219E
:1091C0002822684607F077FB6C6894F84D28002148
:1091D000D2B2ADF8042084F84D18B4F84238C3F385
:1091E0000013B3B142F020020223ADF8042094F83A
:1091F000532884F8533894F8523803F01F03D2B23E
:10920000E01884F8532890F8202861F3820280F84F
:1092100020282A686E6A1268009205F120016A46C9
:10922000E86903930496FFF787FFB4F84238DB063A
:1092300011D52B681A69127D6AB193F91530002B8C
:1092400009DB5A09403203F01F030121054801FAE6
:1092500003F340F822300AB070BD00BF0060004048
:10926000341D002000E100E02DE9F0418AB0EFF369
:109270000383103B5BB2C0333F4A52F823106FF3B5
:10928000104142F82310EFF30385103DEDB23B4B44
:109290006EB2002253F82670D7E900E494F8531810
:1092A000DEF8103084F8532894F852C81B7B0CF079
:1092B0001F0C0CF12002C9B2100184F85318215878
:1092C000205843EAD07303F00103C1F380708DF896
:1092D00019008DF81830002B4AD1C1F38A4105914D
:1092E00004EB02129388C3F30303D8B208288DF865
:1092F0001A303AD908208DF81A0008AA002304EB86
:109300000C1808EB0301013391F8061202F8011B57
:109310008342F6D3DEF80020009204EB0C034422D3
:1093200083F820284FF4806100227B6A0792ADF811
:1093300004106A4607F12001F8690493CDF80CC0C7
:10934000FFF7FAFEB4F84238DB070BD5002E09DB35
:109350007609403605F01F050123094A03FA05F591
:1093600042F826500AB0BDE8F0810028C5D1D1E707
:1093700021F060410591B3E700600040341D0020FA
:1093800000E100E0F0B58BB0EFF30383103B5BB27C
:10939000C033224A52F823106FF3104142F82310D1
:1093A000EFF30383103B5BB21D4A52F82350D5E91B
:1093B00000340126196894F853286F6A84F85368BA
:1093C00094F85238009103F01F03E118D2B284F8E8
:1093D0005328002281F8202881F820284FF40062C9
:1093E000ADF8042005F12001E86903936A4604976B
:1093F000FFF7A2FEB4F842389B070CD52B6893F90F
:109400001730002B07DB5A09403203F01F030549D0
:109410009E4041F822600BB0F0BD00BF00600040EC
:10942000341D002000E100E00B7C03F1401303F544
:1094300000631B02F0B4044641608360EFF31082C6
:10944000012383F310883B480E7CC568C6F10306F0
:10945000B34025EA0303C360C36882F31088A2689F
:1094600000231372137AC3F34003002BFAD1CD69A2
:109470000E7AE87895F800C093722F7900F0070013
:10948000BCF1000F43D1002E48D14B681773C0B216
:1094900067680025957350729672E3603F7C264E94
:1094A00091F9120046F82730013B9BB2A842138085
:1094B00023DB4B7CDFF88CC0204E00F1604202F5CC
:1094C00061421B01DBB282F8003300F1C00743099F
:1094D0004CF820409B0056F827C003F1604303F589
:1094E000614300F01F00012202FA00F065F3104C06
:1094F00046F827C0C3F880011860D1E90502104B77
:1095000020610020C4E905022360F0BC7047BCF173
:10951000500F09D04CEA0000C0B2B6E786F0020650
:1095200040EA06106646B0E740F05000C0B21E4662
:10953000ABE700BFFC6F0440BC05002000600040AA
:1095400054474100341D00208268117A01F0010166
:10955000137AC3F340039942FAD143681978012979
:1095600003D0F12313720020704710B4C1681C7C33
:1095700005484B1E9BB21380F12340F82410137250
:1095800000205DF8044B7047BC050020D0E90223A1
:10959000013BF1219BB2138000201172704700BF84
:1095A0000620704730B48268147A04F00104137AFC
:1095B000C3F340039C42FAD14368C468D8698C6005
:1095C000007850281FD0537AC3F3021358070BD5E5
:1095D000937A4FF4004203F00703002022FA03F3CA
:1095E0004B60087030BC70471E481F4A006A126802
:1095F000C0F30264A240C0F30220C240002BECD0B2
:1096000083F00203E9E71B7C1848013B50F8234034
:10961000E4B1A2F58072507AC0F3021045071AD463
:10962000104B114A1B6A1268C3F30265AA40C3F3C8
:10963000022322FA03F308B180F00200C3400020A5
:10964000B3FBF4F308704B6030BC704700204C60F3
:10965000087030BC7047907A4FF4004300F0070068
:10966000ECE700BF00E00140BC1D0020BC0500206D
:1096700010B48268117A01F00101137AC3F3400338
:109680009942FAD1436893F91230F424002113F17E
:10969000210F1472117315D08B4210DB5A0920323E
:1096A00001210B4C03F01F0301FA03F344F82230AD
:1096B000BFF34F8FBFF36F8F436893F91230054AA2
:1096C00042F82300002303605DF8044B18467047FE
:1096D00000E100E0341D0020F0B585B0EFF3038316
:1096E000103B5BB203F1C0011B4A1C4C52F8210035
:1096F0006FF3104042F8210054F82340D4E90112DE
:109700000978137A0129DBB204D103F0F003F421C4
:10971000117213722769BFB16569D5B195E8070069
:1097200001AE86E807009B0644BF00232B71A369A6
:109730002B602846B84763691BB196E8070083E8A9
:109740000700A268137ADBB203F00F03137205B0AF
:10975000F0BD01AE3546E6E700600040341D002054
:10976000034600201A689B8A1380704703681B8891
:10977000C3F3C0330B700020704700BF0368103183
:10978000002033F811301380704700BF2DE9F043FB
:10979000D0E90032D1E90064D1F808E0D2F814C071
:1097A00026F0405724F040521FFA82F82EF0405520
:1097B0001FFA87F93443A3F80490120CA3F814801D
:1097C0001FFA85F94FEA17482D0C14F0405FA3F8F3
:1097D0000890A3F80680DA825D8156D1CC68002C0F
:1097E00000F090802289150522D5D4E900E5B4F86F
:1097F0000A90B4F80C80A3F89020A3F89C90A3F8EA
:109800009E801FFA8EF9CEF30B48A3F894904FEA8E
:109810001E7EA3F896801FFA85F9C5F30B482D0F1D
:1098200083F892E0A3F89890A3F89A8083F8935075
:1098300095051AD49CF80340098AA3F89020A3F850
:10984000801064B11A88818A92B222F01F02B7FA9E
:1098500087F71F32D21B92B211431A8081822A4BA2
:10986000C0E903360020BDE8F083A57C94F813908E
:10987000B4F80E80B4F810E045EA090483F8A64075
:10988000A3F8A880A3F8AAE0D4E7204D204A2D6AC7
:109890001268DFF88080C5F3026902FA09F2C5F3A5
:1098A0000215EA40A8FB02529509DFF86C8041F2EC
:1098B000883202FB05F2A8FB0252920C0132072A01
:1098C00038BF072214F080550AD01EF0805F5FFA7F
:1098D00082F840F2011583F8DE8008BF4FF48075EE
:1098E000A40009D5D2B245F400751EF0005F83F8DC
:1098F000DF2018BF45F00205CC68ADB25D82002CB8
:109900007FF470AF224695E74344415200E00140A6
:10991000BC1D0020D34D621083DE1B4330B400F128
:10992000604303F56143104D104C0901C9B283F83F
:10993000001345F8202000F1C001430954F82150DC
:109940009B006FF3104503F1604344F8215003F589
:10995000614300F01F00012202FA00F0C3F8800109
:1099600030BC1860704700BF341D0020006000400C
:10997000430910B4203300F01F0408490122A2401B
:1099800041F82320BFF34F8FBFF36F8F044B5DF877
:10999000044B002243F82020704700BF00E100E0A4
:1099A000341D002038B5436800220446826093F9D4
:1099B00006005D69E260904202DBFFF7D9FF636851
:1099C00093F90700002801DBFFF7D2FF95F90600A5
:1099D000002801DBFFF7CCFF95F90700002801DB29
:1099E000FFF7C6FF2368002018821880EFF310826B
:1099F000012383F31088646805492488CD68C4F185
:109A00001004A3402B43CB60CB6882F3108838BD91
:109A1000FC6F04400A882DE9F84305460C464E6960
:109A20004879C968A96152022169296202F180421C
:109A300002F5B8220021E961A1782A6032796C60D0
:109A40000302920743F04003F27843EA413348BFF0
:109A500043F48063002A6ED043F42073022808BFC9
:109A600038499BB208BF31F82200AB8218BF0020F2
:109A70002279E17896F801E03778D20342EA410290
:109A800042EA4E1EEFF3108C012181F31088DFF8BB
:109A9000BC802288D8F80C90C2F1100201FA02F2C0
:109AA00029EA0202C8F80C20D8F80C208CF31088A0
:109AB00096F804C02A6847F6FF581FFA8EFE03EA9C
:109AC00008031CF0020F13801082A2F80EE0177337
:109AD00009D04CF0030C82F88AC0084600F0EEF87A
